{
	"contracts/StorageFactory.sol": {
		"StorageFactory": {
			"abi": [
				{
					"inputs": [
						{
							"internalType": "string",
							"name": "_name",
							"type": "string"
						},
						{
							"internalType": "uint256",
							"name": "_favoriteNumber",
							"type": "uint256"
						}
					],
					"name": "addPerson",
					"outputs": [],
					"stateMutability": "nonpayable",
					"type": "function"
				},
				{
					"inputs": [],
					"name": "createSimpleStorageContract",
					"outputs": [],
					"stateMutability": "nonpayable",
					"type": "function"
				},
				{
					"inputs": [
						{
							"internalType": "string",
							"name": "",
							"type": "string"
						}
					],
					"name": "nameToFavoriteNumber",
					"outputs": [
						{
							"internalType": "uint256",
							"name": "",
							"type": "uint256"
						}
					],
					"stateMutability": "view",
					"type": "function"
				},
				{
					"inputs": [
						{
							"internalType": "uint256",
							"name": "",
							"type": "uint256"
						}
					],
					"name": "people",
					"outputs": [
						{
							"internalType": "uint256",
							"name": "favoriteNumber",
							"type": "uint256"
						},
						{
							"internalType": "string",
							"name": "name",
							"type": "string"
						}
					],
					"stateMutability": "view",
					"type": "function"
				},
				{
					"inputs": [],
					"name": "retrieve",
					"outputs": [
						{
							"internalType": "uint256",
							"name": "",
							"type": "uint256"
						}
					],
					"stateMutability": "view",
					"type": "function"
				},
				{
					"inputs": [
						{
							"internalType": "uint256",
							"name": "_simpleStorageIndex",
							"type": "uint256"
						}
					],
					"name": "sfGet",
					"outputs": [
						{
							"internalType": "uint256",
							"name": "",
							"type": "uint256"
						}
					],
					"stateMutability": "view",
					"type": "function"
				},
				{
					"inputs": [
						{
							"internalType": "uint256",
							"name": "_simpleStorageIndex",
							"type": "uint256"
						},
						{
							"internalType": "uint256",
							"name": "_simpleStorageNumber",
							"type": "uint256"
						}
					],
					"name": "sfStore",
					"outputs": [],
					"stateMutability": "nonpayable",
					"type": "function"
				},
				{
					"inputs": [
						{
							"internalType": "uint256",
							"name": "",
							"type": "uint256"
						}
					],
					"name": "simpleStorageArray",
					"outputs": [
						{
							"internalType": "contract SimpleStorage",
							"name": "",
							"type": "address"
						}
					],
					"stateMutability": "view",
					"type": "function"
				},
				{
					"inputs": [
						{
							"internalType": "uint256",
							"name": "_favoriteNumber",
							"type": "uint256"
						}
					],
					"name": "store",
					"outputs": [],
					"stateMutability": "nonpayable",
					"type": "function"
				}
			],
			"devdoc": {
				"kind": "dev",
				"methods": {},
				"version": 1
			},
			"evm": {
				"assembly": "    /* \"contracts/StorageFactory.sol\":107:788  contract StorageFactory is SimpleStorage{\r... */\n  mstore(0x40, 0x80)\n  callvalue\n  dup1\n  iszero\n  tag_1\n  jumpi\n  0x00\n  dup1\n  revert\ntag_1:\n  pop\n  dataSize(sub_0)\n  dup1\n  dataOffset(sub_0)\n  0x00\n  codecopy\n  0x00\n  return\nstop\n\nsub_0: assembly {\n        /* \"contracts/StorageFactory.sol\":107:788  contract StorageFactory is SimpleStorage{\r... */\n      mstore(0x40, 0x80)\n      callvalue\n      dup1\n      iszero\n      tag_1\n      jumpi\n      0x00\n      dup1\n      revert\n    tag_1:\n      pop\n      jumpi(tag_2, lt(calldatasize, 0x04))\n      shr(0xe0, calldataload(0x00))\n      dup1\n      0x64591bf1\n      gt\n      tag_12\n      jumpi\n      dup1\n      0x64591bf1\n      eq\n      tag_7\n      jumpi\n      dup1\n      0x6f760f41\n      eq\n      tag_8\n      jumpi\n      dup1\n      0x8bab8dd5\n      eq\n      tag_9\n      jumpi\n      dup1\n      0x9e7a13ad\n      eq\n      tag_10\n      jumpi\n      dup1\n      0xc5f19c20\n      eq\n      tag_11\n      jumpi\n      jump(tag_2)\n    tag_12:\n      dup1\n      0x1563700f\n      eq\n      tag_3\n      jumpi\n      dup1\n      0x1dda6541\n      eq\n      tag_4\n      jumpi\n      dup1\n      0x2e64cec1\n      eq\n      tag_5\n      jumpi\n      dup1\n      0x6057361d\n      eq\n      tag_6\n      jumpi\n    tag_2:\n      0x00\n      dup1\n      revert\n        /* \"contracts/StorageFactory.sol\":377:603  function sfStore(uint256 _simpleStorageIndex, uint _simpleStorageNumber) public {\r... */\n    tag_3:\n      tag_13\n      0x04\n      dup1\n      calldatasize\n      sub\n      dup2\n      add\n      swap1\n      tag_14\n      swap2\n      swap1\n      tag_15\n      jump\t// in\n    tag_14:\n      tag_16\n      jump\t// in\n    tag_13:\n      stop\n        /* \"contracts/StorageFactory.sol\":206:369  function createSimpleStorageContract() public {\r... */\n    tag_4:\n      tag_17\n      tag_18\n      jump\t// in\n    tag_17:\n      stop\n        /* \"contracts/SimpleStorage.sol\":503:592  function retrieve() public view returns(uint256) {\r... */\n    tag_5:\n      tag_19\n      tag_20\n      jump\t// in\n    tag_19:\n      mload(0x40)\n      tag_21\n      swap2\n      swap1\n      tag_22\n      jump\t// in\n    tag_21:\n      mload(0x40)\n      dup1\n      swap2\n      sub\n      swap1\n      return\n        /* \"contracts/SimpleStorage.sol\":378:476  function store(uint256 _favoriteNumber) public {\r... */\n    tag_6:\n      tag_23\n      0x04\n      dup1\n      calldatasize\n      sub\n      dup2\n      add\n      swap1\n      tag_24\n      swap2\n      swap1\n      tag_25\n      jump\t// in\n    tag_24:\n      tag_26\n      jump\t// in\n    tag_23:\n      stop\n        /* \"contracts/StorageFactory.sol\":156:197  SimpleStorage[] public simpleStorageArray */\n    tag_7:\n      tag_27\n      0x04\n      dup1\n      calldatasize\n      sub\n      dup2\n      add\n      swap1\n      tag_28\n      swap2\n      swap1\n      tag_25\n      jump\t// in\n    tag_28:\n      tag_29\n      jump\t// in\n    tag_27:\n      mload(0x40)\n      tag_30\n      swap2\n      swap1\n      tag_31\n      jump\t// in\n    tag_30:\n      mload(0x40)\n      dup1\n      swap2\n      sub\n      swap1\n      return\n        /* \"contracts/SimpleStorage.sol\":600:790  function addPerson(string memory _name, uint256 _favoriteNumber) public {\r... */\n    tag_8:\n      tag_32\n      0x04\n      dup1\n      calldatasize\n      sub\n      dup2\n      add\n      swap1\n      tag_33\n      swap2\n      swap1\n      tag_34\n      jump\t// in\n    tag_33:\n      tag_35\n      jump\t// in\n    tag_32:\n      stop\n        /* \"contracts/SimpleStorage.sol\":315:369  mapping(string => uint256) public nameToFavoriteNumber */\n    tag_9:\n      tag_36\n      0x04\n      dup1\n      calldatasize\n      sub\n      dup2\n      add\n      swap1\n      tag_37\n      swap2\n      swap1\n      tag_38\n      jump\t// in\n    tag_37:\n      tag_39\n      jump\t// in\n    tag_36:\n      mload(0x40)\n      tag_40\n      swap2\n      swap1\n      tag_22\n      jump\t// in\n    tag_40:\n      mload(0x40)\n      dup1\n      swap2\n      sub\n      swap1\n      return\n        /* \"contracts/SimpleStorage.sol\":286:308  People[] public people */\n    tag_10:\n      tag_41\n      0x04\n      dup1\n      calldatasize\n      sub\n      dup2\n      add\n      swap1\n      tag_42\n      swap2\n      swap1\n      tag_25\n      jump\t// in\n    tag_42:\n      tag_43\n      jump\t// in\n    tag_41:\n      mload(0x40)\n      tag_44\n      swap3\n      swap2\n      swap1\n      tag_45\n      jump\t// in\n    tag_44:\n      mload(0x40)\n      dup1\n      swap2\n      sub\n      swap1\n      return\n        /* \"contracts/StorageFactory.sol\":611:785  function sfGet(uint256 _simpleStorageIndex) public view returns (uint256) {\r... */\n    tag_11:\n      tag_46\n      0x04\n      dup1\n      calldatasize\n      sub\n      dup2\n      add\n      swap1\n      tag_47\n      swap2\n      swap1\n      tag_25\n      jump\t// in\n    tag_47:\n      tag_48\n      jump\t// in\n    tag_46:\n      mload(0x40)\n      tag_49\n      swap2\n      swap1\n      tag_22\n      jump\t// in\n    tag_49:\n      mload(0x40)\n      dup1\n      swap2\n      sub\n      swap1\n      return\n        /* \"contracts/StorageFactory.sol\":377:603  function sfStore(uint256 _simpleStorageIndex, uint _simpleStorageNumber) public {\r... */\n    tag_16:\n        /* \"contracts/StorageFactory.sol\":526:544  simpleStorageArray */\n      0x04\n        /* \"contracts/StorageFactory.sol\":545:564  _simpleStorageIndex */\n      dup3\n        /* \"contracts/StorageFactory.sol\":526:565  simpleStorageArray[_simpleStorageIndex] */\n      dup2\n      sload\n      dup2\n      lt\n      tag_51\n      jumpi\n      tag_52\n      tag_53\n      jump\t// in\n    tag_52:\n    tag_51:\n      swap1\n      0x00\n      mstore\n      keccak256(0x00, 0x20)\n      add\n      0x00\n      swap1\n      sload\n      swap1\n      0x0100\n      exp\n      swap1\n      div\n      0xffffffffffffffffffffffffffffffffffffffff\n      and\n        /* \"contracts/StorageFactory.sol\":504:573  SimpleStorage(address(simpleStorageArray[_simpleStorageIndex])).store */\n      0xffffffffffffffffffffffffffffffffffffffff\n      and\n      0x6057361d\n        /* \"contracts/StorageFactory.sol\":574:594  _simpleStorageNumber */\n      dup3\n        /* \"contracts/StorageFactory.sol\":504:595  SimpleStorage(address(simpleStorageArray[_simpleStorageIndex])).store(_simpleStorageNumber) */\n      mload(0x40)\n      dup3\n      0xffffffff\n      and\n      0xe0\n      shl\n      dup2\n      mstore\n      0x04\n      add\n      tag_55\n      swap2\n      swap1\n      tag_22\n      jump\t// in\n    tag_55:\n      0x00\n      mload(0x40)\n      dup1\n      dup4\n      sub\n      dup2\n      0x00\n      dup8\n      dup1\n      extcodesize\n      iszero\n      dup1\n      iszero\n      tag_56\n      jumpi\n      0x00\n      dup1\n      revert\n    tag_56:\n      pop\n      gas\n      call\n      iszero\n      dup1\n      iszero\n      tag_58\n      jumpi\n      returndatasize\n      0x00\n      dup1\n      returndatacopy\n      revert(0x00, returndatasize)\n    tag_58:\n      pop\n      pop\n      pop\n      pop\n        /* \"contracts/StorageFactory.sol\":377:603  function sfStore(uint256 _simpleStorageIndex, uint _simpleStorageNumber) public {\r... */\n      pop\n      pop\n      jump\t// out\n        /* \"contracts/StorageFactory.sol\":206:369  function createSimpleStorageContract() public {\r... */\n    tag_18:\n        /* \"contracts/StorageFactory.sol\":263:290  SimpleStorage simpleStorage */\n      0x00\n        /* \"contracts/StorageFactory.sol\":293:312  new SimpleStorage() */\n      mload(0x40)\n      tag_60\n      swap1\n      tag_61\n      jump\t// in\n    tag_60:\n      mload(0x40)\n      dup1\n      swap2\n      sub\n      swap1\n      0x00\n      create\n      dup1\n      iszero\n      dup1\n      iszero\n      tag_62\n      jumpi\n      returndatasize\n      0x00\n      dup1\n      returndatacopy\n      revert(0x00, returndatasize)\n    tag_62:\n      pop\n        /* \"contracts/StorageFactory.sol\":263:312  SimpleStorage simpleStorage = new SimpleStorage() */\n      swap1\n      pop\n        /* \"contracts/StorageFactory.sol\":323:341  simpleStorageArray */\n      0x04\n        /* \"contracts/StorageFactory.sol\":347:360  simpleStorage */\n      dup2\n        /* \"contracts/StorageFactory.sol\":323:361  simpleStorageArray.push(simpleStorage) */\n      swap1\n      dup1\n      0x01\n      dup2\n      sload\n      add\n      dup1\n      dup3\n      sstore\n      dup1\n      swap2\n      pop\n      pop\n      0x01\n      swap1\n      sub\n      swap1\n      0x00\n      mstore\n      keccak256(0x00, 0x20)\n      add\n      0x00\n      swap1\n      swap2\n      swap1\n      swap2\n      swap1\n      swap2\n      0x0100\n      exp\n      dup2\n      sload\n      dup2\n      0xffffffffffffffffffffffffffffffffffffffff\n      mul\n      not\n      and\n      swap1\n      dup4\n      0xffffffffffffffffffffffffffffffffffffffff\n      and\n      mul\n      or\n      swap1\n      sstore\n      pop\n        /* \"contracts/StorageFactory.sol\":252:369  {\r... */\n      pop\n        /* \"contracts/StorageFactory.sol\":206:369  function createSimpleStorageContract() public {\r... */\n      jump\t// out\n        /* \"contracts/SimpleStorage.sol\":503:592  function retrieve() public view returns(uint256) {\r... */\n    tag_20:\n        /* \"contracts/SimpleStorage.sol\":543:550  uint256 */\n      0x00\n        /* \"contracts/SimpleStorage.sol\":570:584  favoriteNumber */\n      dup1\n      sload\n        /* \"contracts/SimpleStorage.sol\":563:584  return favoriteNumber */\n      swap1\n      pop\n        /* \"contracts/SimpleStorage.sol\":503:592  function retrieve() public view returns(uint256) {\r... */\n      swap1\n      jump\t// out\n        /* \"contracts/SimpleStorage.sol\":378:476  function store(uint256 _favoriteNumber) public {\r... */\n    tag_26:\n        /* \"contracts/SimpleStorage.sol\":453:468  _favoriteNumber */\n      dup1\n        /* \"contracts/SimpleStorage.sol\":436:450  favoriteNumber */\n      0x00\n        /* \"contracts/SimpleStorage.sol\":436:468  favoriteNumber = _favoriteNumber */\n      dup2\n      swap1\n      sstore\n      pop\n        /* \"contracts/SimpleStorage.sol\":378:476  function store(uint256 _favoriteNumber) public {\r... */\n      pop\n      jump\t// out\n        /* \"contracts/StorageFactory.sol\":156:197  SimpleStorage[] public simpleStorageArray */\n    tag_29:\n      0x04\n      dup2\n      dup2\n      sload\n      dup2\n      lt\n      tag_66\n      jumpi\n      0x00\n      dup1\n      revert\n    tag_66:\n      swap1\n      0x00\n      mstore\n      keccak256(0x00, 0x20)\n      add\n      0x00\n      swap2\n      pop\n      sload\n      swap1\n      0x0100\n      exp\n      swap1\n      div\n      0xffffffffffffffffffffffffffffffffffffffff\n      and\n      dup2\n      jump\t// out\n        /* \"contracts/SimpleStorage.sol\":600:790  function addPerson(string memory _name, uint256 _favoriteNumber) public {\r... */\n    tag_35:\n        /* \"contracts/SimpleStorage.sol\":683:689  people */\n      0x02\n        /* \"contracts/SimpleStorage.sol\":695:725  People(_favoriteNumber, _name) */\n      mload(0x40)\n      dup1\n      0x40\n      add\n      0x40\n      mstore\n      dup1\n        /* \"contracts/SimpleStorage.sol\":702:717  _favoriteNumber */\n      dup4\n        /* \"contracts/SimpleStorage.sol\":695:725  People(_favoriteNumber, _name) */\n      dup2\n      mstore\n      0x20\n      add\n        /* \"contracts/SimpleStorage.sol\":719:724  _name */\n      dup5\n        /* \"contracts/SimpleStorage.sol\":695:725  People(_favoriteNumber, _name) */\n      dup2\n      mstore\n      pop\n        /* \"contracts/SimpleStorage.sol\":683:726  people.push(People(_favoriteNumber, _name)) */\n      swap1\n      dup1\n      0x01\n      dup2\n      sload\n      add\n      dup1\n      dup3\n      sstore\n      dup1\n      swap2\n      pop\n      pop\n      0x01\n      swap1\n      sub\n      swap1\n      0x00\n      mstore\n      keccak256(0x00, 0x20)\n      swap1\n      0x02\n      mul\n      add\n      0x00\n      swap1\n      swap2\n      swap1\n      swap2\n      swap1\n      swap2\n      pop\n      0x00\n      dup3\n      add\n      mload\n      dup2\n      0x00\n      add\n      sstore\n      0x20\n      dup3\n      add\n      mload\n      dup2\n      0x01\n      add\n      swap1\n      dup1\n      mload\n      swap1\n      0x20\n      add\n      swap1\n      tag_70\n      swap3\n      swap2\n      swap1\n      tag_71\n      jump\t// in\n    tag_70:\n      pop\n      pop\n      pop\n        /* \"contracts/SimpleStorage.sol\":767:782  _favoriteNumber */\n      dup1\n        /* \"contracts/SimpleStorage.sol\":737:757  nameToFavoriteNumber */\n      0x03\n        /* \"contracts/SimpleStorage.sol\":758:763  _name */\n      dup4\n        /* \"contracts/SimpleStorage.sol\":737:764  nameToFavoriteNumber[_name] */\n      mload(0x40)\n      tag_72\n      swap2\n      swap1\n      tag_73\n      jump\t// in\n    tag_72:\n      swap1\n      dup2\n      mstore\n      0x20\n      add\n      mload(0x40)\n      dup1\n      swap2\n      sub\n      swap1\n      keccak256\n        /* \"contracts/SimpleStorage.sol\":737:782  nameToFavoriteNumber[_name] = _favoriteNumber */\n      dup2\n      swap1\n      sstore\n      pop\n        /* \"contracts/SimpleStorage.sol\":600:790  function addPerson(string memory _name, uint256 _favoriteNumber) public {\r... */\n      pop\n      pop\n      jump\t// out\n        /* \"contracts/SimpleStorage.sol\":315:369  mapping(string => uint256) public nameToFavoriteNumber */\n    tag_39:\n      0x03\n      dup2\n      dup1\n      mload\n      0x20\n      dup2\n      add\n      dup3\n      add\n      dup1\n      mload\n      dup5\n      dup3\n      mstore\n      0x20\n      dup4\n      add\n      0x20\n      dup6\n      add\n      keccak256\n      dup2\n      dup4\n      mstore\n      dup1\n      swap6\n      pop\n      pop\n      pop\n      pop\n      pop\n      pop\n      0x00\n      swap2\n      pop\n      swap1\n      pop\n      sload\n      dup2\n      jump\t// out\n        /* \"contracts/SimpleStorage.sol\":286:308  People[] public people */\n    tag_43:\n      0x02\n      dup2\n      dup2\n      sload\n      dup2\n      lt\n      tag_74\n      jumpi\n      0x00\n      dup1\n      revert\n    tag_74:\n      swap1\n      0x00\n      mstore\n      keccak256(0x00, 0x20)\n      swap1\n      0x02\n      mul\n      add\n      0x00\n      swap2\n      pop\n      swap1\n      pop\n      dup1\n      0x00\n      add\n      sload\n      swap1\n      dup1\n      0x01\n      add\n      dup1\n      sload\n      tag_76\n      swap1\n      tag_77\n      jump\t// in\n    tag_76:\n      dup1\n      0x1f\n      add\n      0x20\n      dup1\n      swap2\n      div\n      mul\n      0x20\n      add\n      mload(0x40)\n      swap1\n      dup2\n      add\n      0x40\n      mstore\n      dup1\n      swap3\n      swap2\n      swap1\n      dup2\n      dup2\n      mstore\n      0x20\n      add\n      dup3\n      dup1\n      sload\n      tag_78\n      swap1\n      tag_77\n      jump\t// in\n    tag_78:\n      dup1\n      iszero\n      tag_79\n      jumpi\n      dup1\n      0x1f\n      lt\n      tag_80\n      jumpi\n      0x0100\n      dup1\n      dup4\n      sload\n      div\n      mul\n      dup4\n      mstore\n      swap2\n      0x20\n      add\n      swap2\n      jump(tag_79)\n    tag_80:\n      dup3\n      add\n      swap2\n      swap1\n      0x00\n      mstore\n      keccak256(0x00, 0x20)\n      swap1\n    tag_81:\n      dup2\n      sload\n      dup2\n      mstore\n      swap1\n      0x01\n      add\n      swap1\n      0x20\n      add\n      dup1\n      dup4\n      gt\n      tag_81\n      jumpi\n      dup3\n      swap1\n      sub\n      0x1f\n      and\n      dup3\n      add\n      swap2\n    tag_79:\n      pop\n      pop\n      pop\n      pop\n      pop\n      swap1\n      pop\n      dup3\n      jump\t// out\n        /* \"contracts/StorageFactory.sol\":611:785  function sfGet(uint256 _simpleStorageIndex) public view returns (uint256) {\r... */\n    tag_48:\n        /* \"contracts/StorageFactory.sol\":676:683  uint256 */\n      0x00\n        /* \"contracts/StorageFactory.sol\":725:743  simpleStorageArray */\n      0x04\n        /* \"contracts/StorageFactory.sol\":744:763  _simpleStorageIndex */\n      dup3\n        /* \"contracts/StorageFactory.sol\":725:764  simpleStorageArray[_simpleStorageIndex] */\n      dup2\n      sload\n      dup2\n      lt\n      tag_83\n      jumpi\n      tag_84\n      tag_53\n      jump\t// in\n    tag_84:\n    tag_83:\n      swap1\n      0x00\n      mstore\n      keccak256(0x00, 0x20)\n      add\n      0x00\n      swap1\n      sload\n      swap1\n      0x0100\n      exp\n      swap1\n      div\n      0xffffffffffffffffffffffffffffffffffffffff\n      and\n        /* \"contracts/StorageFactory.sol\":703:775  SimpleStorage(address(simpleStorageArray[_simpleStorageIndex])).retrieve */\n      0xffffffffffffffffffffffffffffffffffffffff\n      and\n      0x2e64cec1\n        /* \"contracts/StorageFactory.sol\":703:777  SimpleStorage(address(simpleStorageArray[_simpleStorageIndex])).retrieve() */\n      mload(0x40)\n      dup2\n      0xffffffff\n      and\n      0xe0\n      shl\n      dup2\n      mstore\n      0x04\n      add\n      0x20\n      mload(0x40)\n      dup1\n      dup4\n      sub\n      dup2\n      dup7\n      dup1\n      extcodesize\n      iszero\n      dup1\n      iszero\n      tag_86\n      jumpi\n      0x00\n      dup1\n      revert\n    tag_86:\n      pop\n      gas\n      staticcall\n      iszero\n      dup1\n      iszero\n      tag_88\n      jumpi\n      returndatasize\n      0x00\n      dup1\n      returndatacopy\n      revert(0x00, returndatasize)\n    tag_88:\n      pop\n      pop\n      pop\n      pop\n      mload(0x40)\n      returndatasize\n      not(0x1f)\n      0x1f\n      dup3\n      add\n      and\n      dup3\n      add\n      dup1\n      0x40\n      mstore\n      pop\n      dup2\n      add\n      swap1\n      tag_89\n      swap2\n      swap1\n      tag_90\n      jump\t// in\n    tag_89:\n        /* \"contracts/StorageFactory.sol\":696:777  return SimpleStorage(address(simpleStorageArray[_simpleStorageIndex])).retrieve() */\n      swap1\n      pop\n        /* \"contracts/StorageFactory.sol\":611:785  function sfGet(uint256 _simpleStorageIndex) public view returns (uint256) {\r... */\n      swap2\n      swap1\n      pop\n      jump\t// out\n    tag_61:\n      dataSize(sub_0)\n      dup1\n      dataOffset(sub_0)\n      dup4\n      codecopy\n      add\n      swap1\n      jump\t// out\n    tag_71:\n      dup3\n      dup1\n      sload\n      tag_91\n      swap1\n      tag_77\n      jump\t// in\n    tag_91:\n      swap1\n      0x00\n      mstore\n      keccak256(0x00, 0x20)\n      swap1\n      0x1f\n      add\n      0x20\n      swap1\n      div\n      dup2\n      add\n      swap3\n      dup3\n      tag_93\n      jumpi\n      0x00\n      dup6\n      sstore\n      jump(tag_92)\n    tag_93:\n      dup3\n      0x1f\n      lt\n      tag_94\n      jumpi\n      dup1\n      mload\n      not(0xff)\n      and\n      dup4\n      dup1\n      add\n      or\n      dup6\n      sstore\n      jump(tag_92)\n    tag_94:\n      dup3\n      dup1\n      add\n      0x01\n      add\n      dup6\n      sstore\n      dup3\n      iszero\n      tag_92\n      jumpi\n      swap2\n      dup3\n      add\n    tag_95:\n      dup3\n      dup2\n      gt\n      iszero\n      tag_96\n      jumpi\n      dup3\n      mload\n      dup3\n      sstore\n      swap2\n      0x20\n      add\n      swap2\n      swap1\n      0x01\n      add\n      swap1\n      jump(tag_95)\n    tag_96:\n    tag_92:\n      pop\n      swap1\n      pop\n      tag_97\n      swap2\n      swap1\n      tag_98\n      jump\t// in\n    tag_97:\n      pop\n      swap1\n      jump\t// out\n    tag_98:\n    tag_99:\n      dup1\n      dup3\n      gt\n      iszero\n      tag_100\n      jumpi\n      0x00\n      dup2\n      0x00\n      swap1\n      sstore\n      pop\n      0x01\n      add\n      jump(tag_99)\n    tag_100:\n      pop\n      swap1\n      jump\t// out\n        /* \"#utility.yul\":7:419   */\n    tag_102:\n        /* \"#utility.yul\":85:90   */\n      0x00\n        /* \"#utility.yul\":110:176   */\n      tag_104\n        /* \"#utility.yul\":126:175   */\n      tag_105\n        /* \"#utility.yul\":168:174   */\n      dup5\n        /* \"#utility.yul\":126:175   */\n      tag_106\n      jump\t// in\n    tag_105:\n        /* \"#utility.yul\":110:176   */\n      tag_107\n      jump\t// in\n    tag_104:\n        /* \"#utility.yul\":101:176   */\n      swap1\n      pop\n        /* \"#utility.yul\":199:205   */\n      dup3\n        /* \"#utility.yul\":192:197   */\n      dup2\n        /* \"#utility.yul\":185:206   */\n      mstore\n        /* \"#utility.yul\":237:241   */\n      0x20\n        /* \"#utility.yul\":230:235   */\n      dup2\n        /* \"#utility.yul\":226:242   */\n      add\n        /* \"#utility.yul\":275:278   */\n      dup5\n        /* \"#utility.yul\":266:272   */\n      dup5\n        /* \"#utility.yul\":261:264   */\n      dup5\n        /* \"#utility.yul\":257:273   */\n      add\n        /* \"#utility.yul\":254:279   */\n      gt\n        /* \"#utility.yul\":251:363   */\n      iszero\n      tag_108\n      jumpi\n        /* \"#utility.yul\":282:361   */\n      tag_109\n      tag_110\n      jump\t// in\n    tag_109:\n        /* \"#utility.yul\":251:363   */\n    tag_108:\n        /* \"#utility.yul\":372:413   */\n      tag_111\n        /* \"#utility.yul\":406:412   */\n      dup5\n        /* \"#utility.yul\":401:404   */\n      dup3\n        /* \"#utility.yul\":396:399   */\n      dup6\n        /* \"#utility.yul\":372:413   */\n      tag_112\n      jump\t// in\n    tag_111:\n        /* \"#utility.yul\":91:419   */\n      pop\n        /* \"#utility.yul\":7:419   */\n      swap4\n      swap3\n      pop\n      pop\n      pop\n      jump\t// out\n        /* \"#utility.yul\":439:779   */\n    tag_113:\n        /* \"#utility.yul\":495:500   */\n      0x00\n        /* \"#utility.yul\":544:547   */\n      dup3\n        /* \"#utility.yul\":537:541   */\n      0x1f\n        /* \"#utility.yul\":529:535   */\n      dup4\n        /* \"#utility.yul\":525:542   */\n      add\n        /* \"#utility.yul\":521:548   */\n      slt\n        /* \"#utility.yul\":511:633   */\n      tag_115\n      jumpi\n        /* \"#utility.yul\":552:631   */\n      tag_116\n      tag_117\n      jump\t// in\n    tag_116:\n        /* \"#utility.yul\":511:633   */\n    tag_115:\n        /* \"#utility.yul\":669:675   */\n      dup2\n        /* \"#utility.yul\":656:676   */\n      calldataload\n        /* \"#utility.yul\":694:773   */\n      tag_118\n        /* \"#utility.yul\":769:772   */\n      dup5\n        /* \"#utility.yul\":761:767   */\n      dup3\n        /* \"#utility.yul\":754:758   */\n      0x20\n        /* \"#utility.yul\":746:752   */\n      dup7\n        /* \"#utility.yul\":742:759   */\n      add\n        /* \"#utility.yul\":694:773   */\n      tag_102\n      jump\t// in\n    tag_118:\n        /* \"#utility.yul\":685:773   */\n      swap2\n      pop\n        /* \"#utility.yul\":501:779   */\n      pop\n        /* \"#utility.yul\":439:779   */\n      swap3\n      swap2\n      pop\n      pop\n      jump\t// out\n        /* \"#utility.yul\":785:924   */\n    tag_119:\n        /* \"#utility.yul\":831:836   */\n      0x00\n        /* \"#utility.yul\":869:875   */\n      dup2\n        /* \"#utility.yul\":856:876   */\n      calldataload\n        /* \"#utility.yul\":847:876   */\n      swap1\n      pop\n        /* \"#utility.yul\":885:918   */\n      tag_121\n        /* \"#utility.yul\":912:917   */\n      dup2\n        /* \"#utility.yul\":885:918   */\n      tag_122\n      jump\t// in\n    tag_121:\n        /* \"#utility.yul\":785:924   */\n      swap3\n      swap2\n      pop\n      pop\n      jump\t// out\n        /* \"#utility.yul\":930:1073   */\n    tag_123:\n        /* \"#utility.yul\":987:992   */\n      0x00\n        /* \"#utility.yul\":1018:1024   */\n      dup2\n        /* \"#utility.yul\":1012:1025   */\n      mload\n        /* \"#utility.yul\":1003:1025   */\n      swap1\n      pop\n        /* \"#utility.yul\":1034:1067   */\n      tag_125\n        /* \"#utility.yul\":1061:1066   */\n      dup2\n        /* \"#utility.yul\":1034:1067   */\n      tag_122\n      jump\t// in\n    tag_125:\n        /* \"#utility.yul\":930:1073   */\n      swap3\n      swap2\n      pop\n      pop\n      jump\t// out\n        /* \"#utility.yul\":1079:1588   */\n    tag_38:\n        /* \"#utility.yul\":1148:1154   */\n      0x00\n        /* \"#utility.yul\":1197:1199   */\n      0x20\n        /* \"#utility.yul\":1185:1194   */\n      dup3\n        /* \"#utility.yul\":1176:1183   */\n      dup5\n        /* \"#utility.yul\":1172:1195   */\n      sub\n        /* \"#utility.yul\":1168:1200   */\n      slt\n        /* \"#utility.yul\":1165:1284   */\n      iszero\n      tag_127\n      jumpi\n        /* \"#utility.yul\":1203:1282   */\n      tag_128\n      tag_129\n      jump\t// in\n    tag_128:\n        /* \"#utility.yul\":1165:1284   */\n    tag_127:\n        /* \"#utility.yul\":1351:1352   */\n      0x00\n        /* \"#utility.yul\":1340:1349   */\n      dup3\n        /* \"#utility.yul\":1336:1353   */\n      add\n        /* \"#utility.yul\":1323:1354   */\n      calldataload\n        /* \"#utility.yul\":1381:1399   */\n      0xffffffffffffffff\n        /* \"#utility.yul\":1373:1379   */\n      dup2\n        /* \"#utility.yul\":1370:1400   */\n      gt\n        /* \"#utility.yul\":1367:1484   */\n      iszero\n      tag_130\n      jumpi\n        /* \"#utility.yul\":1403:1482   */\n      tag_131\n      tag_132\n      jump\t// in\n    tag_131:\n        /* \"#utility.yul\":1367:1484   */\n    tag_130:\n        /* \"#utility.yul\":1508:1571   */\n      tag_133\n        /* \"#utility.yul\":1563:1570   */\n      dup5\n        /* \"#utility.yul\":1554:1560   */\n      dup3\n        /* \"#utility.yul\":1543:1552   */\n      dup6\n        /* \"#utility.yul\":1539:1561   */\n      add\n        /* \"#utility.yul\":1508:1571   */\n      tag_113\n      jump\t// in\n    tag_133:\n        /* \"#utility.yul\":1498:1571   */\n      swap2\n      pop\n        /* \"#utility.yul\":1294:1581   */\n      pop\n        /* \"#utility.yul\":1079:1588   */\n      swap3\n      swap2\n      pop\n      pop\n      jump\t// out\n        /* \"#utility.yul\":1594:2248   */\n    tag_34:\n        /* \"#utility.yul\":1672:1678   */\n      0x00\n        /* \"#utility.yul\":1680:1686   */\n      dup1\n        /* \"#utility.yul\":1729:1731   */\n      0x40\n        /* \"#utility.yul\":1717:1726   */\n      dup4\n        /* \"#utility.yul\":1708:1715   */\n      dup6\n        /* \"#utility.yul\":1704:1727   */\n      sub\n        /* \"#utility.yul\":1700:1732   */\n      slt\n        /* \"#utility.yul\":1697:1816   */\n      iszero\n      tag_135\n      jumpi\n        /* \"#utility.yul\":1735:1814   */\n      tag_136\n      tag_129\n      jump\t// in\n    tag_136:\n        /* \"#utility.yul\":1697:1816   */\n    tag_135:\n        /* \"#utility.yul\":1883:1884   */\n      0x00\n        /* \"#utility.yul\":1872:1881   */\n      dup4\n        /* \"#utility.yul\":1868:1885   */\n      add\n        /* \"#utility.yul\":1855:1886   */\n      calldataload\n        /* \"#utility.yul\":1913:1931   */\n      0xffffffffffffffff\n        /* \"#utility.yul\":1905:1911   */\n      dup2\n        /* \"#utility.yul\":1902:1932   */\n      gt\n        /* \"#utility.yul\":1899:2016   */\n      iszero\n      tag_137\n      jumpi\n        /* \"#utility.yul\":1935:2014   */\n      tag_138\n      tag_132\n      jump\t// in\n    tag_138:\n        /* \"#utility.yul\":1899:2016   */\n    tag_137:\n        /* \"#utility.yul\":2040:2103   */\n      tag_139\n        /* \"#utility.yul\":2095:2102   */\n      dup6\n        /* \"#utility.yul\":2086:2092   */\n      dup3\n        /* \"#utility.yul\":2075:2084   */\n      dup7\n        /* \"#utility.yul\":2071:2093   */\n      add\n        /* \"#utility.yul\":2040:2103   */\n      tag_113\n      jump\t// in\n    tag_139:\n        /* \"#utility.yul\":2030:2103   */\n      swap3\n      pop\n        /* \"#utility.yul\":1826:2113   */\n      pop\n        /* \"#utility.yul\":2152:2154   */\n      0x20\n        /* \"#utility.yul\":2178:2231   */\n      tag_140\n        /* \"#utility.yul\":2223:2230   */\n      dup6\n        /* \"#utility.yul\":2214:2220   */\n      dup3\n        /* \"#utility.yul\":2203:2212   */\n      dup7\n        /* \"#utility.yul\":2199:2221   */\n      add\n        /* \"#utility.yul\":2178:2231   */\n      tag_119\n      jump\t// in\n    tag_140:\n        /* \"#utility.yul\":2168:2231   */\n      swap2\n      pop\n        /* \"#utility.yul\":2123:2241   */\n      pop\n        /* \"#utility.yul\":1594:2248   */\n      swap3\n      pop\n      swap3\n      swap1\n      pop\n      jump\t// out\n        /* \"#utility.yul\":2254:2583   */\n    tag_25:\n        /* \"#utility.yul\":2313:2319   */\n      0x00\n        /* \"#utility.yul\":2362:2364   */\n      0x20\n        /* \"#utility.yul\":2350:2359   */\n      dup3\n        /* \"#utility.yul\":2341:2348   */\n      dup5\n        /* \"#utility.yul\":2337:2360   */\n      sub\n        /* \"#utility.yul\":2333:2365   */\n      slt\n        /* \"#utility.yul\":2330:2449   */\n      iszero\n      tag_142\n      jumpi\n        /* \"#utility.yul\":2368:2447   */\n      tag_143\n      tag_129\n      jump\t// in\n    tag_143:\n        /* \"#utility.yul\":2330:2449   */\n    tag_142:\n        /* \"#utility.yul\":2488:2489   */\n      0x00\n        /* \"#utility.yul\":2513:2566   */\n      tag_144\n        /* \"#utility.yul\":2558:2565   */\n      dup5\n        /* \"#utility.yul\":2549:2555   */\n      dup3\n        /* \"#utility.yul\":2538:2547   */\n      dup6\n        /* \"#utility.yul\":2534:2556   */\n      add\n        /* \"#utility.yul\":2513:2566   */\n      tag_119\n      jump\t// in\n    tag_144:\n        /* \"#utility.yul\":2503:2566   */\n      swap2\n      pop\n        /* \"#utility.yul\":2459:2576   */\n      pop\n        /* \"#utility.yul\":2254:2583   */\n      swap3\n      swap2\n      pop\n      pop\n      jump\t// out\n        /* \"#utility.yul\":2589:2940   */\n    tag_90:\n        /* \"#utility.yul\":2659:2665   */\n      0x00\n        /* \"#utility.yul\":2708:2710   */\n      0x20\n        /* \"#utility.yul\":2696:2705   */\n      dup3\n        /* \"#utility.yul\":2687:2694   */\n      dup5\n        /* \"#utility.yul\":2683:2706   */\n      sub\n        /* \"#utility.yul\":2679:2711   */\n      slt\n        /* \"#utility.yul\":2676:2795   */\n      iszero\n      tag_146\n      jumpi\n        /* \"#utility.yul\":2714:2793   */\n      tag_147\n      tag_129\n      jump\t// in\n    tag_147:\n        /* \"#utility.yul\":2676:2795   */\n    tag_146:\n        /* \"#utility.yul\":2834:2835   */\n      0x00\n        /* \"#utility.yul\":2859:2923   */\n      tag_148\n        /* \"#utility.yul\":2915:2922   */\n      dup5\n        /* \"#utility.yul\":2906:2912   */\n      dup3\n        /* \"#utility.yul\":2895:2904   */\n      dup6\n        /* \"#utility.yul\":2891:2913   */\n      add\n        /* \"#utility.yul\":2859:2923   */\n      tag_123\n      jump\t// in\n    tag_148:\n        /* \"#utility.yul\":2849:2923   */\n      swap2\n      pop\n        /* \"#utility.yul\":2805:2933   */\n      pop\n        /* \"#utility.yul\":2589:2940   */\n      swap3\n      swap2\n      pop\n      pop\n      jump\t// out\n        /* \"#utility.yul\":2946:3420   */\n    tag_15:\n        /* \"#utility.yul\":3014:3020   */\n      0x00\n        /* \"#utility.yul\":3022:3028   */\n      dup1\n        /* \"#utility.yul\":3071:3073   */\n      0x40\n        /* \"#utility.yul\":3059:3068   */\n      dup4\n        /* \"#utility.yul\":3050:3057   */\n      dup6\n        /* \"#utility.yul\":3046:3069   */\n      sub\n        /* \"#utility.yul\":3042:3074   */\n      slt\n        /* \"#utility.yul\":3039:3158   */\n      iszero\n      tag_150\n      jumpi\n        /* \"#utility.yul\":3077:3156   */\n      tag_151\n      tag_129\n      jump\t// in\n    tag_151:\n        /* \"#utility.yul\":3039:3158   */\n    tag_150:\n        /* \"#utility.yul\":3197:3198   */\n      0x00\n        /* \"#utility.yul\":3222:3275   */\n      tag_152\n        /* \"#utility.yul\":3267:3274   */\n      dup6\n        /* \"#utility.yul\":3258:3264   */\n      dup3\n        /* \"#utility.yul\":3247:3256   */\n      dup7\n        /* \"#utility.yul\":3243:3265   */\n      add\n        /* \"#utility.yul\":3222:3275   */\n      tag_119\n      jump\t// in\n    tag_152:\n        /* \"#utility.yul\":3212:3275   */\n      swap3\n      pop\n        /* \"#utility.yul\":3168:3285   */\n      pop\n        /* \"#utility.yul\":3324:3326   */\n      0x20\n        /* \"#utility.yul\":3350:3403   */\n      tag_153\n        /* \"#utility.yul\":3395:3402   */\n      dup6\n        /* \"#utility.yul\":3386:3392   */\n      dup3\n        /* \"#utility.yul\":3375:3384   */\n      dup7\n        /* \"#utility.yul\":3371:3393   */\n      add\n        /* \"#utility.yul\":3350:3403   */\n      tag_119\n      jump\t// in\n    tag_153:\n        /* \"#utility.yul\":3340:3403   */\n      swap2\n      pop\n        /* \"#utility.yul\":3295:3413   */\n      pop\n        /* \"#utility.yul\":2946:3420   */\n      swap3\n      pop\n      swap3\n      swap1\n      pop\n      jump\t// out\n        /* \"#utility.yul\":3426:3597   */\n    tag_154:\n        /* \"#utility.yul\":3533:3590   */\n      tag_156\n        /* \"#utility.yul\":3584:3589   */\n      dup2\n        /* \"#utility.yul\":3533:3590   */\n      tag_157\n      jump\t// in\n    tag_156:\n        /* \"#utility.yul\":3528:3531   */\n      dup3\n        /* \"#utility.yul\":3521:3591   */\n      mstore\n        /* \"#utility.yul\":3426:3597   */\n      pop\n      pop\n      jump\t// out\n        /* \"#utility.yul\":3603:3967   */\n    tag_158:\n        /* \"#utility.yul\":3691:3694   */\n      0x00\n        /* \"#utility.yul\":3719:3758   */\n      tag_160\n        /* \"#utility.yul\":3752:3757   */\n      dup3\n        /* \"#utility.yul\":3719:3758   */\n      tag_161\n      jump\t// in\n    tag_160:\n        /* \"#utility.yul\":3774:3845   */\n      tag_162\n        /* \"#utility.yul\":3838:3844   */\n      dup2\n        /* \"#utility.yul\":3833:3836   */\n      dup6\n        /* \"#utility.yul\":3774:3845   */\n      tag_163\n      jump\t// in\n    tag_162:\n        /* \"#utility.yul\":3767:3845   */\n      swap4\n      pop\n        /* \"#utility.yul\":3854:3906   */\n      tag_164\n        /* \"#utility.yul\":3899:3905   */\n      dup2\n        /* \"#utility.yul\":3894:3897   */\n      dup6\n        /* \"#utility.yul\":3887:3891   */\n      0x20\n        /* \"#utility.yul\":3880:3885   */\n      dup7\n        /* \"#utility.yul\":3876:3892   */\n      add\n        /* \"#utility.yul\":3854:3906   */\n      tag_165\n      jump\t// in\n    tag_164:\n        /* \"#utility.yul\":3931:3960   */\n      tag_166\n        /* \"#utility.yul\":3953:3959   */\n      dup2\n        /* \"#utility.yul\":3931:3960   */\n      tag_167\n      jump\t// in\n    tag_166:\n        /* \"#utility.yul\":3926:3929   */\n      dup5\n        /* \"#utility.yul\":3922:3961   */\n      add\n        /* \"#utility.yul\":3915:3961   */\n      swap2\n      pop\n        /* \"#utility.yul\":3695:3967   */\n      pop\n        /* \"#utility.yul\":3603:3967   */\n      swap3\n      swap2\n      pop\n      pop\n      jump\t// out\n        /* \"#utility.yul\":3973:4350   */\n    tag_168:\n        /* \"#utility.yul\":4079:4082   */\n      0x00\n        /* \"#utility.yul\":4107:4146   */\n      tag_170\n        /* \"#utility.yul\":4140:4145   */\n      dup3\n        /* \"#utility.yul\":4107:4146   */\n      tag_161\n      jump\t// in\n    tag_170:\n        /* \"#utility.yul\":4162:4251   */\n      tag_171\n        /* \"#utility.yul\":4244:4250   */\n      dup2\n        /* \"#utility.yul\":4239:4242   */\n      dup6\n        /* \"#utility.yul\":4162:4251   */\n      tag_172\n      jump\t// in\n    tag_171:\n        /* \"#utility.yul\":4155:4251   */\n      swap4\n      pop\n        /* \"#utility.yul\":4260:4312   */\n      tag_173\n        /* \"#utility.yul\":4305:4311   */\n      dup2\n        /* \"#utility.yul\":4300:4303   */\n      dup6\n        /* \"#utility.yul\":4293:4297   */\n      0x20\n        /* \"#utility.yul\":4286:4291   */\n      dup7\n        /* \"#utility.yul\":4282:4298   */\n      add\n        /* \"#utility.yul\":4260:4312   */\n      tag_165\n      jump\t// in\n    tag_173:\n        /* \"#utility.yul\":4337:4343   */\n      dup1\n        /* \"#utility.yul\":4332:4335   */\n      dup5\n        /* \"#utility.yul\":4328:4344   */\n      add\n        /* \"#utility.yul\":4321:4344   */\n      swap2\n      pop\n        /* \"#utility.yul\":4083:4350   */\n      pop\n        /* \"#utility.yul\":3973:4350   */\n      swap3\n      swap2\n      pop\n      pop\n      jump\t// out\n        /* \"#utility.yul\":4356:4474   */\n    tag_174:\n        /* \"#utility.yul\":4443:4467   */\n      tag_176\n        /* \"#utility.yul\":4461:4466   */\n      dup2\n        /* \"#utility.yul\":4443:4467   */\n      tag_177\n      jump\t// in\n    tag_176:\n        /* \"#utility.yul\":4438:4441   */\n      dup3\n        /* \"#utility.yul\":4431:4468   */\n      mstore\n        /* \"#utility.yul\":4356:4474   */\n      pop\n      pop\n      jump\t// out\n        /* \"#utility.yul\":4480:4755   */\n    tag_73:\n        /* \"#utility.yul\":4612:4615   */\n      0x00\n        /* \"#utility.yul\":4634:4729   */\n      tag_179\n        /* \"#utility.yul\":4725:4728   */\n      dup3\n        /* \"#utility.yul\":4716:4722   */\n      dup5\n        /* \"#utility.yul\":4634:4729   */\n      tag_168\n      jump\t// in\n    tag_179:\n        /* \"#utility.yul\":4627:4729   */\n      swap2\n      pop\n        /* \"#utility.yul\":4746:4749   */\n      dup2\n        /* \"#utility.yul\":4739:4749   */\n      swap1\n      pop\n        /* \"#utility.yul\":4480:4755   */\n      swap3\n      swap2\n      pop\n      pop\n      jump\t// out\n        /* \"#utility.yul\":4761:5023   */\n    tag_31:\n        /* \"#utility.yul\":4874:4878   */\n      0x00\n        /* \"#utility.yul\":4912:4914   */\n      0x20\n        /* \"#utility.yul\":4901:4910   */\n      dup3\n        /* \"#utility.yul\":4897:4915   */\n      add\n        /* \"#utility.yul\":4889:4915   */\n      swap1\n      pop\n        /* \"#utility.yul\":4925:5016   */\n      tag_181\n        /* \"#utility.yul\":5013:5014   */\n      0x00\n        /* \"#utility.yul\":5002:5011   */\n      dup4\n        /* \"#utility.yul\":4998:5015   */\n      add\n        /* \"#utility.yul\":4989:4995   */\n      dup5\n        /* \"#utility.yul\":4925:5016   */\n      tag_154\n      jump\t// in\n    tag_181:\n        /* \"#utility.yul\":4761:5023   */\n      swap3\n      swap2\n      pop\n      pop\n      jump\t// out\n        /* \"#utility.yul\":5029:5251   */\n    tag_22:\n        /* \"#utility.yul\":5122:5126   */\n      0x00\n        /* \"#utility.yul\":5160:5162   */\n      0x20\n        /* \"#utility.yul\":5149:5158   */\n      dup3\n        /* \"#utility.yul\":5145:5163   */\n      add\n        /* \"#utility.yul\":5137:5163   */\n      swap1\n      pop\n        /* \"#utility.yul\":5173:5244   */\n      tag_183\n        /* \"#utility.yul\":5241:5242   */\n      0x00\n        /* \"#utility.yul\":5230:5239   */\n      dup4\n        /* \"#utility.yul\":5226:5243   */\n      add\n        /* \"#utility.yul\":5217:5223   */\n      dup5\n        /* \"#utility.yul\":5173:5244   */\n      tag_174\n      jump\t// in\n    tag_183:\n        /* \"#utility.yul\":5029:5251   */\n      swap3\n      swap2\n      pop\n      pop\n      jump\t// out\n        /* \"#utility.yul\":5257:5680   */\n    tag_45:\n        /* \"#utility.yul\":5398:5402   */\n      0x00\n        /* \"#utility.yul\":5436:5438   */\n      0x40\n        /* \"#utility.yul\":5425:5434   */\n      dup3\n        /* \"#utility.yul\":5421:5439   */\n      add\n        /* \"#utility.yul\":5413:5439   */\n      swap1\n      pop\n        /* \"#utility.yul\":5449:5520   */\n      tag_185\n        /* \"#utility.yul\":5517:5518   */\n      0x00\n        /* \"#utility.yul\":5506:5515   */\n      dup4\n        /* \"#utility.yul\":5502:5519   */\n      add\n        /* \"#utility.yul\":5493:5499   */\n      dup6\n        /* \"#utility.yul\":5449:5520   */\n      tag_174\n      jump\t// in\n    tag_185:\n        /* \"#utility.yul\":5567:5576   */\n      dup2\n        /* \"#utility.yul\":5561:5565   */\n      dup2\n        /* \"#utility.yul\":5557:5577   */\n      sub\n        /* \"#utility.yul\":5552:5554   */\n      0x20\n        /* \"#utility.yul\":5541:5550   */\n      dup4\n        /* \"#utility.yul\":5537:5555   */\n      add\n        /* \"#utility.yul\":5530:5578   */\n      mstore\n        /* \"#utility.yul\":5595:5673   */\n      tag_186\n        /* \"#utility.yul\":5668:5672   */\n      dup2\n        /* \"#utility.yul\":5659:5665   */\n      dup5\n        /* \"#utility.yul\":5595:5673   */\n      tag_158\n      jump\t// in\n    tag_186:\n        /* \"#utility.yul\":5587:5673   */\n      swap1\n      pop\n        /* \"#utility.yul\":5257:5680   */\n      swap4\n      swap3\n      pop\n      pop\n      pop\n      jump\t// out\n        /* \"#utility.yul\":5686:5815   */\n    tag_107:\n        /* \"#utility.yul\":5720:5726   */\n      0x00\n        /* \"#utility.yul\":5747:5767   */\n      tag_188\n      tag_189\n      jump\t// in\n    tag_188:\n        /* \"#utility.yul\":5737:5767   */\n      swap1\n      pop\n        /* \"#utility.yul\":5776:5809   */\n      tag_190\n        /* \"#utility.yul\":5804:5808   */\n      dup3\n        /* \"#utility.yul\":5796:5802   */\n      dup3\n        /* \"#utility.yul\":5776:5809   */\n      tag_191\n      jump\t// in\n    tag_190:\n        /* \"#utility.yul\":5686:5815   */\n      swap2\n      swap1\n      pop\n      jump\t// out\n        /* \"#utility.yul\":5821:5896   */\n    tag_189:\n        /* \"#utility.yul\":5854:5860   */\n      0x00\n        /* \"#utility.yul\":5887:5889   */\n      0x40\n        /* \"#utility.yul\":5881:5890   */\n      mload\n        /* \"#utility.yul\":5871:5890   */\n      swap1\n      pop\n        /* \"#utility.yul\":5821:5896   */\n      swap1\n      jump\t// out\n        /* \"#utility.yul\":5902:6210   */\n    tag_106:\n        /* \"#utility.yul\":5964:5968   */\n      0x00\n        /* \"#utility.yul\":6054:6072   */\n      0xffffffffffffffff\n        /* \"#utility.yul\":6046:6052   */\n      dup3\n        /* \"#utility.yul\":6043:6073   */\n      gt\n        /* \"#utility.yul\":6040:6096   */\n      iszero\n      tag_194\n      jumpi\n        /* \"#utility.yul\":6076:6094   */\n      tag_195\n      tag_196\n      jump\t// in\n    tag_195:\n        /* \"#utility.yul\":6040:6096   */\n    tag_194:\n        /* \"#utility.yul\":6114:6143   */\n      tag_197\n        /* \"#utility.yul\":6136:6142   */\n      dup3\n        /* \"#utility.yul\":6114:6143   */\n      tag_167\n      jump\t// in\n    tag_197:\n        /* \"#utility.yul\":6106:6143   */\n      swap1\n      pop\n        /* \"#utility.yul\":6198:6202   */\n      0x20\n        /* \"#utility.yul\":6192:6196   */\n      dup2\n        /* \"#utility.yul\":6188:6203   */\n      add\n        /* \"#utility.yul\":6180:6203   */\n      swap1\n      pop\n        /* \"#utility.yul\":5902:6210   */\n      swap2\n      swap1\n      pop\n      jump\t// out\n        /* \"#utility.yul\":6216:6315   */\n    tag_161:\n        /* \"#utility.yul\":6268:6274   */\n      0x00\n        /* \"#utility.yul\":6302:6307   */\n      dup2\n        /* \"#utility.yul\":6296:6308   */\n      mload\n        /* \"#utility.yul\":6286:6308   */\n      swap1\n      pop\n        /* \"#utility.yul\":6216:6315   */\n      swap2\n      swap1\n      pop\n      jump\t// out\n        /* \"#utility.yul\":6321:6490   */\n    tag_163:\n        /* \"#utility.yul\":6405:6416   */\n      0x00\n        /* \"#utility.yul\":6439:6445   */\n      dup3\n        /* \"#utility.yul\":6434:6437   */\n      dup3\n        /* \"#utility.yul\":6427:6446   */\n      mstore\n        /* \"#utility.yul\":6479:6483   */\n      0x20\n        /* \"#utility.yul\":6474:6477   */\n      dup3\n        /* \"#utility.yul\":6470:6484   */\n      add\n        /* \"#utility.yul\":6455:6484   */\n      swap1\n      pop\n        /* \"#utility.yul\":6321:6490   */\n      swap3\n      swap2\n      pop\n      pop\n      jump\t// out\n        /* \"#utility.yul\":6496:6644   */\n    tag_172:\n        /* \"#utility.yul\":6598:6609   */\n      0x00\n        /* \"#utility.yul\":6635:6638   */\n      dup2\n        /* \"#utility.yul\":6620:6638   */\n      swap1\n      pop\n        /* \"#utility.yul\":6496:6644   */\n      swap3\n      swap2\n      pop\n      pop\n      jump\t// out\n        /* \"#utility.yul\":6650:6776   */\n    tag_201:\n        /* \"#utility.yul\":6687:6694   */\n      0x00\n        /* \"#utility.yul\":6727:6769   */\n      0xffffffffffffffffffffffffffffffffffffffff\n        /* \"#utility.yul\":6720:6725   */\n      dup3\n        /* \"#utility.yul\":6716:6770   */\n      and\n        /* \"#utility.yul\":6705:6770   */\n      swap1\n      pop\n        /* \"#utility.yul\":6650:6776   */\n      swap2\n      swap1\n      pop\n      jump\t// out\n        /* \"#utility.yul\":6782:6859   */\n    tag_177:\n        /* \"#utility.yul\":6819:6826   */\n      0x00\n        /* \"#utility.yul\":6848:6853   */\n      dup2\n        /* \"#utility.yul\":6837:6853   */\n      swap1\n      pop\n        /* \"#utility.yul\":6782:6859   */\n      swap2\n      swap1\n      pop\n      jump\t// out\n        /* \"#utility.yul\":6865:7011   */\n    tag_157:\n        /* \"#utility.yul\":6935:6944   */\n      0x00\n        /* \"#utility.yul\":6968:7005   */\n      tag_205\n        /* \"#utility.yul\":6999:7004   */\n      dup3\n        /* \"#utility.yul\":6968:7005   */\n      tag_206\n      jump\t// in\n    tag_205:\n        /* \"#utility.yul\":6955:7005   */\n      swap1\n      pop\n        /* \"#utility.yul\":6865:7011   */\n      swap2\n      swap1\n      pop\n      jump\t// out\n        /* \"#utility.yul\":7017:7143   */\n    tag_206:\n        /* \"#utility.yul\":7067:7076   */\n      0x00\n        /* \"#utility.yul\":7100:7137   */\n      tag_208\n        /* \"#utility.yul\":7131:7136   */\n      dup3\n        /* \"#utility.yul\":7100:7137   */\n      tag_209\n      jump\t// in\n    tag_208:\n        /* \"#utility.yul\":7087:7137   */\n      swap1\n      pop\n        /* \"#utility.yul\":7017:7143   */\n      swap2\n      swap1\n      pop\n      jump\t// out\n        /* \"#utility.yul\":7149:7262   */\n    tag_209:\n        /* \"#utility.yul\":7199:7208   */\n      0x00\n        /* \"#utility.yul\":7232:7256   */\n      tag_211\n        /* \"#utility.yul\":7250:7255   */\n      dup3\n        /* \"#utility.yul\":7232:7256   */\n      tag_201\n      jump\t// in\n    tag_211:\n        /* \"#utility.yul\":7219:7256   */\n      swap1\n      pop\n        /* \"#utility.yul\":7149:7262   */\n      swap2\n      swap1\n      pop\n      jump\t// out\n        /* \"#utility.yul\":7268:7422   */\n    tag_112:\n        /* \"#utility.yul\":7352:7358   */\n      dup3\n        /* \"#utility.yul\":7347:7350   */\n      dup2\n        /* \"#utility.yul\":7342:7345   */\n      dup4\n        /* \"#utility.yul\":7329:7359   */\n      calldatacopy\n        /* \"#utility.yul\":7414:7415   */\n      0x00\n        /* \"#utility.yul\":7405:7411   */\n      dup4\n        /* \"#utility.yul\":7400:7403   */\n      dup4\n        /* \"#utility.yul\":7396:7412   */\n      add\n        /* \"#utility.yul\":7389:7416   */\n      mstore\n        /* \"#utility.yul\":7268:7422   */\n      pop\n      pop\n      pop\n      jump\t// out\n        /* \"#utility.yul\":7428:7735   */\n    tag_165:\n        /* \"#utility.yul\":7496:7497   */\n      0x00\n        /* \"#utility.yul\":7506:7619   */\n    tag_214:\n        /* \"#utility.yul\":7520:7526   */\n      dup4\n        /* \"#utility.yul\":7517:7518   */\n      dup2\n        /* \"#utility.yul\":7514:7527   */\n      lt\n        /* \"#utility.yul\":7506:7619   */\n      iszero\n      tag_216\n      jumpi\n        /* \"#utility.yul\":7605:7606   */\n      dup1\n        /* \"#utility.yul\":7600:7603   */\n      dup3\n        /* \"#utility.yul\":7596:7607   */\n      add\n        /* \"#utility.yul\":7590:7608   */\n      mload\n        /* \"#utility.yul\":7586:7587   */\n      dup2\n        /* \"#utility.yul\":7581:7584   */\n      dup5\n        /* \"#utility.yul\":7577:7588   */\n      add\n        /* \"#utility.yul\":7570:7609   */\n      mstore\n        /* \"#utility.yul\":7542:7544   */\n      0x20\n        /* \"#utility.yul\":7539:7540   */\n      dup2\n        /* \"#utility.yul\":7535:7545   */\n      add\n        /* \"#utility.yul\":7530:7545   */\n      swap1\n      pop\n        /* \"#utility.yul\":7506:7619   */\n      jump(tag_214)\n    tag_216:\n        /* \"#utility.yul\":7637:7643   */\n      dup4\n        /* \"#utility.yul\":7634:7635   */\n      dup2\n        /* \"#utility.yul\":7631:7644   */\n      gt\n        /* \"#utility.yul\":7628:7729   */\n      iszero\n      tag_217\n      jumpi\n        /* \"#utility.yul\":7717:7718   */\n      0x00\n        /* \"#utility.yul\":7708:7714   */\n      dup5\n        /* \"#utility.yul\":7703:7706   */\n      dup5\n        /* \"#utility.yul\":7699:7715   */\n      add\n        /* \"#utility.yul\":7692:7719   */\n      mstore\n        /* \"#utility.yul\":7628:7729   */\n    tag_217:\n        /* \"#utility.yul\":7477:7735   */\n      pop\n        /* \"#utility.yul\":7428:7735   */\n      pop\n      pop\n      pop\n      jump\t// out\n        /* \"#utility.yul\":7741:8061   */\n    tag_77:\n        /* \"#utility.yul\":7785:7791   */\n      0x00\n        /* \"#utility.yul\":7822:7823   */\n      0x02\n        /* \"#utility.yul\":7816:7820   */\n      dup3\n        /* \"#utility.yul\":7812:7824   */\n      div\n        /* \"#utility.yul\":7802:7824   */\n      swap1\n      pop\n        /* \"#utility.yul\":7869:7870   */\n      0x01\n        /* \"#utility.yul\":7863:7867   */\n      dup3\n        /* \"#utility.yul\":7859:7871   */\n      and\n        /* \"#utility.yul\":7890:7908   */\n      dup1\n        /* \"#utility.yul\":7880:7961   */\n      tag_219\n      jumpi\n        /* \"#utility.yul\":7946:7950   */\n      0x7f\n        /* \"#utility.yul\":7938:7944   */\n      dup3\n        /* \"#utility.yul\":7934:7951   */\n      and\n        /* \"#utility.yul\":7924:7951   */\n      swap2\n      pop\n        /* \"#utility.yul\":7880:7961   */\n    tag_219:\n        /* \"#utility.yul\":8008:8010   */\n      0x20\n        /* \"#utility.yul\":8000:8006   */\n      dup3\n        /* \"#utility.yul\":7997:8011   */\n      lt\n        /* \"#utility.yul\":7977:7995   */\n      dup2\n        /* \"#utility.yul\":7974:8012   */\n      eq\n        /* \"#utility.yul\":7971:8055   */\n      iszero\n      tag_220\n      jumpi\n        /* \"#utility.yul\":8027:8045   */\n      tag_221\n      tag_222\n      jump\t// in\n    tag_221:\n        /* \"#utility.yul\":7971:8055   */\n    tag_220:\n        /* \"#utility.yul\":7792:8061   */\n      pop\n        /* \"#utility.yul\":7741:8061   */\n      swap2\n      swap1\n      pop\n      jump\t// out\n        /* \"#utility.yul\":8067:8348   */\n    tag_191:\n        /* \"#utility.yul\":8150:8177   */\n      tag_224\n        /* \"#utility.yul\":8172:8176   */\n      dup3\n        /* \"#utility.yul\":8150:8177   */\n      tag_167\n      jump\t// in\n    tag_224:\n        /* \"#utility.yul\":8142:8148   */\n      dup2\n        /* \"#utility.yul\":8138:8178   */\n      add\n        /* \"#utility.yul\":8280:8286   */\n      dup2\n        /* \"#utility.yul\":8268:8278   */\n      dup2\n        /* \"#utility.yul\":8265:8287   */\n      lt\n        /* \"#utility.yul\":8244:8262   */\n      0xffffffffffffffff\n        /* \"#utility.yul\":8232:8242   */\n      dup3\n        /* \"#utility.yul\":8229:8263   */\n      gt\n        /* \"#utility.yul\":8226:8288   */\n      or\n        /* \"#utility.yul\":8223:8311   */\n      iszero\n      tag_225\n      jumpi\n        /* \"#utility.yul\":8291:8309   */\n      tag_226\n      tag_196\n      jump\t// in\n    tag_226:\n        /* \"#utility.yul\":8223:8311   */\n    tag_225:\n        /* \"#utility.yul\":8331:8341   */\n      dup1\n        /* \"#utility.yul\":8327:8329   */\n      0x40\n        /* \"#utility.yul\":8320:8342   */\n      mstore\n        /* \"#utility.yul\":8110:8348   */\n      pop\n        /* \"#utility.yul\":8067:8348   */\n      pop\n      pop\n      jump\t// out\n        /* \"#utility.yul\":8354:8534   */\n    tag_222:\n        /* \"#utility.yul\":8402:8479   */\n      0x4e487b7100000000000000000000000000000000000000000000000000000000\n        /* \"#utility.yul\":8399:8400   */\n      0x00\n        /* \"#utility.yul\":8392:8480   */\n      mstore\n        /* \"#utility.yul\":8499:8503   */\n      0x22\n        /* \"#utility.yul\":8496:8497   */\n      0x04\n        /* \"#utility.yul\":8489:8504   */\n      mstore\n        /* \"#utility.yul\":8523:8527   */\n      0x24\n        /* \"#utility.yul\":8520:8521   */\n      0x00\n        /* \"#utility.yul\":8513:8528   */\n      revert\n        /* \"#utility.yul\":8540:8720   */\n    tag_53:\n        /* \"#utility.yul\":8588:8665   */\n      0x4e487b7100000000000000000000000000000000000000000000000000000000\n        /* \"#utility.yul\":8585:8586   */\n      0x00\n        /* \"#utility.yul\":8578:8666   */\n      mstore\n        /* \"#utility.yul\":8685:8689   */\n      0x32\n        /* \"#utility.yul\":8682:8683   */\n      0x04\n        /* \"#utility.yul\":8675:8690   */\n      mstore\n        /* \"#utility.yul\":8709:8713   */\n      0x24\n        /* \"#utility.yul\":8706:8707   */\n      0x00\n        /* \"#utility.yul\":8699:8714   */\n      revert\n        /* \"#utility.yul\":8726:8906   */\n    tag_196:\n        /* \"#utility.yul\":8774:8851   */\n      0x4e487b7100000000000000000000000000000000000000000000000000000000\n        /* \"#utility.yul\":8771:8772   */\n      0x00\n        /* \"#utility.yul\":8764:8852   */\n      mstore\n        /* \"#utility.yul\":8871:8875   */\n      0x41\n        /* \"#utility.yul\":8868:8869   */\n      0x04\n        /* \"#utility.yul\":8861:8876   */\n      mstore\n        /* \"#utility.yul\":8895:8899   */\n      0x24\n        /* \"#utility.yul\":8892:8893   */\n      0x00\n        /* \"#utility.yul\":8885:8900   */\n      revert\n        /* \"#utility.yul\":8912:9029   */\n    tag_117:\n        /* \"#utility.yul\":9021:9022   */\n      0x00\n        /* \"#utility.yul\":9018:9019   */\n      dup1\n        /* \"#utility.yul\":9011:9023   */\n      revert\n        /* \"#utility.yul\":9035:9152   */\n    tag_110:\n        /* \"#utility.yul\":9144:9145   */\n      0x00\n        /* \"#utility.yul\":9141:9142   */\n      dup1\n        /* \"#utility.yul\":9134:9146   */\n      revert\n        /* \"#utility.yul\":9158:9275   */\n    tag_132:\n        /* \"#utility.yul\":9267:9268   */\n      0x00\n        /* \"#utility.yul\":9264:9265   */\n      dup1\n        /* \"#utility.yul\":9257:9269   */\n      revert\n        /* \"#utility.yul\":9281:9398   */\n    tag_129:\n        /* \"#utility.yul\":9390:9391   */\n      0x00\n        /* \"#utility.yul\":9387:9388   */\n      dup1\n        /* \"#utility.yul\":9380:9392   */\n      revert\n        /* \"#utility.yul\":9404:9506   */\n    tag_167:\n        /* \"#utility.yul\":9445:9451   */\n      0x00\n        /* \"#utility.yul\":9496:9498   */\n      0x1f\n        /* \"#utility.yul\":9492:9499   */\n      not\n        /* \"#utility.yul\":9487:9489   */\n      0x1f\n        /* \"#utility.yul\":9480:9485   */\n      dup4\n        /* \"#utility.yul\":9476:9490   */\n      add\n        /* \"#utility.yul\":9472:9500   */\n      and\n        /* \"#utility.yul\":9462:9500   */\n      swap1\n      pop\n        /* \"#utility.yul\":9404:9506   */\n      swap2\n      swap1\n      pop\n      jump\t// out\n        /* \"#utility.yul\":9512:9634   */\n    tag_122:\n        /* \"#utility.yul\":9585:9609   */\n      tag_236\n        /* \"#utility.yul\":9603:9608   */\n      dup2\n        /* \"#utility.yul\":9585:9609   */\n      tag_177\n      jump\t// in\n    tag_236:\n        /* \"#utility.yul\":9578:9583   */\n      dup2\n        /* \"#utility.yul\":9575:9610   */\n      eq\n        /* \"#utility.yul\":9565:9628   */\n      tag_237\n      jumpi\n        /* \"#utility.yul\":9624:9625   */\n      0x00\n        /* \"#utility.yul\":9621:9622   */\n      dup1\n        /* \"#utility.yul\":9614:9626   */\n      revert\n        /* \"#utility.yul\":9565:9628   */\n    tag_237:\n        /* \"#utility.yul\":9512:9634   */\n      pop\n      jump\t// out\n    stop\n\n    sub_0: assembly {\n            /* \"contracts/SimpleStorage.sol\":74:795  contract SimpleStorage {\r... */\n          mstore(0x40, 0x80)\n          callvalue\n          dup1\n          iszero\n          tag_1\n          jumpi\n          0x00\n          dup1\n          revert\n        tag_1:\n          pop\n          dataSize(sub_0)\n          dup1\n          dataOffset(sub_0)\n          0x00\n          codecopy\n          0x00\n          return\n        stop\n\n        sub_0: assembly {\n                /* \"contracts/SimpleStorage.sol\":74:795  contract SimpleStorage {\r... */\n              mstore(0x40, 0x80)\n              callvalue\n              dup1\n              iszero\n              tag_1\n              jumpi\n              0x00\n              dup1\n              revert\n            tag_1:\n              pop\n              jumpi(tag_2, lt(calldatasize, 0x04))\n              shr(0xe0, calldataload(0x00))\n              dup1\n              0x2e64cec1\n              eq\n              tag_3\n              jumpi\n              dup1\n              0x6057361d\n              eq\n              tag_4\n              jumpi\n              dup1\n              0x6f760f41\n              eq\n              tag_5\n              jumpi\n              dup1\n              0x8bab8dd5\n              eq\n              tag_6\n              jumpi\n              dup1\n              0x9e7a13ad\n              eq\n              tag_7\n              jumpi\n            tag_2:\n              0x00\n              dup1\n              revert\n                /* \"contracts/SimpleStorage.sol\":503:592  function retrieve() public view returns(uint256) {\r... */\n            tag_3:\n              tag_8\n              tag_9\n              jump\t// in\n            tag_8:\n              mload(0x40)\n              tag_10\n              swap2\n              swap1\n              tag_11\n              jump\t// in\n            tag_10:\n              mload(0x40)\n              dup1\n              swap2\n              sub\n              swap1\n              return\n                /* \"contracts/SimpleStorage.sol\":378:476  function store(uint256 _favoriteNumber) public {\r... */\n            tag_4:\n              tag_12\n              0x04\n              dup1\n              calldatasize\n              sub\n              dup2\n              add\n              swap1\n              tag_13\n              swap2\n              swap1\n              tag_14\n              jump\t// in\n            tag_13:\n              tag_15\n              jump\t// in\n            tag_12:\n              stop\n                /* \"contracts/SimpleStorage.sol\":600:790  function addPerson(string memory _name, uint256 _favoriteNumber) public {\r... */\n            tag_5:\n              tag_16\n              0x04\n              dup1\n              calldatasize\n              sub\n              dup2\n              add\n              swap1\n              tag_17\n              swap2\n              swap1\n              tag_18\n              jump\t// in\n            tag_17:\n              tag_19\n              jump\t// in\n            tag_16:\n              stop\n                /* \"contracts/SimpleStorage.sol\":315:369  mapping(string => uint256) public nameToFavoriteNumber */\n            tag_6:\n              tag_20\n              0x04\n              dup1\n              calldatasize\n              sub\n              dup2\n              add\n              swap1\n              tag_21\n              swap2\n              swap1\n              tag_22\n              jump\t// in\n            tag_21:\n              tag_23\n              jump\t// in\n            tag_20:\n              mload(0x40)\n              tag_24\n              swap2\n              swap1\n              tag_11\n              jump\t// in\n            tag_24:\n              mload(0x40)\n              dup1\n              swap2\n              sub\n              swap1\n              return\n                /* \"contracts/SimpleStorage.sol\":286:308  People[] public people */\n            tag_7:\n              tag_25\n              0x04\n              dup1\n              calldatasize\n              sub\n              dup2\n              add\n              swap1\n              tag_26\n              swap2\n              swap1\n              tag_14\n              jump\t// in\n            tag_26:\n              tag_27\n              jump\t// in\n            tag_25:\n              mload(0x40)\n              tag_28\n              swap3\n              swap2\n              swap1\n              tag_29\n              jump\t// in\n            tag_28:\n              mload(0x40)\n              dup1\n              swap2\n              sub\n              swap1\n              return\n                /* \"contracts/SimpleStorage.sol\":503:592  function retrieve() public view returns(uint256) {\r... */\n            tag_9:\n                /* \"contracts/SimpleStorage.sol\":543:550  uint256 */\n              0x00\n                /* \"contracts/SimpleStorage.sol\":570:584  favoriteNumber */\n              dup1\n              sload\n                /* \"contracts/SimpleStorage.sol\":563:584  return favoriteNumber */\n              swap1\n              pop\n                /* \"contracts/SimpleStorage.sol\":503:592  function retrieve() public view returns(uint256) {\r... */\n              swap1\n              jump\t// out\n                /* \"contracts/SimpleStorage.sol\":378:476  function store(uint256 _favoriteNumber) public {\r... */\n            tag_15:\n                /* \"contracts/SimpleStorage.sol\":453:468  _favoriteNumber */\n              dup1\n                /* \"contracts/SimpleStorage.sol\":436:450  favoriteNumber */\n              0x00\n                /* \"contracts/SimpleStorage.sol\":436:468  favoriteNumber = _favoriteNumber */\n              dup2\n              swap1\n              sstore\n              pop\n                /* \"contracts/SimpleStorage.sol\":378:476  function store(uint256 _favoriteNumber) public {\r... */\n              pop\n              jump\t// out\n                /* \"contracts/SimpleStorage.sol\":600:790  function addPerson(string memory _name, uint256 _favoriteNumber) public {\r... */\n            tag_19:\n                /* \"contracts/SimpleStorage.sol\":683:689  people */\n              0x02\n                /* \"contracts/SimpleStorage.sol\":695:725  People(_favoriteNumber, _name) */\n              mload(0x40)\n              dup1\n              0x40\n              add\n              0x40\n              mstore\n              dup1\n                /* \"contracts/SimpleStorage.sol\":702:717  _favoriteNumber */\n              dup4\n                /* \"contracts/SimpleStorage.sol\":695:725  People(_favoriteNumber, _name) */\n              dup2\n              mstore\n              0x20\n              add\n                /* \"contracts/SimpleStorage.sol\":719:724  _name */\n              dup5\n                /* \"contracts/SimpleStorage.sol\":695:725  People(_favoriteNumber, _name) */\n              dup2\n              mstore\n              pop\n                /* \"contracts/SimpleStorage.sol\":683:726  people.push(People(_favoriteNumber, _name)) */\n              swap1\n              dup1\n              0x01\n              dup2\n              sload\n              add\n              dup1\n              dup3\n              sstore\n              dup1\n              swap2\n              pop\n              pop\n              0x01\n              swap1\n              sub\n              swap1\n              0x00\n              mstore\n              keccak256(0x00, 0x20)\n              swap1\n              0x02\n              mul\n              add\n              0x00\n              swap1\n              swap2\n              swap1\n              swap2\n              swap1\n              swap2\n              pop\n              0x00\n              dup3\n              add\n              mload\n              dup2\n              0x00\n              add\n              sstore\n              0x20\n              dup3\n              add\n              mload\n              dup2\n              0x01\n              add\n              swap1\n              dup1\n              mload\n              swap1\n              0x20\n              add\n              swap1\n              tag_34\n              swap3\n              swap2\n              swap1\n              tag_35\n              jump\t// in\n            tag_34:\n              pop\n              pop\n              pop\n                /* \"contracts/SimpleStorage.sol\":767:782  _favoriteNumber */\n              dup1\n                /* \"contracts/SimpleStorage.sol\":737:757  nameToFavoriteNumber */\n              0x03\n                /* \"contracts/SimpleStorage.sol\":758:763  _name */\n              dup4\n                /* \"contracts/SimpleStorage.sol\":737:764  nameToFavoriteNumber[_name] */\n              mload(0x40)\n              tag_36\n              swap2\n              swap1\n              tag_37\n              jump\t// in\n            tag_36:\n              swap1\n              dup2\n              mstore\n              0x20\n              add\n              mload(0x40)\n              dup1\n              swap2\n              sub\n              swap1\n              keccak256\n                /* \"contracts/SimpleStorage.sol\":737:782  nameToFavoriteNumber[_name] = _favoriteNumber */\n              dup2\n              swap1\n              sstore\n              pop\n                /* \"contracts/SimpleStorage.sol\":600:790  function addPerson(string memory _name, uint256 _favoriteNumber) public {\r... */\n              pop\n              pop\n              jump\t// out\n                /* \"contracts/SimpleStorage.sol\":315:369  mapping(string => uint256) public nameToFavoriteNumber */\n            tag_23:\n              0x03\n              dup2\n              dup1\n              mload\n              0x20\n              dup2\n              add\n              dup3\n              add\n              dup1\n              mload\n              dup5\n              dup3\n              mstore\n              0x20\n              dup4\n              add\n              0x20\n              dup6\n              add\n              keccak256\n              dup2\n              dup4\n              mstore\n              dup1\n              swap6\n              pop\n              pop\n              pop\n              pop\n              pop\n              pop\n              0x00\n              swap2\n              pop\n              swap1\n              pop\n              sload\n              dup2\n              jump\t// out\n                /* \"contracts/SimpleStorage.sol\":286:308  People[] public people */\n            tag_27:\n              0x02\n              dup2\n              dup2\n              sload\n              dup2\n              lt\n              tag_38\n              jumpi\n              0x00\n              dup1\n              revert\n            tag_38:\n              swap1\n              0x00\n              mstore\n              keccak256(0x00, 0x20)\n              swap1\n              0x02\n              mul\n              add\n              0x00\n              swap2\n              pop\n              swap1\n              pop\n              dup1\n              0x00\n              add\n              sload\n              swap1\n              dup1\n              0x01\n              add\n              dup1\n              sload\n              tag_40\n              swap1\n              tag_41\n              jump\t// in\n            tag_40:\n              dup1\n              0x1f\n              add\n              0x20\n              dup1\n              swap2\n              div\n              mul\n              0x20\n              add\n              mload(0x40)\n              swap1\n              dup2\n              add\n              0x40\n              mstore\n              dup1\n              swap3\n              swap2\n              swap1\n              dup2\n              dup2\n              mstore\n              0x20\n              add\n              dup3\n              dup1\n              sload\n              tag_42\n              swap1\n              tag_41\n              jump\t// in\n            tag_42:\n              dup1\n              iszero\n              tag_43\n              jumpi\n              dup1\n              0x1f\n              lt\n              tag_44\n              jumpi\n              0x0100\n              dup1\n              dup4\n              sload\n              div\n              mul\n              dup4\n              mstore\n              swap2\n              0x20\n              add\n              swap2\n              jump(tag_43)\n            tag_44:\n              dup3\n              add\n              swap2\n              swap1\n              0x00\n              mstore\n              keccak256(0x00, 0x20)\n              swap1\n            tag_45:\n              dup2\n              sload\n              dup2\n              mstore\n              swap1\n              0x01\n              add\n              swap1\n              0x20\n              add\n              dup1\n              dup4\n              gt\n              tag_45\n              jumpi\n              dup3\n              swap1\n              sub\n              0x1f\n              and\n              dup3\n              add\n              swap2\n            tag_43:\n              pop\n              pop\n              pop\n              pop\n              pop\n              swap1\n              pop\n              dup3\n              jump\t// out\n            tag_35:\n              dup3\n              dup1\n              sload\n              tag_46\n              swap1\n              tag_41\n              jump\t// in\n            tag_46:\n              swap1\n              0x00\n              mstore\n              keccak256(0x00, 0x20)\n              swap1\n              0x1f\n              add\n              0x20\n              swap1\n              div\n              dup2\n              add\n              swap3\n              dup3\n              tag_48\n              jumpi\n              0x00\n              dup6\n              sstore\n              jump(tag_47)\n            tag_48:\n              dup3\n              0x1f\n              lt\n              tag_49\n              jumpi\n              dup1\n              mload\n              not(0xff)\n              and\n              dup4\n              dup1\n              add\n              or\n              dup6\n              sstore\n              jump(tag_47)\n            tag_49:\n              dup3\n              dup1\n              add\n              0x01\n              add\n              dup6\n              sstore\n              dup3\n              iszero\n              tag_47\n              jumpi\n              swap2\n              dup3\n              add\n            tag_50:\n              dup3\n              dup2\n              gt\n              iszero\n              tag_51\n              jumpi\n              dup3\n              mload\n              dup3\n              sstore\n              swap2\n              0x20\n              add\n              swap2\n              swap1\n              0x01\n              add\n              swap1\n              jump(tag_50)\n            tag_51:\n            tag_47:\n              pop\n              swap1\n              pop\n              tag_52\n              swap2\n              swap1\n              tag_53\n              jump\t// in\n            tag_52:\n              pop\n              swap1\n              jump\t// out\n            tag_53:\n            tag_54:\n              dup1\n              dup3\n              gt\n              iszero\n              tag_55\n              jumpi\n              0x00\n              dup2\n              0x00\n              swap1\n              sstore\n              pop\n              0x01\n              add\n              jump(tag_54)\n            tag_55:\n              pop\n              swap1\n              jump\t// out\n                /* \"#utility.yul\":7:419   */\n            tag_57:\n                /* \"#utility.yul\":85:90   */\n              0x00\n                /* \"#utility.yul\":110:176   */\n              tag_59\n                /* \"#utility.yul\":126:175   */\n              tag_60\n                /* \"#utility.yul\":168:174   */\n              dup5\n                /* \"#utility.yul\":126:175   */\n              tag_61\n              jump\t// in\n            tag_60:\n                /* \"#utility.yul\":110:176   */\n              tag_62\n              jump\t// in\n            tag_59:\n                /* \"#utility.yul\":101:176   */\n              swap1\n              pop\n                /* \"#utility.yul\":199:205   */\n              dup3\n                /* \"#utility.yul\":192:197   */\n              dup2\n                /* \"#utility.yul\":185:206   */\n              mstore\n                /* \"#utility.yul\":237:241   */\n              0x20\n                /* \"#utility.yul\":230:235   */\n              dup2\n                /* \"#utility.yul\":226:242   */\n              add\n                /* \"#utility.yul\":275:278   */\n              dup5\n                /* \"#utility.yul\":266:272   */\n              dup5\n                /* \"#utility.yul\":261:264   */\n              dup5\n                /* \"#utility.yul\":257:273   */\n              add\n                /* \"#utility.yul\":254:279   */\n              gt\n                /* \"#utility.yul\":251:363   */\n              iszero\n              tag_63\n              jumpi\n                /* \"#utility.yul\":282:361   */\n              tag_64\n              tag_65\n              jump\t// in\n            tag_64:\n                /* \"#utility.yul\":251:363   */\n            tag_63:\n                /* \"#utility.yul\":372:413   */\n              tag_66\n                /* \"#utility.yul\":406:412   */\n              dup5\n                /* \"#utility.yul\":401:404   */\n              dup3\n                /* \"#utility.yul\":396:399   */\n              dup6\n                /* \"#utility.yul\":372:413   */\n              tag_67\n              jump\t// in\n            tag_66:\n                /* \"#utility.yul\":91:419   */\n              pop\n                /* \"#utility.yul\":7:419   */\n              swap4\n              swap3\n              pop\n              pop\n              pop\n              jump\t// out\n                /* \"#utility.yul\":439:779   */\n            tag_68:\n                /* \"#utility.yul\":495:500   */\n              0x00\n                /* \"#utility.yul\":544:547   */\n              dup3\n                /* \"#utility.yul\":537:541   */\n              0x1f\n                /* \"#utility.yul\":529:535   */\n              dup4\n                /* \"#utility.yul\":525:542   */\n              add\n                /* \"#utility.yul\":521:548   */\n              slt\n                /* \"#utility.yul\":511:633   */\n              tag_70\n              jumpi\n                /* \"#utility.yul\":552:631   */\n              tag_71\n              tag_72\n              jump\t// in\n            tag_71:\n                /* \"#utility.yul\":511:633   */\n            tag_70:\n                /* \"#utility.yul\":669:675   */\n              dup2\n                /* \"#utility.yul\":656:676   */\n              calldataload\n                /* \"#utility.yul\":694:773   */\n              tag_73\n                /* \"#utility.yul\":769:772   */\n              dup5\n                /* \"#utility.yul\":761:767   */\n              dup3\n                /* \"#utility.yul\":754:758   */\n              0x20\n                /* \"#utility.yul\":746:752   */\n              dup7\n                /* \"#utility.yul\":742:759   */\n              add\n                /* \"#utility.yul\":694:773   */\n              tag_57\n              jump\t// in\n            tag_73:\n                /* \"#utility.yul\":685:773   */\n              swap2\n              pop\n                /* \"#utility.yul\":501:779   */\n              pop\n                /* \"#utility.yul\":439:779   */\n              swap3\n              swap2\n              pop\n              pop\n              jump\t// out\n                /* \"#utility.yul\":785:924   */\n            tag_74:\n                /* \"#utility.yul\":831:836   */\n              0x00\n                /* \"#utility.yul\":869:875   */\n              dup2\n                /* \"#utility.yul\":856:876   */\n              calldataload\n                /* \"#utility.yul\":847:876   */\n              swap1\n              pop\n                /* \"#utility.yul\":885:918   */\n              tag_76\n                /* \"#utility.yul\":912:917   */\n              dup2\n                /* \"#utility.yul\":885:918   */\n              tag_77\n              jump\t// in\n            tag_76:\n                /* \"#utility.yul\":785:924   */\n              swap3\n              swap2\n              pop\n              pop\n              jump\t// out\n                /* \"#utility.yul\":930:1439   */\n            tag_22:\n                /* \"#utility.yul\":999:1005   */\n              0x00\n                /* \"#utility.yul\":1048:1050   */\n              0x20\n                /* \"#utility.yul\":1036:1045   */\n              dup3\n                /* \"#utility.yul\":1027:1034   */\n              dup5\n                /* \"#utility.yul\":1023:1046   */\n              sub\n                /* \"#utility.yul\":1019:1051   */\n              slt\n                /* \"#utility.yul\":1016:1135   */\n              iszero\n              tag_79\n              jumpi\n                /* \"#utility.yul\":1054:1133   */\n              tag_80\n              tag_81\n              jump\t// in\n            tag_80:\n                /* \"#utility.yul\":1016:1135   */\n            tag_79:\n                /* \"#utility.yul\":1202:1203   */\n              0x00\n                /* \"#utility.yul\":1191:1200   */\n              dup3\n                /* \"#utility.yul\":1187:1204   */\n              add\n                /* \"#utility.yul\":1174:1205   */\n              calldataload\n                /* \"#utility.yul\":1232:1250   */\n              0xffffffffffffffff\n                /* \"#utility.yul\":1224:1230   */\n              dup2\n                /* \"#utility.yul\":1221:1251   */\n              gt\n                /* \"#utility.yul\":1218:1335   */\n              iszero\n              tag_82\n              jumpi\n                /* \"#utility.yul\":1254:1333   */\n              tag_83\n              tag_84\n              jump\t// in\n            tag_83:\n                /* \"#utility.yul\":1218:1335   */\n            tag_82:\n                /* \"#utility.yul\":1359:1422   */\n              tag_85\n                /* \"#utility.yul\":1414:1421   */\n              dup5\n                /* \"#utility.yul\":1405:1411   */\n              dup3\n                /* \"#utility.yul\":1394:1403   */\n              dup6\n                /* \"#utility.yul\":1390:1412   */\n              add\n                /* \"#utility.yul\":1359:1422   */\n              tag_68\n              jump\t// in\n            tag_85:\n                /* \"#utility.yul\":1349:1422   */\n              swap2\n              pop\n                /* \"#utility.yul\":1145:1432   */\n              pop\n                /* \"#utility.yul\":930:1439   */\n              swap3\n              swap2\n              pop\n              pop\n              jump\t// out\n                /* \"#utility.yul\":1445:2099   */\n            tag_18:\n                /* \"#utility.yul\":1523:1529   */\n              0x00\n                /* \"#utility.yul\":1531:1537   */\n              dup1\n                /* \"#utility.yul\":1580:1582   */\n              0x40\n                /* \"#utility.yul\":1568:1577   */\n              dup4\n                /* \"#utility.yul\":1559:1566   */\n              dup6\n                /* \"#utility.yul\":1555:1578   */\n              sub\n                /* \"#utility.yul\":1551:1583   */\n              slt\n                /* \"#utility.yul\":1548:1667   */\n              iszero\n              tag_87\n              jumpi\n                /* \"#utility.yul\":1586:1665   */\n              tag_88\n              tag_81\n              jump\t// in\n            tag_88:\n                /* \"#utility.yul\":1548:1667   */\n            tag_87:\n                /* \"#utility.yul\":1734:1735   */\n              0x00\n                /* \"#utility.yul\":1723:1732   */\n              dup4\n                /* \"#utility.yul\":1719:1736   */\n              add\n                /* \"#utility.yul\":1706:1737   */\n              calldataload\n                /* \"#utility.yul\":1764:1782   */\n              0xffffffffffffffff\n                /* \"#utility.yul\":1756:1762   */\n              dup2\n                /* \"#utility.yul\":1753:1783   */\n              gt\n                /* \"#utility.yul\":1750:1867   */\n              iszero\n              tag_89\n              jumpi\n                /* \"#utility.yul\":1786:1865   */\n              tag_90\n              tag_84\n              jump\t// in\n            tag_90:\n                /* \"#utility.yul\":1750:1867   */\n            tag_89:\n                /* \"#utility.yul\":1891:1954   */\n              tag_91\n                /* \"#utility.yul\":1946:1953   */\n              dup6\n                /* \"#utility.yul\":1937:1943   */\n              dup3\n                /* \"#utility.yul\":1926:1935   */\n              dup7\n                /* \"#utility.yul\":1922:1944   */\n              add\n                /* \"#utility.yul\":1891:1954   */\n              tag_68\n              jump\t// in\n            tag_91:\n                /* \"#utility.yul\":1881:1954   */\n              swap3\n              pop\n                /* \"#utility.yul\":1677:1964   */\n              pop\n                /* \"#utility.yul\":2003:2005   */\n              0x20\n                /* \"#utility.yul\":2029:2082   */\n              tag_92\n                /* \"#utility.yul\":2074:2081   */\n              dup6\n                /* \"#utility.yul\":2065:2071   */\n              dup3\n                /* \"#utility.yul\":2054:2063   */\n              dup7\n                /* \"#utility.yul\":2050:2072   */\n              add\n                /* \"#utility.yul\":2029:2082   */\n              tag_74\n              jump\t// in\n            tag_92:\n                /* \"#utility.yul\":2019:2082   */\n              swap2\n              pop\n                /* \"#utility.yul\":1974:2092   */\n              pop\n                /* \"#utility.yul\":1445:2099   */\n              swap3\n              pop\n              swap3\n              swap1\n              pop\n              jump\t// out\n                /* \"#utility.yul\":2105:2434   */\n            tag_14:\n                /* \"#utility.yul\":2164:2170   */\n              0x00\n                /* \"#utility.yul\":2213:2215   */\n              0x20\n                /* \"#utility.yul\":2201:2210   */\n              dup3\n                /* \"#utility.yul\":2192:2199   */\n              dup5\n                /* \"#utility.yul\":2188:2211   */\n              sub\n                /* \"#utility.yul\":2184:2216   */\n              slt\n                /* \"#utility.yul\":2181:2300   */\n              iszero\n              tag_94\n              jumpi\n                /* \"#utility.yul\":2219:2298   */\n              tag_95\n              tag_81\n              jump\t// in\n            tag_95:\n                /* \"#utility.yul\":2181:2300   */\n            tag_94:\n                /* \"#utility.yul\":2339:2340   */\n              0x00\n                /* \"#utility.yul\":2364:2417   */\n              tag_96\n                /* \"#utility.yul\":2409:2416   */\n              dup5\n                /* \"#utility.yul\":2400:2406   */\n              dup3\n                /* \"#utility.yul\":2389:2398   */\n              dup6\n                /* \"#utility.yul\":2385:2407   */\n              add\n                /* \"#utility.yul\":2364:2417   */\n              tag_74\n              jump\t// in\n            tag_96:\n                /* \"#utility.yul\":2354:2417   */\n              swap2\n              pop\n                /* \"#utility.yul\":2310:2427   */\n              pop\n                /* \"#utility.yul\":2105:2434   */\n              swap3\n              swap2\n              pop\n              pop\n              jump\t// out\n                /* \"#utility.yul\":2440:2804   */\n            tag_97:\n                /* \"#utility.yul\":2528:2531   */\n              0x00\n                /* \"#utility.yul\":2556:2595   */\n              tag_99\n                /* \"#utility.yul\":2589:2594   */\n              dup3\n                /* \"#utility.yul\":2556:2595   */\n              tag_100\n              jump\t// in\n            tag_99:\n                /* \"#utility.yul\":2611:2682   */\n              tag_101\n                /* \"#utility.yul\":2675:2681   */\n              dup2\n                /* \"#utility.yul\":2670:2673   */\n              dup6\n                /* \"#utility.yul\":2611:2682   */\n              tag_102\n              jump\t// in\n            tag_101:\n                /* \"#utility.yul\":2604:2682   */\n              swap4\n              pop\n                /* \"#utility.yul\":2691:2743   */\n              tag_103\n                /* \"#utility.yul\":2736:2742   */\n              dup2\n                /* \"#utility.yul\":2731:2734   */\n              dup6\n                /* \"#utility.yul\":2724:2728   */\n              0x20\n                /* \"#utility.yul\":2717:2722   */\n              dup7\n                /* \"#utility.yul\":2713:2729   */\n              add\n                /* \"#utility.yul\":2691:2743   */\n              tag_104\n              jump\t// in\n            tag_103:\n                /* \"#utility.yul\":2768:2797   */\n              tag_105\n                /* \"#utility.yul\":2790:2796   */\n              dup2\n                /* \"#utility.yul\":2768:2797   */\n              tag_106\n              jump\t// in\n            tag_105:\n                /* \"#utility.yul\":2763:2766   */\n              dup5\n                /* \"#utility.yul\":2759:2798   */\n              add\n                /* \"#utility.yul\":2752:2798   */\n              swap2\n              pop\n                /* \"#utility.yul\":2532:2804   */\n              pop\n                /* \"#utility.yul\":2440:2804   */\n              swap3\n              swap2\n              pop\n              pop\n              jump\t// out\n                /* \"#utility.yul\":2810:3187   */\n            tag_107:\n                /* \"#utility.yul\":2916:2919   */\n              0x00\n                /* \"#utility.yul\":2944:2983   */\n              tag_109\n                /* \"#utility.yul\":2977:2982   */\n              dup3\n                /* \"#utility.yul\":2944:2983   */\n              tag_100\n              jump\t// in\n            tag_109:\n                /* \"#utility.yul\":2999:3088   */\n              tag_110\n                /* \"#utility.yul\":3081:3087   */\n              dup2\n                /* \"#utility.yul\":3076:3079   */\n              dup6\n                /* \"#utility.yul\":2999:3088   */\n              tag_111\n              jump\t// in\n            tag_110:\n                /* \"#utility.yul\":2992:3088   */\n              swap4\n              pop\n                /* \"#utility.yul\":3097:3149   */\n              tag_112\n                /* \"#utility.yul\":3142:3148   */\n              dup2\n                /* \"#utility.yul\":3137:3140   */\n              dup6\n                /* \"#utility.yul\":3130:3134   */\n              0x20\n                /* \"#utility.yul\":3123:3128   */\n              dup7\n                /* \"#utility.yul\":3119:3135   */\n              add\n                /* \"#utility.yul\":3097:3149   */\n              tag_104\n              jump\t// in\n            tag_112:\n                /* \"#utility.yul\":3174:3180   */\n              dup1\n                /* \"#utility.yul\":3169:3172   */\n              dup5\n                /* \"#utility.yul\":3165:3181   */\n              add\n                /* \"#utility.yul\":3158:3181   */\n              swap2\n              pop\n                /* \"#utility.yul\":2920:3187   */\n              pop\n                /* \"#utility.yul\":2810:3187   */\n              swap3\n              swap2\n              pop\n              pop\n              jump\t// out\n                /* \"#utility.yul\":3193:3311   */\n            tag_113:\n                /* \"#utility.yul\":3280:3304   */\n              tag_115\n                /* \"#utility.yul\":3298:3303   */\n              dup2\n                /* \"#utility.yul\":3280:3304   */\n              tag_116\n              jump\t// in\n            tag_115:\n                /* \"#utility.yul\":3275:3278   */\n              dup3\n                /* \"#utility.yul\":3268:3305   */\n              mstore\n                /* \"#utility.yul\":3193:3311   */\n              pop\n              pop\n              jump\t// out\n                /* \"#utility.yul\":3317:3592   */\n            tag_37:\n                /* \"#utility.yul\":3449:3452   */\n              0x00\n                /* \"#utility.yul\":3471:3566   */\n              tag_118\n                /* \"#utility.yul\":3562:3565   */\n              dup3\n                /* \"#utility.yul\":3553:3559   */\n              dup5\n                /* \"#utility.yul\":3471:3566   */\n              tag_107\n              jump\t// in\n            tag_118:\n                /* \"#utility.yul\":3464:3566   */\n              swap2\n              pop\n                /* \"#utility.yul\":3583:3586   */\n              dup2\n                /* \"#utility.yul\":3576:3586   */\n              swap1\n              pop\n                /* \"#utility.yul\":3317:3592   */\n              swap3\n              swap2\n              pop\n              pop\n              jump\t// out\n                /* \"#utility.yul\":3598:3820   */\n            tag_11:\n                /* \"#utility.yul\":3691:3695   */\n              0x00\n                /* \"#utility.yul\":3729:3731   */\n              0x20\n                /* \"#utility.yul\":3718:3727   */\n              dup3\n                /* \"#utility.yul\":3714:3732   */\n              add\n                /* \"#utility.yul\":3706:3732   */\n              swap1\n              pop\n                /* \"#utility.yul\":3742:3813   */\n              tag_120\n                /* \"#utility.yul\":3810:3811   */\n              0x00\n                /* \"#utility.yul\":3799:3808   */\n              dup4\n                /* \"#utility.yul\":3795:3812   */\n              add\n                /* \"#utility.yul\":3786:3792   */\n              dup5\n                /* \"#utility.yul\":3742:3813   */\n              tag_113\n              jump\t// in\n            tag_120:\n                /* \"#utility.yul\":3598:3820   */\n              swap3\n              swap2\n              pop\n              pop\n              jump\t// out\n                /* \"#utility.yul\":3826:4249   */\n            tag_29:\n                /* \"#utility.yul\":3967:3971   */\n              0x00\n                /* \"#utility.yul\":4005:4007   */\n              0x40\n                /* \"#utility.yul\":3994:4003   */\n              dup3\n                /* \"#utility.yul\":3990:4008   */\n              add\n                /* \"#utility.yul\":3982:4008   */\n              swap1\n              pop\n                /* \"#utility.yul\":4018:4089   */\n              tag_122\n                /* \"#utility.yul\":4086:4087   */\n              0x00\n                /* \"#utility.yul\":4075:4084   */\n              dup4\n                /* \"#utility.yul\":4071:4088   */\n              add\n                /* \"#utility.yul\":4062:4068   */\n              dup6\n                /* \"#utility.yul\":4018:4089   */\n              tag_113\n              jump\t// in\n            tag_122:\n                /* \"#utility.yul\":4136:4145   */\n              dup2\n                /* \"#utility.yul\":4130:4134   */\n              dup2\n                /* \"#utility.yul\":4126:4146   */\n              sub\n                /* \"#utility.yul\":4121:4123   */\n              0x20\n                /* \"#utility.yul\":4110:4119   */\n              dup4\n                /* \"#utility.yul\":4106:4124   */\n              add\n                /* \"#utility.yul\":4099:4147   */\n              mstore\n                /* \"#utility.yul\":4164:4242   */\n              tag_123\n                /* \"#utility.yul\":4237:4241   */\n              dup2\n                /* \"#utility.yul\":4228:4234   */\n              dup5\n                /* \"#utility.yul\":4164:4242   */\n              tag_97\n              jump\t// in\n            tag_123:\n                /* \"#utility.yul\":4156:4242   */\n              swap1\n              pop\n                /* \"#utility.yul\":3826:4249   */\n              swap4\n              swap3\n              pop\n              pop\n              pop\n              jump\t// out\n                /* \"#utility.yul\":4255:4384   */\n            tag_62:\n                /* \"#utility.yul\":4289:4295   */\n              0x00\n                /* \"#utility.yul\":4316:4336   */\n              tag_125\n              tag_126\n              jump\t// in\n            tag_125:\n                /* \"#utility.yul\":4306:4336   */\n              swap1\n              pop\n                /* \"#utility.yul\":4345:4378   */\n              tag_127\n                /* \"#utility.yul\":4373:4377   */\n              dup3\n                /* \"#utility.yul\":4365:4371   */\n              dup3\n                /* \"#utility.yul\":4345:4378   */\n              tag_128\n              jump\t// in\n            tag_127:\n                /* \"#utility.yul\":4255:4384   */\n              swap2\n              swap1\n              pop\n              jump\t// out\n                /* \"#utility.yul\":4390:4465   */\n            tag_126:\n                /* \"#utility.yul\":4423:4429   */\n              0x00\n                /* \"#utility.yul\":4456:4458   */\n              0x40\n                /* \"#utility.yul\":4450:4459   */\n              mload\n                /* \"#utility.yul\":4440:4459   */\n              swap1\n              pop\n                /* \"#utility.yul\":4390:4465   */\n              swap1\n              jump\t// out\n                /* \"#utility.yul\":4471:4779   */\n            tag_61:\n                /* \"#utility.yul\":4533:4537   */\n              0x00\n                /* \"#utility.yul\":4623:4641   */\n              0xffffffffffffffff\n                /* \"#utility.yul\":4615:4621   */\n              dup3\n                /* \"#utility.yul\":4612:4642   */\n              gt\n                /* \"#utility.yul\":4609:4665   */\n              iszero\n              tag_131\n              jumpi\n                /* \"#utility.yul\":4645:4663   */\n              tag_132\n              tag_133\n              jump\t// in\n            tag_132:\n                /* \"#utility.yul\":4609:4665   */\n            tag_131:\n                /* \"#utility.yul\":4683:4712   */\n              tag_134\n                /* \"#utility.yul\":4705:4711   */\n              dup3\n                /* \"#utility.yul\":4683:4712   */\n              tag_106\n              jump\t// in\n            tag_134:\n                /* \"#utility.yul\":4675:4712   */\n              swap1\n              pop\n                /* \"#utility.yul\":4767:4771   */\n              0x20\n                /* \"#utility.yul\":4761:4765   */\n              dup2\n                /* \"#utility.yul\":4757:4772   */\n              add\n                /* \"#utility.yul\":4749:4772   */\n              swap1\n              pop\n                /* \"#utility.yul\":4471:4779   */\n              swap2\n              swap1\n              pop\n              jump\t// out\n                /* \"#utility.yul\":4785:4884   */\n            tag_100:\n                /* \"#utility.yul\":4837:4843   */\n              0x00\n                /* \"#utility.yul\":4871:4876   */\n              dup2\n                /* \"#utility.yul\":4865:4877   */\n              mload\n                /* \"#utility.yul\":4855:4877   */\n              swap1\n              pop\n                /* \"#utility.yul\":4785:4884   */\n              swap2\n              swap1\n              pop\n              jump\t// out\n                /* \"#utility.yul\":4890:5059   */\n            tag_102:\n                /* \"#utility.yul\":4974:4985   */\n              0x00\n                /* \"#utility.yul\":5008:5014   */\n              dup3\n                /* \"#utility.yul\":5003:5006   */\n              dup3\n                /* \"#utility.yul\":4996:5015   */\n              mstore\n                /* \"#utility.yul\":5048:5052   */\n              0x20\n                /* \"#utility.yul\":5043:5046   */\n              dup3\n                /* \"#utility.yul\":5039:5053   */\n              add\n                /* \"#utility.yul\":5024:5053   */\n              swap1\n              pop\n                /* \"#utility.yul\":4890:5059   */\n              swap3\n              swap2\n              pop\n              pop\n              jump\t// out\n                /* \"#utility.yul\":5065:5213   */\n            tag_111:\n                /* \"#utility.yul\":5167:5178   */\n              0x00\n                /* \"#utility.yul\":5204:5207   */\n              dup2\n                /* \"#utility.yul\":5189:5207   */\n              swap1\n              pop\n                /* \"#utility.yul\":5065:5213   */\n              swap3\n              swap2\n              pop\n              pop\n              jump\t// out\n                /* \"#utility.yul\":5219:5296   */\n            tag_116:\n                /* \"#utility.yul\":5256:5263   */\n              0x00\n                /* \"#utility.yul\":5285:5290   */\n              dup2\n                /* \"#utility.yul\":5274:5290   */\n              swap1\n              pop\n                /* \"#utility.yul\":5219:5296   */\n              swap2\n              swap1\n              pop\n              jump\t// out\n                /* \"#utility.yul\":5302:5456   */\n            tag_67:\n                /* \"#utility.yul\":5386:5392   */\n              dup3\n                /* \"#utility.yul\":5381:5384   */\n              dup2\n                /* \"#utility.yul\":5376:5379   */\n              dup4\n                /* \"#utility.yul\":5363:5393   */\n              calldatacopy\n                /* \"#utility.yul\":5448:5449   */\n              0x00\n                /* \"#utility.yul\":5439:5445   */\n              dup4\n                /* \"#utility.yul\":5434:5437   */\n              dup4\n                /* \"#utility.yul\":5430:5446   */\n              add\n                /* \"#utility.yul\":5423:5450   */\n              mstore\n                /* \"#utility.yul\":5302:5456   */\n              pop\n              pop\n              pop\n              jump\t// out\n                /* \"#utility.yul\":5462:5769   */\n            tag_104:\n                /* \"#utility.yul\":5530:5531   */\n              0x00\n                /* \"#utility.yul\":5540:5653   */\n            tag_141:\n                /* \"#utility.yul\":5554:5560   */\n              dup4\n                /* \"#utility.yul\":5551:5552   */\n              dup2\n                /* \"#utility.yul\":5548:5561   */\n              lt\n                /* \"#utility.yul\":5540:5653   */\n              iszero\n              tag_143\n              jumpi\n                /* \"#utility.yul\":5639:5640   */\n              dup1\n                /* \"#utility.yul\":5634:5637   */\n              dup3\n                /* \"#utility.yul\":5630:5641   */\n              add\n                /* \"#utility.yul\":5624:5642   */\n              mload\n                /* \"#utility.yul\":5620:5621   */\n              dup2\n                /* \"#utility.yul\":5615:5618   */\n              dup5\n                /* \"#utility.yul\":5611:5622   */\n              add\n                /* \"#utility.yul\":5604:5643   */\n              mstore\n                /* \"#utility.yul\":5576:5578   */\n              0x20\n                /* \"#utility.yul\":5573:5574   */\n              dup2\n                /* \"#utility.yul\":5569:5579   */\n              add\n                /* \"#utility.yul\":5564:5579   */\n              swap1\n              pop\n                /* \"#utility.yul\":5540:5653   */\n              jump(tag_141)\n            tag_143:\n                /* \"#utility.yul\":5671:5677   */\n              dup4\n                /* \"#utility.yul\":5668:5669   */\n              dup2\n                /* \"#utility.yul\":5665:5678   */\n              gt\n                /* \"#utility.yul\":5662:5763   */\n              iszero\n              tag_144\n              jumpi\n                /* \"#utility.yul\":5751:5752   */\n              0x00\n                /* \"#utility.yul\":5742:5748   */\n              dup5\n                /* \"#utility.yul\":5737:5740   */\n              dup5\n                /* \"#utility.yul\":5733:5749   */\n              add\n                /* \"#utility.yul\":5726:5753   */\n              mstore\n                /* \"#utility.yul\":5662:5763   */\n            tag_144:\n                /* \"#utility.yul\":5511:5769   */\n              pop\n                /* \"#utility.yul\":5462:5769   */\n              pop\n              pop\n              pop\n              jump\t// out\n                /* \"#utility.yul\":5775:6095   */\n            tag_41:\n                /* \"#utility.yul\":5819:5825   */\n              0x00\n                /* \"#utility.yul\":5856:5857   */\n              0x02\n                /* \"#utility.yul\":5850:5854   */\n              dup3\n                /* \"#utility.yul\":5846:5858   */\n              div\n                /* \"#utility.yul\":5836:5858   */\n              swap1\n              pop\n                /* \"#utility.yul\":5903:5904   */\n              0x01\n                /* \"#utility.yul\":5897:5901   */\n              dup3\n                /* \"#utility.yul\":5893:5905   */\n              and\n                /* \"#utility.yul\":5924:5942   */\n              dup1\n                /* \"#utility.yul\":5914:5995   */\n              tag_146\n              jumpi\n                /* \"#utility.yul\":5980:5984   */\n              0x7f\n                /* \"#utility.yul\":5972:5978   */\n              dup3\n                /* \"#utility.yul\":5968:5985   */\n              and\n                /* \"#utility.yul\":5958:5985   */\n              swap2\n              pop\n                /* \"#utility.yul\":5914:5995   */\n            tag_146:\n                /* \"#utility.yul\":6042:6044   */\n              0x20\n                /* \"#utility.yul\":6034:6040   */\n              dup3\n                /* \"#utility.yul\":6031:6045   */\n              lt\n                /* \"#utility.yul\":6011:6029   */\n              dup2\n                /* \"#utility.yul\":6008:6046   */\n              eq\n                /* \"#utility.yul\":6005:6089   */\n              iszero\n              tag_147\n              jumpi\n                /* \"#utility.yul\":6061:6079   */\n              tag_148\n              tag_149\n              jump\t// in\n            tag_148:\n                /* \"#utility.yul\":6005:6089   */\n            tag_147:\n                /* \"#utility.yul\":5826:6095   */\n              pop\n                /* \"#utility.yul\":5775:6095   */\n              swap2\n              swap1\n              pop\n              jump\t// out\n                /* \"#utility.yul\":6101:6382   */\n            tag_128:\n                /* \"#utility.yul\":6184:6211   */\n              tag_151\n                /* \"#utility.yul\":6206:6210   */\n              dup3\n                /* \"#utility.yul\":6184:6211   */\n              tag_106\n              jump\t// in\n            tag_151:\n                /* \"#utility.yul\":6176:6182   */\n              dup2\n                /* \"#utility.yul\":6172:6212   */\n              add\n                /* \"#utility.yul\":6314:6320   */\n              dup2\n                /* \"#utility.yul\":6302:6312   */\n              dup2\n                /* \"#utility.yul\":6299:6321   */\n              lt\n                /* \"#utility.yul\":6278:6296   */\n              0xffffffffffffffff\n                /* \"#utility.yul\":6266:6276   */\n              dup3\n                /* \"#utility.yul\":6263:6297   */\n              gt\n                /* \"#utility.yul\":6260:6322   */\n              or\n                /* \"#utility.yul\":6257:6345   */\n              iszero\n              tag_152\n              jumpi\n                /* \"#utility.yul\":6325:6343   */\n              tag_153\n              tag_133\n              jump\t// in\n            tag_153:\n                /* \"#utility.yul\":6257:6345   */\n            tag_152:\n                /* \"#utility.yul\":6365:6375   */\n              dup1\n                /* \"#utility.yul\":6361:6363   */\n              0x40\n                /* \"#utility.yul\":6354:6376   */\n              mstore\n                /* \"#utility.yul\":6144:6382   */\n              pop\n                /* \"#utility.yul\":6101:6382   */\n              pop\n              pop\n              jump\t// out\n                /* \"#utility.yul\":6388:6568   */\n            tag_149:\n                /* \"#utility.yul\":6436:6513   */\n              0x4e487b7100000000000000000000000000000000000000000000000000000000\n                /* \"#utility.yul\":6433:6434   */\n              0x00\n                /* \"#utility.yul\":6426:6514   */\n              mstore\n                /* \"#utility.yul\":6533:6537   */\n              0x22\n                /* \"#utility.yul\":6530:6531   */\n              0x04\n                /* \"#utility.yul\":6523:6538   */\n              mstore\n                /* \"#utility.yul\":6557:6561   */\n              0x24\n                /* \"#utility.yul\":6554:6555   */\n              0x00\n                /* \"#utility.yul\":6547:6562   */\n              revert\n                /* \"#utility.yul\":6574:6754   */\n            tag_133:\n                /* \"#utility.yul\":6622:6699   */\n              0x4e487b7100000000000000000000000000000000000000000000000000000000\n                /* \"#utility.yul\":6619:6620   */\n              0x00\n                /* \"#utility.yul\":6612:6700   */\n              mstore\n                /* \"#utility.yul\":6719:6723   */\n              0x41\n                /* \"#utility.yul\":6716:6717   */\n              0x04\n                /* \"#utility.yul\":6709:6724   */\n              mstore\n                /* \"#utility.yul\":6743:6747   */\n              0x24\n                /* \"#utility.yul\":6740:6741   */\n              0x00\n                /* \"#utility.yul\":6733:6748   */\n              revert\n                /* \"#utility.yul\":6760:6877   */\n            tag_72:\n                /* \"#utility.yul\":6869:6870   */\n              0x00\n                /* \"#utility.yul\":6866:6867   */\n              dup1\n                /* \"#utility.yul\":6859:6871   */\n              revert\n                /* \"#utility.yul\":6883:7000   */\n            tag_65:\n                /* \"#utility.yul\":6992:6993   */\n              0x00\n                /* \"#utility.yul\":6989:6990   */\n              dup1\n                /* \"#utility.yul\":6982:6994   */\n              revert\n                /* \"#utility.yul\":7006:7123   */\n            tag_84:\n                /* \"#utility.yul\":7115:7116   */\n              0x00\n                /* \"#utility.yul\":7112:7113   */\n              dup1\n                /* \"#utility.yul\":7105:7117   */\n              revert\n                /* \"#utility.yul\":7129:7246   */\n            tag_81:\n                /* \"#utility.yul\":7238:7239   */\n              0x00\n                /* \"#utility.yul\":7235:7236   */\n              dup1\n                /* \"#utility.yul\":7228:7240   */\n              revert\n                /* \"#utility.yul\":7252:7354   */\n            tag_106:\n                /* \"#utility.yul\":7293:7299   */\n              0x00\n                /* \"#utility.yul\":7344:7346   */\n              0x1f\n                /* \"#utility.yul\":7340:7347   */\n              not\n                /* \"#utility.yul\":7335:7337   */\n              0x1f\n                /* \"#utility.yul\":7328:7333   */\n              dup4\n                /* \"#utility.yul\":7324:7338   */\n              add\n                /* \"#utility.yul\":7320:7348   */\n              and\n                /* \"#utility.yul\":7310:7348   */\n              swap1\n              pop\n                /* \"#utility.yul\":7252:7354   */\n              swap2\n              swap1\n              pop\n              jump\t// out\n                /* \"#utility.yul\":7360:7482   */\n            tag_77:\n                /* \"#utility.yul\":7433:7457   */\n              tag_162\n                /* \"#utility.yul\":7451:7456   */\n              dup2\n                /* \"#utility.yul\":7433:7457   */\n              tag_116\n              jump\t// in\n            tag_162:\n                /* \"#utility.yul\":7426:7431   */\n              dup2\n                /* \"#utility.yul\":7423:7458   */\n              eq\n                /* \"#utility.yul\":7413:7476   */\n              tag_163\n              jumpi\n                /* \"#utility.yul\":7472:7473   */\n              0x00\n                /* \"#utility.yul\":7469:7470   */\n              dup1\n                /* \"#utility.yul\":7462:7474   */\n              revert\n                /* \"#utility.yul\":7413:7476   */\n            tag_163:\n                /* \"#utility.yul\":7360:7482   */\n              pop\n              jump\t// out\n\n            auxdata: 0xa2646970667358221220352561974e28f944ff46c7ff800298da9e89ea7c7460bd92685014f24cd8d28764736f6c63430008070033\n        }\n    }\n\n    auxdata: 0xa26469706673582212202eb7884779bb610407ecb4c9bf376befdb3127d42b06b2c9028fcf973e9df6af64736f6c63430008070033\n}\n",
				"bytecode": {
					"linkReferences": {},
					"object": "608060405234801561001057600080fd5b50611346806100206000396000f3fe608060405234801561001057600080fd5b50600436106100935760003560e01c806364591bf11161006657806364591bf1146100f85780636f760f41146101285780638bab8dd5146101445780639e7a13ad14610174578063c5f19c20146101a557610093565b80631563700f146100985780631dda6541146100b45780632e64cec1146100be5780636057361d146100dc575b600080fd5b6100b260048036038101906100ad91906107ef565b6101d5565b005b6100bc610282565b005b6100c6610315565b6040516100d391906108e9565b60405180910390f35b6100f660048036038101906100f19190610795565b61031e565b005b610112600480360381019061010d9190610795565b610328565b60405161011f91906108ce565b60405180910390f35b610142600480360381019061013d9190610739565b610367565b005b61015e600480360381019061015991906106f0565b6103f7565b60405161016b91906108e9565b60405180910390f35b61018e60048036038101906101899190610795565b610425565b60405161019c929190610904565b60405180910390f35b6101bf60048036038101906101ba9190610795565b6104e1565b6040516101cc91906108e9565b60405180910390f35b600482815481106101e9576101e8610ae5565b5b9060005260206000200160009054906101000a900473ffffffffffffffffffffffffffffffffffffffff1673ffffffffffffffffffffffffffffffffffffffff16636057361d826040518263ffffffff1660e01b815260040161024c91906108e9565b600060405180830381600087803b15801561026657600080fd5b505af115801561027a573d6000803e3d6000fd5b505050505050565b6000604051610290906105a6565b604051809103906000f0801580156102ac573d6000803e3d6000fd5b5090506004819080600181540180825580915050600190039060005260206000200160009091909190916101000a81548173ffffffffffffffffffffffffffffffffffffffff021916908373ffffffffffffffffffffffffffffffffffffffff16021790555050565b60008054905090565b8060008190555050565b6004818154811061033857600080fd5b906000526020600020016000915054906101000a900473ffffffffffffffffffffffffffffffffffffffff1681565b600260405180604001604052808381526020018481525090806001815401808255809150506001900390600052602060002090600202016000909190919091506000820151816000015560208201518160010190805190602001906103cd9291906105b3565b505050806003836040516103e191906108b7565b9081526020016040518091039020819055505050565b6003818051602081018201805184825260208301602085012081835280955050505050506000915090505481565b6002818154811061043557600080fd5b906000526020600020906002020160009150905080600001549080600101805461045e90610a53565b80601f016020809104026020016040519081016040528092919081815260200182805461048a90610a53565b80156104d75780601f106104ac576101008083540402835291602001916104d7565b820191906000526020600020905b8154815290600101906020018083116104ba57829003601f168201915b5050505050905082565b6000600482815481106104f7576104f6610ae5565b5b9060005260206000200160009054906101000a900473ffffffffffffffffffffffffffffffffffffffff1673ffffffffffffffffffffffffffffffffffffffff16632e64cec16040518163ffffffff1660e01b815260040160206040518083038186803b15801561056757600080fd5b505afa15801561057b573d6000803e3d6000fd5b505050506040513d601f19601f8201168201806040525081019061059f91906107c2565b9050919050565b61079180610b8083390190565b8280546105bf90610a53565b90600052602060002090601f0160209004810192826105e15760008555610628565b82601f106105fa57805160ff1916838001178555610628565b82800160010185558215610628579182015b8281111561062757825182559160200191906001019061060c565b5b5090506106359190610639565b5090565b5b8082111561065257600081600090555060010161063a565b5090565b600061066961066484610959565b610934565b90508281526020810184848401111561068557610684610b48565b5b610690848285610a11565b509392505050565b600082601f8301126106ad576106ac610b43565b5b81356106bd848260208601610656565b91505092915050565b6000813590506106d581610b68565b92915050565b6000815190506106ea81610b68565b92915050565b60006020828403121561070657610705610b52565b5b600082013567ffffffffffffffff81111561072457610723610b4d565b5b61073084828501610698565b91505092915050565b600080604083850312156107505761074f610b52565b5b600083013567ffffffffffffffff81111561076e5761076d610b4d565b5b61077a85828601610698565b925050602061078b858286016106c6565b9150509250929050565b6000602082840312156107ab576107aa610b52565b5b60006107b9848285016106c6565b91505092915050565b6000602082840312156107d8576107d7610b52565b5b60006107e6848285016106db565b91505092915050565b6000806040838503121561080657610805610b52565b5b6000610814858286016106c6565b9250506020610825858286016106c6565b9150509250929050565b610838816109db565b82525050565b60006108498261098a565b6108538185610995565b9350610863818560208601610a20565b61086c81610b57565b840191505092915050565b60006108828261098a565b61088c81856109a6565b935061089c818560208601610a20565b80840191505092915050565b6108b1816109d1565b82525050565b60006108c38284610877565b915081905092915050565b60006020820190506108e3600083018461082f565b92915050565b60006020820190506108fe60008301846108a8565b92915050565b600060408201905061091960008301856108a8565b818103602083015261092b818461083e565b90509392505050565b600061093e61094f565b905061094a8282610a85565b919050565b6000604051905090565b600067ffffffffffffffff82111561097457610973610b14565b5b61097d82610b57565b9050602081019050919050565b600081519050919050565b600082825260208201905092915050565b600081905092915050565b600073ffffffffffffffffffffffffffffffffffffffff82169050919050565b6000819050919050565b60006109e6826109ed565b9050919050565b60006109f8826109ff565b9050919050565b6000610a0a826109b1565b9050919050565b82818337600083830152505050565b60005b83811015610a3e578082015181840152602081019050610a23565b83811115610a4d576000848401525b50505050565b60006002820490506001821680610a6b57607f821691505b60208210811415610a7f57610a7e610ab6565b5b50919050565b610a8e82610b57565b810181811067ffffffffffffffff82111715610aad57610aac610b14565b5b80604052505050565b7f4e487b7100000000000000000000000000000000000000000000000000000000600052602260045260246000fd5b7f4e487b7100000000000000000000000000000000000000000000000000000000600052603260045260246000fd5b7f4e487b7100000000000000000000000000000000000000000000000000000000600052604160045260246000fd5b600080fd5b600080fd5b600080fd5b600080fd5b6000601f19601f8301169050919050565b610b71816109d1565b8114610b7c57600080fd5b5056fe608060405234801561001057600080fd5b50610771806100206000396000f3fe608060405234801561001057600080fd5b50600436106100575760003560e01c80632e64cec11461005c5780636057361d1461007a5780636f760f41146100965780638bab8dd5146100b25780639e7a13ad146100e2575b600080fd5b610064610113565b604051610071919061052a565b60405180910390f35b610094600480360381019061008f919061046d565b61011c565b005b6100b060048036038101906100ab9190610411565b610126565b005b6100cc60048036038101906100c791906103c8565b6101b6565b6040516100d9919061052a565b60405180910390f35b6100fc60048036038101906100f7919061046d565b6101e4565b60405161010a929190610545565b60405180910390f35b60008054905090565b8060008190555050565b6002604051806040016040528083815260200184815250908060018154018082558091505060019003906000526020600020906002020160009091909190915060008201518160000155602082015181600101908051906020019061018c9291906102a0565b505050806003836040516101a09190610513565b9081526020016040518091039020819055505050565b6003818051602081018201805184825260208301602085012081835280955050505050506000915090505481565b600281815481106101f457600080fd5b906000526020600020906002020160009150905080600001549080600101805461021d9061063e565b80601f01602080910402602001604051908101604052809291908181526020018280546102499061063e565b80156102965780601f1061026b57610100808354040283529160200191610296565b820191906000526020600020905b81548152906001019060200180831161027957829003601f168201915b5050505050905082565b8280546102ac9061063e565b90600052602060002090601f0160209004810192826102ce5760008555610315565b82601f106102e757805160ff1916838001178555610315565b82800160010185558215610315579182015b828111156103145782518255916020019190600101906102f9565b5b5090506103229190610326565b5090565b5b8082111561033f576000816000905550600101610327565b5090565b60006103566103518461059a565b610575565b90508281526020810184848401111561037257610371610704565b5b61037d8482856105fc565b509392505050565b600082601f83011261039a576103996106ff565b5b81356103aa848260208601610343565b91505092915050565b6000813590506103c281610724565b92915050565b6000602082840312156103de576103dd61070e565b5b600082013567ffffffffffffffff8111156103fc576103fb610709565b5b61040884828501610385565b91505092915050565b600080604083850312156104285761042761070e565b5b600083013567ffffffffffffffff81111561044657610445610709565b5b61045285828601610385565b9250506020610463858286016103b3565b9150509250929050565b6000602082840312156104835761048261070e565b5b6000610491848285016103b3565b91505092915050565b60006104a5826105cb565b6104af81856105d6565b93506104bf81856020860161060b565b6104c881610713565b840191505092915050565b60006104de826105cb565b6104e881856105e7565b93506104f881856020860161060b565b80840191505092915050565b61050d816105f2565b82525050565b600061051f82846104d3565b915081905092915050565b600060208201905061053f6000830184610504565b92915050565b600060408201905061055a6000830185610504565b818103602083015261056c818461049a565b90509392505050565b600061057f610590565b905061058b8282610670565b919050565b6000604051905090565b600067ffffffffffffffff8211156105b5576105b46106d0565b5b6105be82610713565b9050602081019050919050565b600081519050919050565b600082825260208201905092915050565b600081905092915050565b6000819050919050565b82818337600083830152505050565b60005b8381101561062957808201518184015260208101905061060e565b83811115610638576000848401525b50505050565b6000600282049050600182168061065657607f821691505b6020821081141561066a576106696106a1565b5b50919050565b61067982610713565b810181811067ffffffffffffffff82111715610698576106976106d0565b5b80604052505050565b7f4e487b7100000000000000000000000000000000000000000000000000000000600052602260045260246000fd5b7f4e487b7100000000000000000000000000000000000000000000000000000000600052604160045260246000fd5b600080fd5b600080fd5b600080fd5b600080fd5b6000601f19601f8301169050919050565b61072d816105f2565b811461073857600080fd5b5056fea2646970667358221220352561974e28f944ff46c7ff800298da9e89ea7c7460bd92685014f24cd8d28764736f6c63430008070033a26469706673582212202eb7884779bb610407ecb4c9bf376befdb3127d42b06b2c9028fcf973e9df6af64736f6c63430008070033",
					"opcodes": "PUSH1 0x80 PUSH1 0x40 MSTORE CALLVALUE DUP1 ISZERO PUSH2 0x10 JUMPI PUSH1 0x0 DUP1 REVERT JUMPDEST POP PUSH2 0x1346 DUP1 PUSH2 0x20 PUSH1 0x0 CODECOPY PUSH1 0x0 RETURN INVALID PUSH1 0x80 PUSH1 0x40 MSTORE CALLVALUE DUP1 ISZERO PUSH2 0x10 JUMPI PUSH1 0x0 DUP1 REVERT JUMPDEST POP PUSH1 0x4 CALLDATASIZE LT PUSH2 0x93 JUMPI PUSH1 0x0 CALLDATALOAD PUSH1 0xE0 SHR DUP1 PUSH4 0x64591BF1 GT PUSH2 0x66 JUMPI DUP1 PUSH4 0x64591BF1 EQ PUSH2 0xF8 JUMPI DUP1 PUSH4 0x6F760F41 EQ PUSH2 0x128 JUMPI DUP1 PUSH4 0x8BAB8DD5 EQ PUSH2 0x144 JUMPI DUP1 PUSH4 0x9E7A13AD EQ PUSH2 0x174 JUMPI DUP1 PUSH4 0xC5F19C20 EQ PUSH2 0x1A5 JUMPI PUSH2 0x93 JUMP JUMPDEST DUP1 PUSH4 0x1563700F EQ PUSH2 0x98 JUMPI DUP1 PUSH4 0x1DDA6541 EQ PUSH2 0xB4 JUMPI DUP1 PUSH4 0x2E64CEC1 EQ PUSH2 0xBE JUMPI DUP1 PUSH4 0x6057361D EQ PUSH2 0xDC JUMPI JUMPDEST PUSH1 0x0 DUP1 REVERT JUMPDEST PUSH2 0xB2 PUSH1 0x4 DUP1 CALLDATASIZE SUB DUP2 ADD SWAP1 PUSH2 0xAD SWAP2 SWAP1 PUSH2 0x7EF JUMP JUMPDEST PUSH2 0x1D5 JUMP JUMPDEST STOP JUMPDEST PUSH2 0xBC PUSH2 0x282 JUMP JUMPDEST STOP JUMPDEST PUSH2 0xC6 PUSH2 0x315 JUMP JUMPDEST PUSH1 0x40 MLOAD PUSH2 0xD3 SWAP2 SWAP1 PUSH2 0x8E9 JUMP JUMPDEST PUSH1 0x40 MLOAD DUP1 SWAP2 SUB SWAP1 RETURN JUMPDEST PUSH2 0xF6 PUSH1 0x4 DUP1 CALLDATASIZE SUB DUP2 ADD SWAP1 PUSH2 0xF1 SWAP2 SWAP1 PUSH2 0x795 JUMP JUMPDEST PUSH2 0x31E JUMP JUMPDEST STOP JUMPDEST PUSH2 0x112 PUSH1 0x4 DUP1 CALLDATASIZE SUB DUP2 ADD SWAP1 PUSH2 0x10D SWAP2 SWAP1 PUSH2 0x795 JUMP JUMPDEST PUSH2 0x328 JUMP JUMPDEST PUSH1 0x40 MLOAD PUSH2 0x11F SWAP2 SWAP1 PUSH2 0x8CE JUMP JUMPDEST PUSH1 0x40 MLOAD DUP1 SWAP2 SUB SWAP1 RETURN JUMPDEST PUSH2 0x142 PUSH1 0x4 DUP1 CALLDATASIZE SUB DUP2 ADD SWAP1 PUSH2 0x13D SWAP2 SWAP1 PUSH2 0x739 JUMP JUMPDEST PUSH2 0x367 JUMP JUMPDEST STOP JUMPDEST PUSH2 0x15E PUSH1 0x4 DUP1 CALLDATASIZE SUB DUP2 ADD SWAP1 PUSH2 0x159 SWAP2 SWAP1 PUSH2 0x6F0 JUMP JUMPDEST PUSH2 0x3F7 JUMP JUMPDEST PUSH1 0x40 MLOAD PUSH2 0x16B SWAP2 SWAP1 PUSH2 0x8E9 JUMP JUMPDEST PUSH1 0x40 MLOAD DUP1 SWAP2 SUB SWAP1 RETURN JUMPDEST PUSH2 0x18E PUSH1 0x4 DUP1 CALLDATASIZE SUB DUP2 ADD SWAP1 PUSH2 0x189 SWAP2 SWAP1 PUSH2 0x795 JUMP JUMPDEST PUSH2 0x425 JUMP JUMPDEST PUSH1 0x40 MLOAD PUSH2 0x19C SWAP3 SWAP2 SWAP1 PUSH2 0x904 JUMP JUMPDEST PUSH1 0x40 MLOAD DUP1 SWAP2 SUB SWAP1 RETURN JUMPDEST PUSH2 0x1BF PUSH1 0x4 DUP1 CALLDATASIZE SUB DUP2 ADD SWAP1 PUSH2 0x1BA SWAP2 SWAP1 PUSH2 0x795 JUMP JUMPDEST PUSH2 0x4E1 JUMP JUMPDEST PUSH1 0x40 MLOAD PUSH2 0x1CC SWAP2 SWAP1 PUSH2 0x8E9 JUMP JUMPDEST PUSH1 0x40 MLOAD DUP1 SWAP2 SUB SWAP1 RETURN JUMPDEST PUSH1 0x4 DUP3 DUP2 SLOAD DUP2 LT PUSH2 0x1E9 JUMPI PUSH2 0x1E8 PUSH2 0xAE5 JUMP JUMPDEST JUMPDEST SWAP1 PUSH1 0x0 MSTORE PUSH1 0x20 PUSH1 0x0 KECCAK256 ADD PUSH1 0x0 SWAP1 SLOAD SWAP1 PUSH2 0x100 EXP SWAP1 DIV PUSH20 0xFFFFFFFFFFFFFFFFFFFFFFFFFFFFFFFFFFFFFFFF AND PUSH20 0xFFFFFFFFFFFFFFFFFFFFFFFFFFFFFFFFFFFFFFFF AND PUSH4 0x6057361D DUP3 PUSH1 0x40 MLOAD DUP3 PUSH4 0xFFFFFFFF AND PUSH1 0xE0 SHL DUP2 MSTORE PUSH1 0x4 ADD PUSH2 0x24C SWAP2 SWAP1 PUSH2 0x8E9 JUMP JUMPDEST PUSH1 0x0 PUSH1 0x40 MLOAD DUP1 DUP4 SUB DUP2 PUSH1 0x0 DUP8 DUP1 EXTCODESIZE ISZERO DUP1 ISZERO PUSH2 0x266 JUMPI PUSH1 0x0 DUP1 REVERT JUMPDEST POP GAS CALL ISZERO DUP1 ISZERO PUSH2 0x27A JUMPI RETURNDATASIZE PUSH1 0x0 DUP1 RETURNDATACOPY RETURNDATASIZE PUSH1 0x0 REVERT JUMPDEST POP POP POP POP POP POP JUMP JUMPDEST PUSH1 0x0 PUSH1 0x40 MLOAD PUSH2 0x290 SWAP1 PUSH2 0x5A6 JUMP JUMPDEST PUSH1 0x40 MLOAD DUP1 SWAP2 SUB SWAP1 PUSH1 0x0 CREATE DUP1 ISZERO DUP1 ISZERO PUSH2 0x2AC JUMPI RETURNDATASIZE PUSH1 0x0 DUP1 RETURNDATACOPY RETURNDATASIZE PUSH1 0x0 REVERT JUMPDEST POP SWAP1 POP PUSH1 0x4 DUP2 SWAP1 DUP1 PUSH1 0x1 DUP2 SLOAD ADD DUP1 DUP3 SSTORE DUP1 SWAP2 POP POP PUSH1 0x1 SWAP1 SUB SWAP1 PUSH1 0x0 MSTORE PUSH1 0x20 PUSH1 0x0 KECCAK256 ADD PUSH1 0x0 SWAP1 SWAP2 SWAP1 SWAP2 SWAP1 SWAP2 PUSH2 0x100 EXP DUP2 SLOAD DUP2 PUSH20 0xFFFFFFFFFFFFFFFFFFFFFFFFFFFFFFFFFFFFFFFF MUL NOT AND SWAP1 DUP4 PUSH20 0xFFFFFFFFFFFFFFFFFFFFFFFFFFFFFFFFFFFFFFFF AND MUL OR SWAP1 SSTORE POP POP JUMP JUMPDEST PUSH1 0x0 DUP1 SLOAD SWAP1 POP SWAP1 JUMP JUMPDEST DUP1 PUSH1 0x0 DUP2 SWAP1 SSTORE POP POP JUMP JUMPDEST PUSH1 0x4 DUP2 DUP2 SLOAD DUP2 LT PUSH2 0x338 JUMPI PUSH1 0x0 DUP1 REVERT JUMPDEST SWAP1 PUSH1 0x0 MSTORE PUSH1 0x20 PUSH1 0x0 KECCAK256 ADD PUSH1 0x0 SWAP2 POP SLOAD SWAP1 PUSH2 0x100 EXP SWAP1 DIV PUSH20 0xFFFFFFFFFFFFFFFFFFFFFFFFFFFFFFFFFFFFFFFF AND DUP2 JUMP JUMPDEST PUSH1 0x2 PUSH1 0x40 MLOAD DUP1 PUSH1 0x40 ADD PUSH1 0x40 MSTORE DUP1 DUP4 DUP2 MSTORE PUSH1 0x20 ADD DUP5 DUP2 MSTORE POP SWAP1 DUP1 PUSH1 0x1 DUP2 SLOAD ADD DUP1 DUP3 SSTORE DUP1 SWAP2 POP POP PUSH1 0x1 SWAP1 SUB SWAP1 PUSH1 0x0 MSTORE PUSH1 0x20 PUSH1 0x0 KECCAK256 SWAP1 PUSH1 0x2 MUL ADD PUSH1 0x0 SWAP1 SWAP2 SWAP1 SWAP2 SWAP1 SWAP2 POP PUSH1 0x0 DUP3 ADD MLOAD DUP2 PUSH1 0x0 ADD SSTORE PUSH1 0x20 DUP3 ADD MLOAD DUP2 PUSH1 0x1 ADD SWAP1 DUP1 MLOAD SWAP1 PUSH1 0x20 ADD SWAP1 PUSH2 0x3CD SWAP3 SWAP2 SWAP1 PUSH2 0x5B3 JUMP JUMPDEST POP POP POP DUP1 PUSH1 0x3 DUP4 PUSH1 0x40 MLOAD PUSH2 0x3E1 SWAP2 SWAP1 PUSH2 0x8B7 JUMP JUMPDEST SWAP1 DUP2 MSTORE PUSH1 0x20 ADD PUSH1 0x40 MLOAD DUP1 SWAP2 SUB SWAP1 KECCAK256 DUP2 SWAP1 SSTORE POP POP POP JUMP JUMPDEST PUSH1 0x3 DUP2 DUP1 MLOAD PUSH1 0x20 DUP2 ADD DUP3 ADD DUP1 MLOAD DUP5 DUP3 MSTORE PUSH1 0x20 DUP4 ADD PUSH1 0x20 DUP6 ADD KECCAK256 DUP2 DUP4 MSTORE DUP1 SWAP6 POP POP POP POP POP POP PUSH1 0x0 SWAP2 POP SWAP1 POP SLOAD DUP2 JUMP JUMPDEST PUSH1 0x2 DUP2 DUP2 SLOAD DUP2 LT PUSH2 0x435 JUMPI PUSH1 0x0 DUP1 REVERT JUMPDEST SWAP1 PUSH1 0x0 MSTORE PUSH1 0x20 PUSH1 0x0 KECCAK256 SWAP1 PUSH1 0x2 MUL ADD PUSH1 0x0 SWAP2 POP SWAP1 POP DUP1 PUSH1 0x0 ADD SLOAD SWAP1 DUP1 PUSH1 0x1 ADD DUP1 SLOAD PUSH2 0x45E SWAP1 PUSH2 0xA53 JUMP JUMPDEST DUP1 PUSH1 0x1F ADD PUSH1 0x20 DUP1 SWAP2 DIV MUL PUSH1 0x20 ADD PUSH1 0x40 MLOAD SWAP1 DUP2 ADD PUSH1 0x40 MSTORE DUP1 SWAP3 SWAP2 SWAP1 DUP2 DUP2 MSTORE PUSH1 0x20 ADD DUP3 DUP1 SLOAD PUSH2 0x48A SWAP1 PUSH2 0xA53 JUMP JUMPDEST DUP1 ISZERO PUSH2 0x4D7 JUMPI DUP1 PUSH1 0x1F LT PUSH2 0x4AC JUMPI PUSH2 0x100 DUP1 DUP4 SLOAD DIV MUL DUP4 MSTORE SWAP2 PUSH1 0x20 ADD SWAP2 PUSH2 0x4D7 JUMP JUMPDEST DUP3 ADD SWAP2 SWAP1 PUSH1 0x0 MSTORE PUSH1 0x20 PUSH1 0x0 KECCAK256 SWAP1 JUMPDEST DUP2 SLOAD DUP2 MSTORE SWAP1 PUSH1 0x1 ADD SWAP1 PUSH1 0x20 ADD DUP1 DUP4 GT PUSH2 0x4BA JUMPI DUP3 SWAP1 SUB PUSH1 0x1F AND DUP3 ADD SWAP2 JUMPDEST POP POP POP POP POP SWAP1 POP DUP3 JUMP JUMPDEST PUSH1 0x0 PUSH1 0x4 DUP3 DUP2 SLOAD DUP2 LT PUSH2 0x4F7 JUMPI PUSH2 0x4F6 PUSH2 0xAE5 JUMP JUMPDEST JUMPDEST SWAP1 PUSH1 0x0 MSTORE PUSH1 0x20 PUSH1 0x0 KECCAK256 ADD PUSH1 0x0 SWAP1 SLOAD SWAP1 PUSH2 0x100 EXP SWAP1 DIV PUSH20 0xFFFFFFFFFFFFFFFFFFFFFFFFFFFFFFFFFFFFFFFF AND PUSH20 0xFFFFFFFFFFFFFFFFFFFFFFFFFFFFFFFFFFFFFFFF AND PUSH4 0x2E64CEC1 PUSH1 0x40 MLOAD DUP2 PUSH4 0xFFFFFFFF AND PUSH1 0xE0 SHL DUP2 MSTORE PUSH1 0x4 ADD PUSH1 0x20 PUSH1 0x40 MLOAD DUP1 DUP4 SUB DUP2 DUP7 DUP1 EXTCODESIZE ISZERO DUP1 ISZERO PUSH2 0x567 JUMPI PUSH1 0x0 DUP1 REVERT JUMPDEST POP GAS STATICCALL ISZERO DUP1 ISZERO PUSH2 0x57B JUMPI RETURNDATASIZE PUSH1 0x0 DUP1 RETURNDATACOPY RETURNDATASIZE PUSH1 0x0 REVERT JUMPDEST POP POP POP POP PUSH1 0x40 MLOAD RETURNDATASIZE PUSH1 0x1F NOT PUSH1 0x1F DUP3 ADD AND DUP3 ADD DUP1 PUSH1 0x40 MSTORE POP DUP2 ADD SWAP1 PUSH2 0x59F SWAP2 SWAP1 PUSH2 0x7C2 JUMP JUMPDEST SWAP1 POP SWAP2 SWAP1 POP JUMP JUMPDEST PUSH2 0x791 DUP1 PUSH2 0xB80 DUP4 CODECOPY ADD SWAP1 JUMP JUMPDEST DUP3 DUP1 SLOAD PUSH2 0x5BF SWAP1 PUSH2 0xA53 JUMP JUMPDEST SWAP1 PUSH1 0x0 MSTORE PUSH1 0x20 PUSH1 0x0 KECCAK256 SWAP1 PUSH1 0x1F ADD PUSH1 0x20 SWAP1 DIV DUP2 ADD SWAP3 DUP3 PUSH2 0x5E1 JUMPI PUSH1 0x0 DUP6 SSTORE PUSH2 0x628 JUMP JUMPDEST DUP3 PUSH1 0x1F LT PUSH2 0x5FA JUMPI DUP1 MLOAD PUSH1 0xFF NOT AND DUP4 DUP1 ADD OR DUP6 SSTORE PUSH2 0x628 JUMP JUMPDEST DUP3 DUP1 ADD PUSH1 0x1 ADD DUP6 SSTORE DUP3 ISZERO PUSH2 0x628 JUMPI SWAP2 DUP3 ADD JUMPDEST DUP3 DUP2 GT ISZERO PUSH2 0x627 JUMPI DUP3 MLOAD DUP3 SSTORE SWAP2 PUSH1 0x20 ADD SWAP2 SWAP1 PUSH1 0x1 ADD SWAP1 PUSH2 0x60C JUMP JUMPDEST JUMPDEST POP SWAP1 POP PUSH2 0x635 SWAP2 SWAP1 PUSH2 0x639 JUMP JUMPDEST POP SWAP1 JUMP JUMPDEST JUMPDEST DUP1 DUP3 GT ISZERO PUSH2 0x652 JUMPI PUSH1 0x0 DUP2 PUSH1 0x0 SWAP1 SSTORE POP PUSH1 0x1 ADD PUSH2 0x63A JUMP JUMPDEST POP SWAP1 JUMP JUMPDEST PUSH1 0x0 PUSH2 0x669 PUSH2 0x664 DUP5 PUSH2 0x959 JUMP JUMPDEST PUSH2 0x934 JUMP JUMPDEST SWAP1 POP DUP3 DUP2 MSTORE PUSH1 0x20 DUP2 ADD DUP5 DUP5 DUP5 ADD GT ISZERO PUSH2 0x685 JUMPI PUSH2 0x684 PUSH2 0xB48 JUMP JUMPDEST JUMPDEST PUSH2 0x690 DUP5 DUP3 DUP6 PUSH2 0xA11 JUMP JUMPDEST POP SWAP4 SWAP3 POP POP POP JUMP JUMPDEST PUSH1 0x0 DUP3 PUSH1 0x1F DUP4 ADD SLT PUSH2 0x6AD JUMPI PUSH2 0x6AC PUSH2 0xB43 JUMP JUMPDEST JUMPDEST DUP2 CALLDATALOAD PUSH2 0x6BD DUP5 DUP3 PUSH1 0x20 DUP7 ADD PUSH2 0x656 JUMP JUMPDEST SWAP2 POP POP SWAP3 SWAP2 POP POP JUMP JUMPDEST PUSH1 0x0 DUP2 CALLDATALOAD SWAP1 POP PUSH2 0x6D5 DUP2 PUSH2 0xB68 JUMP JUMPDEST SWAP3 SWAP2 POP POP JUMP JUMPDEST PUSH1 0x0 DUP2 MLOAD SWAP1 POP PUSH2 0x6EA DUP2 PUSH2 0xB68 JUMP JUMPDEST SWAP3 SWAP2 POP POP JUMP JUMPDEST PUSH1 0x0 PUSH1 0x20 DUP3 DUP5 SUB SLT ISZERO PUSH2 0x706 JUMPI PUSH2 0x705 PUSH2 0xB52 JUMP JUMPDEST JUMPDEST PUSH1 0x0 DUP3 ADD CALLDATALOAD PUSH8 0xFFFFFFFFFFFFFFFF DUP2 GT ISZERO PUSH2 0x724 JUMPI PUSH2 0x723 PUSH2 0xB4D JUMP JUMPDEST JUMPDEST PUSH2 0x730 DUP5 DUP3 DUP6 ADD PUSH2 0x698 JUMP JUMPDEST SWAP2 POP POP SWAP3 SWAP2 POP POP JUMP JUMPDEST PUSH1 0x0 DUP1 PUSH1 0x40 DUP4 DUP6 SUB SLT ISZERO PUSH2 0x750 JUMPI PUSH2 0x74F PUSH2 0xB52 JUMP JUMPDEST JUMPDEST PUSH1 0x0 DUP4 ADD CALLDATALOAD PUSH8 0xFFFFFFFFFFFFFFFF DUP2 GT ISZERO PUSH2 0x76E JUMPI PUSH2 0x76D PUSH2 0xB4D JUMP JUMPDEST JUMPDEST PUSH2 0x77A DUP6 DUP3 DUP7 ADD PUSH2 0x698 JUMP JUMPDEST SWAP3 POP POP PUSH1 0x20 PUSH2 0x78B DUP6 DUP3 DUP7 ADD PUSH2 0x6C6 JUMP JUMPDEST SWAP2 POP POP SWAP3 POP SWAP3 SWAP1 POP JUMP JUMPDEST PUSH1 0x0 PUSH1 0x20 DUP3 DUP5 SUB SLT ISZERO PUSH2 0x7AB JUMPI PUSH2 0x7AA PUSH2 0xB52 JUMP JUMPDEST JUMPDEST PUSH1 0x0 PUSH2 0x7B9 DUP5 DUP3 DUP6 ADD PUSH2 0x6C6 JUMP JUMPDEST SWAP2 POP POP SWAP3 SWAP2 POP POP JUMP JUMPDEST PUSH1 0x0 PUSH1 0x20 DUP3 DUP5 SUB SLT ISZERO PUSH2 0x7D8 JUMPI PUSH2 0x7D7 PUSH2 0xB52 JUMP JUMPDEST JUMPDEST PUSH1 0x0 PUSH2 0x7E6 DUP5 DUP3 DUP6 ADD PUSH2 0x6DB JUMP JUMPDEST SWAP2 POP POP SWAP3 SWAP2 POP POP JUMP JUMPDEST PUSH1 0x0 DUP1 PUSH1 0x40 DUP4 DUP6 SUB SLT ISZERO PUSH2 0x806 JUMPI PUSH2 0x805 PUSH2 0xB52 JUMP JUMPDEST JUMPDEST PUSH1 0x0 PUSH2 0x814 DUP6 DUP3 DUP7 ADD PUSH2 0x6C6 JUMP JUMPDEST SWAP3 POP POP PUSH1 0x20 PUSH2 0x825 DUP6 DUP3 DUP7 ADD PUSH2 0x6C6 JUMP JUMPDEST SWAP2 POP POP SWAP3 POP SWAP3 SWAP1 POP JUMP JUMPDEST PUSH2 0x838 DUP2 PUSH2 0x9DB JUMP JUMPDEST DUP3 MSTORE POP POP JUMP JUMPDEST PUSH1 0x0 PUSH2 0x849 DUP3 PUSH2 0x98A JUMP JUMPDEST PUSH2 0x853 DUP2 DUP6 PUSH2 0x995 JUMP JUMPDEST SWAP4 POP PUSH2 0x863 DUP2 DUP6 PUSH1 0x20 DUP7 ADD PUSH2 0xA20 JUMP JUMPDEST PUSH2 0x86C DUP2 PUSH2 0xB57 JUMP JUMPDEST DUP5 ADD SWAP2 POP POP SWAP3 SWAP2 POP POP JUMP JUMPDEST PUSH1 0x0 PUSH2 0x882 DUP3 PUSH2 0x98A JUMP JUMPDEST PUSH2 0x88C DUP2 DUP6 PUSH2 0x9A6 JUMP JUMPDEST SWAP4 POP PUSH2 0x89C DUP2 DUP6 PUSH1 0x20 DUP7 ADD PUSH2 0xA20 JUMP JUMPDEST DUP1 DUP5 ADD SWAP2 POP POP SWAP3 SWAP2 POP POP JUMP JUMPDEST PUSH2 0x8B1 DUP2 PUSH2 0x9D1 JUMP JUMPDEST DUP3 MSTORE POP POP JUMP JUMPDEST PUSH1 0x0 PUSH2 0x8C3 DUP3 DUP5 PUSH2 0x877 JUMP JUMPDEST SWAP2 POP DUP2 SWAP1 POP SWAP3 SWAP2 POP POP JUMP JUMPDEST PUSH1 0x0 PUSH1 0x20 DUP3 ADD SWAP1 POP PUSH2 0x8E3 PUSH1 0x0 DUP4 ADD DUP5 PUSH2 0x82F JUMP JUMPDEST SWAP3 SWAP2 POP POP JUMP JUMPDEST PUSH1 0x0 PUSH1 0x20 DUP3 ADD SWAP1 POP PUSH2 0x8FE PUSH1 0x0 DUP4 ADD DUP5 PUSH2 0x8A8 JUMP JUMPDEST SWAP3 SWAP2 POP POP JUMP JUMPDEST PUSH1 0x0 PUSH1 0x40 DUP3 ADD SWAP1 POP PUSH2 0x919 PUSH1 0x0 DUP4 ADD DUP6 PUSH2 0x8A8 JUMP JUMPDEST DUP2 DUP2 SUB PUSH1 0x20 DUP4 ADD MSTORE PUSH2 0x92B DUP2 DUP5 PUSH2 0x83E JUMP JUMPDEST SWAP1 POP SWAP4 SWAP3 POP POP POP JUMP JUMPDEST PUSH1 0x0 PUSH2 0x93E PUSH2 0x94F JUMP JUMPDEST SWAP1 POP PUSH2 0x94A DUP3 DUP3 PUSH2 0xA85 JUMP JUMPDEST SWAP2 SWAP1 POP JUMP JUMPDEST PUSH1 0x0 PUSH1 0x40 MLOAD SWAP1 POP SWAP1 JUMP JUMPDEST PUSH1 0x0 PUSH8 0xFFFFFFFFFFFFFFFF DUP3 GT ISZERO PUSH2 0x974 JUMPI PUSH2 0x973 PUSH2 0xB14 JUMP JUMPDEST JUMPDEST PUSH2 0x97D DUP3 PUSH2 0xB57 JUMP JUMPDEST SWAP1 POP PUSH1 0x20 DUP2 ADD SWAP1 POP SWAP2 SWAP1 POP JUMP JUMPDEST PUSH1 0x0 DUP2 MLOAD SWAP1 POP SWAP2 SWAP1 POP JUMP JUMPDEST PUSH1 0x0 DUP3 DUP3 MSTORE PUSH1 0x20 DUP3 ADD SWAP1 POP SWAP3 SWAP2 POP POP JUMP JUMPDEST PUSH1 0x0 DUP2 SWAP1 POP SWAP3 SWAP2 POP POP JUMP JUMPDEST PUSH1 0x0 PUSH20 0xFFFFFFFFFFFFFFFFFFFFFFFFFFFFFFFFFFFFFFFF DUP3 AND SWAP1 POP SWAP2 SWAP1 POP JUMP JUMPDEST PUSH1 0x0 DUP2 SWAP1 POP SWAP2 SWAP1 POP JUMP JUMPDEST PUSH1 0x0 PUSH2 0x9E6 DUP3 PUSH2 0x9ED JUMP JUMPDEST SWAP1 POP SWAP2 SWAP1 POP JUMP JUMPDEST PUSH1 0x0 PUSH2 0x9F8 DUP3 PUSH2 0x9FF JUMP JUMPDEST SWAP1 POP SWAP2 SWAP1 POP JUMP JUMPDEST PUSH1 0x0 PUSH2 0xA0A DUP3 PUSH2 0x9B1 JUMP JUMPDEST SWAP1 POP SWAP2 SWAP1 POP JUMP JUMPDEST DUP3 DUP2 DUP4 CALLDATACOPY PUSH1 0x0 DUP4 DUP4 ADD MSTORE POP POP POP JUMP JUMPDEST PUSH1 0x0 JUMPDEST DUP4 DUP2 LT ISZERO PUSH2 0xA3E JUMPI DUP1 DUP3 ADD MLOAD DUP2 DUP5 ADD MSTORE PUSH1 0x20 DUP2 ADD SWAP1 POP PUSH2 0xA23 JUMP JUMPDEST DUP4 DUP2 GT ISZERO PUSH2 0xA4D JUMPI PUSH1 0x0 DUP5 DUP5 ADD MSTORE JUMPDEST POP POP POP POP JUMP JUMPDEST PUSH1 0x0 PUSH1 0x2 DUP3 DIV SWAP1 POP PUSH1 0x1 DUP3 AND DUP1 PUSH2 0xA6B JUMPI PUSH1 0x7F DUP3 AND SWAP2 POP JUMPDEST PUSH1 0x20 DUP3 LT DUP2 EQ ISZERO PUSH2 0xA7F JUMPI PUSH2 0xA7E PUSH2 0xAB6 JUMP JUMPDEST JUMPDEST POP SWAP2 SWAP1 POP JUMP JUMPDEST PUSH2 0xA8E DUP3 PUSH2 0xB57 JUMP JUMPDEST DUP2 ADD DUP2 DUP2 LT PUSH8 0xFFFFFFFFFFFFFFFF DUP3 GT OR ISZERO PUSH2 0xAAD JUMPI PUSH2 0xAAC PUSH2 0xB14 JUMP JUMPDEST JUMPDEST DUP1 PUSH1 0x40 MSTORE POP POP POP JUMP JUMPDEST PUSH32 0x4E487B7100000000000000000000000000000000000000000000000000000000 PUSH1 0x0 MSTORE PUSH1 0x22 PUSH1 0x4 MSTORE PUSH1 0x24 PUSH1 0x0 REVERT JUMPDEST PUSH32 0x4E487B7100000000000000000000000000000000000000000000000000000000 PUSH1 0x0 MSTORE PUSH1 0x32 PUSH1 0x4 MSTORE PUSH1 0x24 PUSH1 0x0 REVERT JUMPDEST PUSH32 0x4E487B7100000000000000000000000000000000000000000000000000000000 PUSH1 0x0 MSTORE PUSH1 0x41 PUSH1 0x4 MSTORE PUSH1 0x24 PUSH1 0x0 REVERT JUMPDEST PUSH1 0x0 DUP1 REVERT JUMPDEST PUSH1 0x0 DUP1 REVERT JUMPDEST PUSH1 0x0 DUP1 REVERT JUMPDEST PUSH1 0x0 DUP1 REVERT JUMPDEST PUSH1 0x0 PUSH1 0x1F NOT PUSH1 0x1F DUP4 ADD AND SWAP1 POP SWAP2 SWAP1 POP JUMP JUMPDEST PUSH2 0xB71 DUP2 PUSH2 0x9D1 JUMP JUMPDEST DUP2 EQ PUSH2 0xB7C JUMPI PUSH1 0x0 DUP1 REVERT JUMPDEST POP JUMP INVALID PUSH1 0x80 PUSH1 0x40 MSTORE CALLVALUE DUP1 ISZERO PUSH2 0x10 JUMPI PUSH1 0x0 DUP1 REVERT JUMPDEST POP PUSH2 0x771 DUP1 PUSH2 0x20 PUSH1 0x0 CODECOPY PUSH1 0x0 RETURN INVALID PUSH1 0x80 PUSH1 0x40 MSTORE CALLVALUE DUP1 ISZERO PUSH2 0x10 JUMPI PUSH1 0x0 DUP1 REVERT JUMPDEST POP PUSH1 0x4 CALLDATASIZE LT PUSH2 0x57 JUMPI PUSH1 0x0 CALLDATALOAD PUSH1 0xE0 SHR DUP1 PUSH4 0x2E64CEC1 EQ PUSH2 0x5C JUMPI DUP1 PUSH4 0x6057361D EQ PUSH2 0x7A JUMPI DUP1 PUSH4 0x6F760F41 EQ PUSH2 0x96 JUMPI DUP1 PUSH4 0x8BAB8DD5 EQ PUSH2 0xB2 JUMPI DUP1 PUSH4 0x9E7A13AD EQ PUSH2 0xE2 JUMPI JUMPDEST PUSH1 0x0 DUP1 REVERT JUMPDEST PUSH2 0x64 PUSH2 0x113 JUMP JUMPDEST PUSH1 0x40 MLOAD PUSH2 0x71 SWAP2 SWAP1 PUSH2 0x52A JUMP JUMPDEST PUSH1 0x40 MLOAD DUP1 SWAP2 SUB SWAP1 RETURN JUMPDEST PUSH2 0x94 PUSH1 0x4 DUP1 CALLDATASIZE SUB DUP2 ADD SWAP1 PUSH2 0x8F SWAP2 SWAP1 PUSH2 0x46D JUMP JUMPDEST PUSH2 0x11C JUMP JUMPDEST STOP JUMPDEST PUSH2 0xB0 PUSH1 0x4 DUP1 CALLDATASIZE SUB DUP2 ADD SWAP1 PUSH2 0xAB SWAP2 SWAP1 PUSH2 0x411 JUMP JUMPDEST PUSH2 0x126 JUMP JUMPDEST STOP JUMPDEST PUSH2 0xCC PUSH1 0x4 DUP1 CALLDATASIZE SUB DUP2 ADD SWAP1 PUSH2 0xC7 SWAP2 SWAP1 PUSH2 0x3C8 JUMP JUMPDEST PUSH2 0x1B6 JUMP JUMPDEST PUSH1 0x40 MLOAD PUSH2 0xD9 SWAP2 SWAP1 PUSH2 0x52A JUMP JUMPDEST PUSH1 0x40 MLOAD DUP1 SWAP2 SUB SWAP1 RETURN JUMPDEST PUSH2 0xFC PUSH1 0x4 DUP1 CALLDATASIZE SUB DUP2 ADD SWAP1 PUSH2 0xF7 SWAP2 SWAP1 PUSH2 0x46D JUMP JUMPDEST PUSH2 0x1E4 JUMP JUMPDEST PUSH1 0x40 MLOAD PUSH2 0x10A SWAP3 SWAP2 SWAP1 PUSH2 0x545 JUMP JUMPDEST PUSH1 0x40 MLOAD DUP1 SWAP2 SUB SWAP1 RETURN JUMPDEST PUSH1 0x0 DUP1 SLOAD SWAP1 POP SWAP1 JUMP JUMPDEST DUP1 PUSH1 0x0 DUP2 SWAP1 SSTORE POP POP JUMP JUMPDEST PUSH1 0x2 PUSH1 0x40 MLOAD DUP1 PUSH1 0x40 ADD PUSH1 0x40 MSTORE DUP1 DUP4 DUP2 MSTORE PUSH1 0x20 ADD DUP5 DUP2 MSTORE POP SWAP1 DUP1 PUSH1 0x1 DUP2 SLOAD ADD DUP1 DUP3 SSTORE DUP1 SWAP2 POP POP PUSH1 0x1 SWAP1 SUB SWAP1 PUSH1 0x0 MSTORE PUSH1 0x20 PUSH1 0x0 KECCAK256 SWAP1 PUSH1 0x2 MUL ADD PUSH1 0x0 SWAP1 SWAP2 SWAP1 SWAP2 SWAP1 SWAP2 POP PUSH1 0x0 DUP3 ADD MLOAD DUP2 PUSH1 0x0 ADD SSTORE PUSH1 0x20 DUP3 ADD MLOAD DUP2 PUSH1 0x1 ADD SWAP1 DUP1 MLOAD SWAP1 PUSH1 0x20 ADD SWAP1 PUSH2 0x18C SWAP3 SWAP2 SWAP1 PUSH2 0x2A0 JUMP JUMPDEST POP POP POP DUP1 PUSH1 0x3 DUP4 PUSH1 0x40 MLOAD PUSH2 0x1A0 SWAP2 SWAP1 PUSH2 0x513 JUMP JUMPDEST SWAP1 DUP2 MSTORE PUSH1 0x20 ADD PUSH1 0x40 MLOAD DUP1 SWAP2 SUB SWAP1 KECCAK256 DUP2 SWAP1 SSTORE POP POP POP JUMP JUMPDEST PUSH1 0x3 DUP2 DUP1 MLOAD PUSH1 0x20 DUP2 ADD DUP3 ADD DUP1 MLOAD DUP5 DUP3 MSTORE PUSH1 0x20 DUP4 ADD PUSH1 0x20 DUP6 ADD KECCAK256 DUP2 DUP4 MSTORE DUP1 SWAP6 POP POP POP POP POP POP PUSH1 0x0 SWAP2 POP SWAP1 POP SLOAD DUP2 JUMP JUMPDEST PUSH1 0x2 DUP2 DUP2 SLOAD DUP2 LT PUSH2 0x1F4 JUMPI PUSH1 0x0 DUP1 REVERT JUMPDEST SWAP1 PUSH1 0x0 MSTORE PUSH1 0x20 PUSH1 0x0 KECCAK256 SWAP1 PUSH1 0x2 MUL ADD PUSH1 0x0 SWAP2 POP SWAP1 POP DUP1 PUSH1 0x0 ADD SLOAD SWAP1 DUP1 PUSH1 0x1 ADD DUP1 SLOAD PUSH2 0x21D SWAP1 PUSH2 0x63E JUMP JUMPDEST DUP1 PUSH1 0x1F ADD PUSH1 0x20 DUP1 SWAP2 DIV MUL PUSH1 0x20 ADD PUSH1 0x40 MLOAD SWAP1 DUP2 ADD PUSH1 0x40 MSTORE DUP1 SWAP3 SWAP2 SWAP1 DUP2 DUP2 MSTORE PUSH1 0x20 ADD DUP3 DUP1 SLOAD PUSH2 0x249 SWAP1 PUSH2 0x63E JUMP JUMPDEST DUP1 ISZERO PUSH2 0x296 JUMPI DUP1 PUSH1 0x1F LT PUSH2 0x26B JUMPI PUSH2 0x100 DUP1 DUP4 SLOAD DIV MUL DUP4 MSTORE SWAP2 PUSH1 0x20 ADD SWAP2 PUSH2 0x296 JUMP JUMPDEST DUP3 ADD SWAP2 SWAP1 PUSH1 0x0 MSTORE PUSH1 0x20 PUSH1 0x0 KECCAK256 SWAP1 JUMPDEST DUP2 SLOAD DUP2 MSTORE SWAP1 PUSH1 0x1 ADD SWAP1 PUSH1 0x20 ADD DUP1 DUP4 GT PUSH2 0x279 JUMPI DUP3 SWAP1 SUB PUSH1 0x1F AND DUP3 ADD SWAP2 JUMPDEST POP POP POP POP POP SWAP1 POP DUP3 JUMP JUMPDEST DUP3 DUP1 SLOAD PUSH2 0x2AC SWAP1 PUSH2 0x63E JUMP JUMPDEST SWAP1 PUSH1 0x0 MSTORE PUSH1 0x20 PUSH1 0x0 KECCAK256 SWAP1 PUSH1 0x1F ADD PUSH1 0x20 SWAP1 DIV DUP2 ADD SWAP3 DUP3 PUSH2 0x2CE JUMPI PUSH1 0x0 DUP6 SSTORE PUSH2 0x315 JUMP JUMPDEST DUP3 PUSH1 0x1F LT PUSH2 0x2E7 JUMPI DUP1 MLOAD PUSH1 0xFF NOT AND DUP4 DUP1 ADD OR DUP6 SSTORE PUSH2 0x315 JUMP JUMPDEST DUP3 DUP1 ADD PUSH1 0x1 ADD DUP6 SSTORE DUP3 ISZERO PUSH2 0x315 JUMPI SWAP2 DUP3 ADD JUMPDEST DUP3 DUP2 GT ISZERO PUSH2 0x314 JUMPI DUP3 MLOAD DUP3 SSTORE SWAP2 PUSH1 0x20 ADD SWAP2 SWAP1 PUSH1 0x1 ADD SWAP1 PUSH2 0x2F9 JUMP JUMPDEST JUMPDEST POP SWAP1 POP PUSH2 0x322 SWAP2 SWAP1 PUSH2 0x326 JUMP JUMPDEST POP SWAP1 JUMP JUMPDEST JUMPDEST DUP1 DUP3 GT ISZERO PUSH2 0x33F JUMPI PUSH1 0x0 DUP2 PUSH1 0x0 SWAP1 SSTORE POP PUSH1 0x1 ADD PUSH2 0x327 JUMP JUMPDEST POP SWAP1 JUMP JUMPDEST PUSH1 0x0 PUSH2 0x356 PUSH2 0x351 DUP5 PUSH2 0x59A JUMP JUMPDEST PUSH2 0x575 JUMP JUMPDEST SWAP1 POP DUP3 DUP2 MSTORE PUSH1 0x20 DUP2 ADD DUP5 DUP5 DUP5 ADD GT ISZERO PUSH2 0x372 JUMPI PUSH2 0x371 PUSH2 0x704 JUMP JUMPDEST JUMPDEST PUSH2 0x37D DUP5 DUP3 DUP6 PUSH2 0x5FC JUMP JUMPDEST POP SWAP4 SWAP3 POP POP POP JUMP JUMPDEST PUSH1 0x0 DUP3 PUSH1 0x1F DUP4 ADD SLT PUSH2 0x39A JUMPI PUSH2 0x399 PUSH2 0x6FF JUMP JUMPDEST JUMPDEST DUP2 CALLDATALOAD PUSH2 0x3AA DUP5 DUP3 PUSH1 0x20 DUP7 ADD PUSH2 0x343 JUMP JUMPDEST SWAP2 POP POP SWAP3 SWAP2 POP POP JUMP JUMPDEST PUSH1 0x0 DUP2 CALLDATALOAD SWAP1 POP PUSH2 0x3C2 DUP2 PUSH2 0x724 JUMP JUMPDEST SWAP3 SWAP2 POP POP JUMP JUMPDEST PUSH1 0x0 PUSH1 0x20 DUP3 DUP5 SUB SLT ISZERO PUSH2 0x3DE JUMPI PUSH2 0x3DD PUSH2 0x70E JUMP JUMPDEST JUMPDEST PUSH1 0x0 DUP3 ADD CALLDATALOAD PUSH8 0xFFFFFFFFFFFFFFFF DUP2 GT ISZERO PUSH2 0x3FC JUMPI PUSH2 0x3FB PUSH2 0x709 JUMP JUMPDEST JUMPDEST PUSH2 0x408 DUP5 DUP3 DUP6 ADD PUSH2 0x385 JUMP JUMPDEST SWAP2 POP POP SWAP3 SWAP2 POP POP JUMP JUMPDEST PUSH1 0x0 DUP1 PUSH1 0x40 DUP4 DUP6 SUB SLT ISZERO PUSH2 0x428 JUMPI PUSH2 0x427 PUSH2 0x70E JUMP JUMPDEST JUMPDEST PUSH1 0x0 DUP4 ADD CALLDATALOAD PUSH8 0xFFFFFFFFFFFFFFFF DUP2 GT ISZERO PUSH2 0x446 JUMPI PUSH2 0x445 PUSH2 0x709 JUMP JUMPDEST JUMPDEST PUSH2 0x452 DUP6 DUP3 DUP7 ADD PUSH2 0x385 JUMP JUMPDEST SWAP3 POP POP PUSH1 0x20 PUSH2 0x463 DUP6 DUP3 DUP7 ADD PUSH2 0x3B3 JUMP JUMPDEST SWAP2 POP POP SWAP3 POP SWAP3 SWAP1 POP JUMP JUMPDEST PUSH1 0x0 PUSH1 0x20 DUP3 DUP5 SUB SLT ISZERO PUSH2 0x483 JUMPI PUSH2 0x482 PUSH2 0x70E JUMP JUMPDEST JUMPDEST PUSH1 0x0 PUSH2 0x491 DUP5 DUP3 DUP6 ADD PUSH2 0x3B3 JUMP JUMPDEST SWAP2 POP POP SWAP3 SWAP2 POP POP JUMP JUMPDEST PUSH1 0x0 PUSH2 0x4A5 DUP3 PUSH2 0x5CB JUMP JUMPDEST PUSH2 0x4AF DUP2 DUP6 PUSH2 0x5D6 JUMP JUMPDEST SWAP4 POP PUSH2 0x4BF DUP2 DUP6 PUSH1 0x20 DUP7 ADD PUSH2 0x60B JUMP JUMPDEST PUSH2 0x4C8 DUP2 PUSH2 0x713 JUMP JUMPDEST DUP5 ADD SWAP2 POP POP SWAP3 SWAP2 POP POP JUMP JUMPDEST PUSH1 0x0 PUSH2 0x4DE DUP3 PUSH2 0x5CB JUMP JUMPDEST PUSH2 0x4E8 DUP2 DUP6 PUSH2 0x5E7 JUMP JUMPDEST SWAP4 POP PUSH2 0x4F8 DUP2 DUP6 PUSH1 0x20 DUP7 ADD PUSH2 0x60B JUMP JUMPDEST DUP1 DUP5 ADD SWAP2 POP POP SWAP3 SWAP2 POP POP JUMP JUMPDEST PUSH2 0x50D DUP2 PUSH2 0x5F2 JUMP JUMPDEST DUP3 MSTORE POP POP JUMP JUMPDEST PUSH1 0x0 PUSH2 0x51F DUP3 DUP5 PUSH2 0x4D3 JUMP JUMPDEST SWAP2 POP DUP2 SWAP1 POP SWAP3 SWAP2 POP POP JUMP JUMPDEST PUSH1 0x0 PUSH1 0x20 DUP3 ADD SWAP1 POP PUSH2 0x53F PUSH1 0x0 DUP4 ADD DUP5 PUSH2 0x504 JUMP JUMPDEST SWAP3 SWAP2 POP POP JUMP JUMPDEST PUSH1 0x0 PUSH1 0x40 DUP3 ADD SWAP1 POP PUSH2 0x55A PUSH1 0x0 DUP4 ADD DUP6 PUSH2 0x504 JUMP JUMPDEST DUP2 DUP2 SUB PUSH1 0x20 DUP4 ADD MSTORE PUSH2 0x56C DUP2 DUP5 PUSH2 0x49A JUMP JUMPDEST SWAP1 POP SWAP4 SWAP3 POP POP POP JUMP JUMPDEST PUSH1 0x0 PUSH2 0x57F PUSH2 0x590 JUMP JUMPDEST SWAP1 POP PUSH2 0x58B DUP3 DUP3 PUSH2 0x670 JUMP JUMPDEST SWAP2 SWAP1 POP JUMP JUMPDEST PUSH1 0x0 PUSH1 0x40 MLOAD SWAP1 POP SWAP1 JUMP JUMPDEST PUSH1 0x0 PUSH8 0xFFFFFFFFFFFFFFFF DUP3 GT ISZERO PUSH2 0x5B5 JUMPI PUSH2 0x5B4 PUSH2 0x6D0 JUMP JUMPDEST JUMPDEST PUSH2 0x5BE DUP3 PUSH2 0x713 JUMP JUMPDEST SWAP1 POP PUSH1 0x20 DUP2 ADD SWAP1 POP SWAP2 SWAP1 POP JUMP JUMPDEST PUSH1 0x0 DUP2 MLOAD SWAP1 POP SWAP2 SWAP1 POP JUMP JUMPDEST PUSH1 0x0 DUP3 DUP3 MSTORE PUSH1 0x20 DUP3 ADD SWAP1 POP SWAP3 SWAP2 POP POP JUMP JUMPDEST PUSH1 0x0 DUP2 SWAP1 POP SWAP3 SWAP2 POP POP JUMP JUMPDEST PUSH1 0x0 DUP2 SWAP1 POP SWAP2 SWAP1 POP JUMP JUMPDEST DUP3 DUP2 DUP4 CALLDATACOPY PUSH1 0x0 DUP4 DUP4 ADD MSTORE POP POP POP JUMP JUMPDEST PUSH1 0x0 JUMPDEST DUP4 DUP2 LT ISZERO PUSH2 0x629 JUMPI DUP1 DUP3 ADD MLOAD DUP2 DUP5 ADD MSTORE PUSH1 0x20 DUP2 ADD SWAP1 POP PUSH2 0x60E JUMP JUMPDEST DUP4 DUP2 GT ISZERO PUSH2 0x638 JUMPI PUSH1 0x0 DUP5 DUP5 ADD MSTORE JUMPDEST POP POP POP POP JUMP JUMPDEST PUSH1 0x0 PUSH1 0x2 DUP3 DIV SWAP1 POP PUSH1 0x1 DUP3 AND DUP1 PUSH2 0x656 JUMPI PUSH1 0x7F DUP3 AND SWAP2 POP JUMPDEST PUSH1 0x20 DUP3 LT DUP2 EQ ISZERO PUSH2 0x66A JUMPI PUSH2 0x669 PUSH2 0x6A1 JUMP JUMPDEST JUMPDEST POP SWAP2 SWAP1 POP JUMP JUMPDEST PUSH2 0x679 DUP3 PUSH2 0x713 JUMP JUMPDEST DUP2 ADD DUP2 DUP2 LT PUSH8 0xFFFFFFFFFFFFFFFF DUP3 GT OR ISZERO PUSH2 0x698 JUMPI PUSH2 0x697 PUSH2 0x6D0 JUMP JUMPDEST JUMPDEST DUP1 PUSH1 0x40 MSTORE POP POP POP JUMP JUMPDEST PUSH32 0x4E487B7100000000000000000000000000000000000000000000000000000000 PUSH1 0x0 MSTORE PUSH1 0x22 PUSH1 0x4 MSTORE PUSH1 0x24 PUSH1 0x0 REVERT JUMPDEST PUSH32 0x4E487B7100000000000000000000000000000000000000000000000000000000 PUSH1 0x0 MSTORE PUSH1 0x41 PUSH1 0x4 MSTORE PUSH1 0x24 PUSH1 0x0 REVERT JUMPDEST PUSH1 0x0 DUP1 REVERT JUMPDEST PUSH1 0x0 DUP1 REVERT JUMPDEST PUSH1 0x0 DUP1 REVERT JUMPDEST PUSH1 0x0 DUP1 REVERT JUMPDEST PUSH1 0x0 PUSH1 0x1F NOT PUSH1 0x1F DUP4 ADD AND SWAP1 POP SWAP2 SWAP1 POP JUMP JUMPDEST PUSH2 0x72D DUP2 PUSH2 0x5F2 JUMP JUMPDEST DUP2 EQ PUSH2 0x738 JUMPI PUSH1 0x0 DUP1 REVERT JUMPDEST POP JUMP INVALID LOG2 PUSH5 0x6970667358 0x22 SLT KECCAK256 CALLDATALOAD 0x25 PUSH2 0x974E 0x28 0xF9 DIFFICULTY SELFDESTRUCT CHAINID 0xC7 SELFDESTRUCT DUP1 MUL SWAP9 0xDA SWAP15 DUP10 0xEA PUSH29 0x7460BD92685014F24CD8D28764736F6C63430008070033A26469706673 PC 0x22 SLT KECCAK256 0x2E 0xB7 DUP9 SELFBALANCE PUSH26 0xBB610407ECB4C9BF376BEFDB3127D42B06B2C9028FCF973E9DF6 0xAF PUSH5 0x736F6C6343 STOP ADDMOD SMOD STOP CALLER "
				},
				"gasEstimates": {
					"creation": {
						"codeDepositCost": "986800",
						"executionCost": "1027",
						"totalCost": "987827"
					},
					"external": {
						"addPerson(string,uint256)": "infinite",
						"createSimpleStorageContract()": "infinite",
						"nameToFavoriteNumber(string)": "infinite",
						"people(uint256)": "infinite",
						"retrieve()": "2482",
						"sfGet(uint256)": "infinite",
						"sfStore(uint256,uint256)": "infinite",
						"simpleStorageArray(uint256)": "5042",
						"store(uint256)": "22587"
					}
				},
				"methodIdentifiers": {
					"addPerson(string,uint256)": "6f760f41",
					"createSimpleStorageContract()": "1dda6541",
					"nameToFavoriteNumber(string)": "8bab8dd5",
					"people(uint256)": "9e7a13ad",
					"retrieve()": "2e64cec1",
					"sfGet(uint256)": "c5f19c20",
					"sfStore(uint256,uint256)": "1563700f",
					"simpleStorageArray(uint256)": "64591bf1",
					"store(uint256)": "6057361d"
				}
			},
			"storageLayout": {
				"storage": [
					{
						"astId": 3,
						"contract": "contracts/StorageFactory.sol:StorageFactory",
						"label": "favoriteNumber",
						"offset": 0,
						"slot": "0",
						"type": "t_uint256"
					},
					{
						"astId": 5,
						"contract": "contracts/StorageFactory.sol:StorageFactory",
						"label": "favoriteBool",
						"offset": 0,
						"slot": "1",
						"type": "t_bool"
					},
					{
						"astId": 14,
						"contract": "contracts/StorageFactory.sol:StorageFactory",
						"label": "people",
						"offset": 0,
						"slot": "2",
						"type": "t_array(t_struct(People)10_storage)dyn_storage"
					},
					{
						"astId": 18,
						"contract": "contracts/StorageFactory.sol:StorageFactory",
						"label": "nameToFavoriteNumber",
						"offset": 0,
						"slot": "3",
						"type": "t_mapping(t_string_memory_ptr,t_uint256)"
					},
					{
						"astId": 69,
						"contract": "contracts/StorageFactory.sol:StorageFactory",
						"label": "simpleStorageArray",
						"offset": 0,
						"slot": "4",
						"type": "t_array(t_contract(SimpleStorage)60)dyn_storage"
					}
				],
				"types": {
					"t_array(t_contract(SimpleStorage)60)dyn_storage": {
						"base": "t_contract(SimpleStorage)60",
						"encoding": "dynamic_array",
						"label": "contract SimpleStorage[]",
						"numberOfBytes": "32"
					},
					"t_array(t_struct(People)10_storage)dyn_storage": {
						"base": "t_struct(People)10_storage",
						"encoding": "dynamic_array",
						"label": "struct SimpleStorage.People[]",
						"numberOfBytes": "32"
					},
					"t_bool": {
						"encoding": "inplace",
						"label": "bool",
						"numberOfBytes": "1"
					},
					"t_contract(SimpleStorage)60": {
						"encoding": "inplace",
						"label": "contract SimpleStorage",
						"numberOfBytes": "20"
					},
					"t_mapping(t_string_memory_ptr,t_uint256)": {
						"encoding": "mapping",
						"key": "t_string_memory_ptr",
						"label": "mapping(string => uint256)",
						"numberOfBytes": "32",
						"value": "t_uint256"
					},
					"t_string_memory_ptr": {
						"encoding": "bytes",
						"label": "string",
						"numberOfBytes": "32"
					},
					"t_string_storage": {
						"encoding": "bytes",
						"label": "string",
						"numberOfBytes": "32"
					},
					"t_struct(People)10_storage": {
						"encoding": "inplace",
						"label": "struct SimpleStorage.People",
						"members": [
							{
								"astId": 7,
								"contract": "contracts/StorageFactory.sol:StorageFactory",
								"label": "favoriteNumber",
								"offset": 0,
								"slot": "0",
								"type": "t_uint256"
							},
							{
								"astId": 9,
								"contract": "contracts/StorageFactory.sol:StorageFactory",
								"label": "name",
								"offset": 0,
								"slot": "1",
								"type": "t_string_storage"
							}
						],
						"numberOfBytes": "64"
					},
					"t_uint256": {
						"encoding": "inplace",
						"label": "uint256",
						"numberOfBytes": "32"
					}
				}
			},
			"userdoc": {
				"kind": "user",
				"methods": {},
				"version": 1
			}
		}
	}
}