{
	"contracts/FundMe.sol": {
		"FundMe": {
			"abi": [
				{
					"inputs": [
						{
							"internalType": "address",
							"name": "",
							"type": "address"
						}
					],
					"name": "addressToAmountFunded",
					"outputs": [
						{
							"internalType": "uint256",
							"name": "",
							"type": "uint256"
						}
					],
					"stateMutability": "view",
					"type": "function"
				},
				{
					"inputs": [],
					"name": "fund",
					"outputs": [],
					"stateMutability": "payable",
					"type": "function"
				},
				{
					"inputs": [
						{
							"internalType": "uint256",
							"name": "ethAmount",
							"type": "uint256"
						}
					],
					"name": "getConversionRate",
					"outputs": [
						{
							"internalType": "uint256",
							"name": "",
							"type": "uint256"
						}
					],
					"stateMutability": "view",
					"type": "function"
				},
				{
					"inputs": [],
					"name": "getPrice",
					"outputs": [
						{
							"internalType": "uint256",
							"name": "",
							"type": "uint256"
						}
					],
					"stateMutability": "view",
					"type": "function"
				},
				{
					"inputs": [],
					"name": "getVersion",
					"outputs": [
						{
							"internalType": "uint256",
							"name": "",
							"type": "uint256"
						}
					],
					"stateMutability": "view",
					"type": "function"
				}
			],
			"devdoc": {
				"kind": "dev",
				"methods": {},
				"version": 1
			},
			"evm": {
				"assembly": "    /* \"contracts/FundMe.sol\":224:1341  contract FundMe {\r... */\n  mstore(0x40, 0x80)\n  callvalue\n  dup1\n  iszero\n  tag_1\n  jumpi\n  0x00\n  dup1\n  revert\ntag_1:\n  pop\n  dataSize(sub_0)\n  dup1\n  dataOffset(sub_0)\n  0x00\n  codecopy\n  0x00\n  return\nstop\n\nsub_0: assembly {\n        /* \"contracts/FundMe.sol\":224:1341  contract FundMe {\r... */\n      mstore(0x40, 0x80)\n      jumpi(tag_1, lt(calldatasize, 0x04))\n      shr(0xe0, calldataload(0x00))\n      dup1\n      0x0d8e6e2c\n      eq\n      tag_2\n      jumpi\n      dup1\n      0x3e47d6f3\n      eq\n      tag_3\n      jumpi\n      dup1\n      0x6e5b6b28\n      eq\n      tag_4\n      jumpi\n      dup1\n      0x98d5fdca\n      eq\n      tag_5\n      jumpi\n      dup1\n      0xb60d4288\n      eq\n      tag_6\n      jumpi\n    tag_1:\n      0x00\n      dup1\n      revert\n        /* \"contracts/FundMe.sol\":651:848  function getVersion() public view returns (uint256) {\r... */\n    tag_2:\n      callvalue\n      dup1\n      iszero\n      tag_7\n      jumpi\n      0x00\n      dup1\n      revert\n    tag_7:\n      pop\n      tag_8\n      tag_9\n      jump\t// in\n    tag_8:\n      mload(0x40)\n      tag_10\n      swap2\n      swap1\n      tag_11\n      jump\t// in\n    tag_10:\n      mload(0x40)\n      dup1\n      swap2\n      sub\n      swap1\n      return\n        /* \"contracts/FundMe.sol\":287:343  mapping(address => uint256) public addressToAmountFunded */\n    tag_3:\n      callvalue\n      dup1\n      iszero\n      tag_12\n      jumpi\n      0x00\n      dup1\n      revert\n    tag_12:\n      pop\n      tag_13\n      0x04\n      dup1\n      calldatasize\n      sub\n      dup2\n      add\n      swap1\n      tag_14\n      swap2\n      swap1\n      tag_15\n      jump\t// in\n    tag_14:\n      tag_16\n      jump\t// in\n    tag_13:\n      mload(0x40)\n      tag_17\n      swap2\n      swap1\n      tag_11\n      jump\t// in\n    tag_17:\n      mload(0x40)\n      dup1\n      swap2\n      sub\n      swap1\n      return\n        /* \"contracts/FundMe.sol\":1137:1336  function getConversionRate(uint256 ethAmount) public view returns (uint256){\r... */\n    tag_4:\n      callvalue\n      dup1\n      iszero\n      tag_18\n      jumpi\n      0x00\n      dup1\n      revert\n    tag_18:\n      pop\n      tag_19\n      0x04\n      dup1\n      calldatasize\n      sub\n      dup2\n      add\n      swap1\n      tag_20\n      swap2\n      swap1\n      tag_21\n      jump\t// in\n    tag_20:\n      tag_22\n      jump\t// in\n    tag_19:\n      mload(0x40)\n      tag_23\n      swap2\n      swap1\n      tag_11\n      jump\t// in\n    tag_23:\n      mload(0x40)\n      dup1\n      swap2\n      sub\n      swap1\n      return\n        /* \"contracts/FundMe.sol\":854:1113  function getPrice() public view returns(uint256){\r... */\n    tag_5:\n      callvalue\n      dup1\n      iszero\n      tag_24\n      jumpi\n      0x00\n      dup1\n      revert\n    tag_24:\n      pop\n      tag_25\n      tag_26\n      jump\t// in\n    tag_25:\n      mload(0x40)\n      tag_27\n      swap2\n      swap1\n      tag_11\n      jump\t// in\n    tag_27:\n      mload(0x40)\n      dup1\n      swap2\n      sub\n      swap1\n      return\n        /* \"contracts/FundMe.sol\":350:645  function fund() public payable {\r... */\n    tag_6:\n      tag_28\n      tag_29\n      jump\t// in\n    tag_28:\n      stop\n        /* \"contracts/FundMe.sol\":651:848  function getVersion() public view returns (uint256) {\r... */\n    tag_9:\n        /* \"contracts/FundMe.sol\":694:701  uint256 */\n      0x00\n        /* \"contracts/FundMe.sol\":710:741  AggregatorV3Interface priceFeed */\n      dup1\n        /* \"contracts/FundMe.sol\":766:808  0x5f4eC3Df9cbd43714FE2740f5E3616155c5b8419 */\n      0x5f4ec3df9cbd43714fe2740f5e3616155c5b8419\n        /* \"contracts/FundMe.sol\":710:809  AggregatorV3Interface priceFeed = AggregatorV3Interface(0x5f4eC3Df9cbd43714FE2740f5E3616155c5b8419) */\n      swap1\n      pop\n        /* \"contracts/FundMe.sol\":823:832  priceFeed */\n      dup1\n        /* \"contracts/FundMe.sol\":823:840  priceFeed.version */\n      0xffffffffffffffffffffffffffffffffffffffff\n      and\n      0x54fd4d50\n        /* \"contracts/FundMe.sol\":823:842  priceFeed.version() */\n      mload(0x40)\n      dup2\n      0xffffffff\n      and\n      0xe0\n      shl\n      dup2\n      mstore\n      0x04\n      add\n      0x20\n      mload(0x40)\n      dup1\n      dup4\n      sub\n      dup2\n      dup7\n      dup1\n      extcodesize\n      iszero\n      dup1\n      iszero\n      tag_31\n      jumpi\n      0x00\n      dup1\n      revert\n    tag_31:\n      pop\n      gas\n      staticcall\n      iszero\n      dup1\n      iszero\n      tag_33\n      jumpi\n      returndatasize\n      0x00\n      dup1\n      returndatacopy\n      revert(0x00, returndatasize)\n    tag_33:\n      pop\n      pop\n      pop\n      pop\n      mload(0x40)\n      returndatasize\n      not(0x1f)\n      0x1f\n      dup3\n      add\n      and\n      dup3\n      add\n      dup1\n      0x40\n      mstore\n      pop\n      dup2\n      add\n      swap1\n      tag_34\n      swap2\n      swap1\n      tag_35\n      jump\t// in\n    tag_34:\n        /* \"contracts/FundMe.sol\":816:842  return priceFeed.version() */\n      swap2\n      pop\n      pop\n        /* \"contracts/FundMe.sol\":651:848  function getVersion() public view returns (uint256) {\r... */\n      swap1\n      jump\t// out\n        /* \"contracts/FundMe.sol\":287:343  mapping(address => uint256) public addressToAmountFunded */\n    tag_16:\n      mstore(0x20, 0x00)\n      dup1\n      0x00\n      mstore\n      keccak256(0x00, 0x40)\n      0x00\n      swap2\n      pop\n      swap1\n      pop\n      sload\n      dup2\n      jump\t// out\n        /* \"contracts/FundMe.sol\":1137:1336  function getConversionRate(uint256 ethAmount) public view returns (uint256){\r... */\n    tag_22:\n        /* \"contracts/FundMe.sol\":1204:1211  uint256 */\n      0x00\n        /* \"contracts/FundMe.sol\":1219:1235  uint256 ethPrice */\n      dup1\n        /* \"contracts/FundMe.sol\":1238:1248  getPrice() */\n      tag_37\n        /* \"contracts/FundMe.sol\":1238:1246  getPrice */\n      tag_26\n        /* \"contracts/FundMe.sol\":1238:1248  getPrice() */\n      jump\t// in\n    tag_37:\n        /* \"contracts/FundMe.sol\":1219:1248  uint256 ethPrice = getPrice() */\n      swap1\n      pop\n        /* \"contracts/FundMe.sol\":1255:1277  uint256 ethAmountInUsd */\n      0x00\n        /* \"contracts/FundMe.sol\":1292:1301  ethAmount */\n      dup4\n        /* \"contracts/FundMe.sol\":1281:1289  ethPrice */\n      dup3\n        /* \"contracts/FundMe.sol\":1281:1301  ethPrice * ethAmount */\n      tag_38\n      swap2\n      swap1\n      tag_39\n      jump\t// in\n    tag_38:\n        /* \"contracts/FundMe.sol\":1255:1302  uint256 ethAmountInUsd = (ethPrice * ethAmount) */\n      swap1\n      pop\n        /* \"contracts/FundMe.sol\":1316:1330  ethAmountInUsd */\n      dup1\n        /* \"contracts/FundMe.sol\":1309:1330  return ethAmountInUsd */\n      swap3\n      pop\n      pop\n      pop\n        /* \"contracts/FundMe.sol\":1137:1336  function getConversionRate(uint256 ethAmount) public view returns (uint256){\r... */\n      swap2\n      swap1\n      pop\n      jump\t// out\n        /* \"contracts/FundMe.sol\":854:1113  function getPrice() public view returns(uint256){\r... */\n    tag_26:\n        /* \"contracts/FundMe.sol\":894:901  uint256 */\n      0x00\n        /* \"contracts/FundMe.sol\":909:940  AggregatorV3Interface priceFeed */\n      dup1\n        /* \"contracts/FundMe.sol\":965:1007  0x5f4eC3Df9cbd43714FE2740f5E3616155c5b8419 */\n      0x5f4ec3df9cbd43714fe2740f5e3616155c5b8419\n        /* \"contracts/FundMe.sol\":909:1008  AggregatorV3Interface priceFeed = AggregatorV3Interface(0x5f4eC3Df9cbd43714FE2740f5E3616155c5b8419) */\n      swap1\n      pop\n        /* \"contracts/FundMe.sol\":1017:1030  int256 answer */\n      0x00\n        /* \"contracts/FundMe.sol\":1037:1046  priceFeed */\n      dup2\n        /* \"contracts/FundMe.sol\":1037:1062  priceFeed.latestRoundData */\n      0xffffffffffffffffffffffffffffffffffffffff\n      and\n      0xfeaf968c\n        /* \"contracts/FundMe.sol\":1037:1064  priceFeed.latestRoundData() */\n      mload(0x40)\n      dup2\n      0xffffffff\n      and\n      0xe0\n      shl\n      dup2\n      mstore\n      0x04\n      add\n      0xa0\n      mload(0x40)\n      dup1\n      dup4\n      sub\n      dup2\n      dup7\n      dup1\n      extcodesize\n      iszero\n      dup1\n      iszero\n      tag_41\n      jumpi\n      0x00\n      dup1\n      revert\n    tag_41:\n      pop\n      gas\n      staticcall\n      iszero\n      dup1\n      iszero\n      tag_43\n      jumpi\n      returndatasize\n      0x00\n      dup1\n      returndatacopy\n      revert(0x00, returndatasize)\n    tag_43:\n      pop\n      pop\n      pop\n      pop\n      mload(0x40)\n      returndatasize\n      not(0x1f)\n      0x1f\n      dup3\n      add\n      and\n      dup3\n      add\n      dup1\n      0x40\n      mstore\n      pop\n      dup2\n      add\n      swap1\n      tag_44\n      swap2\n      swap1\n      tag_45\n      jump\t// in\n    tag_44:\n        /* \"contracts/FundMe.sol\":1015:1064  (,int256 answer,,,) = priceFeed.latestRoundData() */\n      pop\n      pop\n      pop\n      swap2\n      pop\n      pop\n        /* \"contracts/FundMe.sol\":1095:1106  10000000000 */\n      0x02540be400\n        /* \"contracts/FundMe.sol\":1086:1106  answer = 10000000000 */\n      swap1\n      pop\n      dup1\n        /* \"contracts/FundMe.sol\":1071:1107  return uint256(answer = 10000000000) */\n      swap3\n      pop\n      pop\n      pop\n        /* \"contracts/FundMe.sol\":854:1113  function getPrice() public view returns(uint256){\r... */\n      swap1\n      jump\t// out\n        /* \"contracts/FundMe.sol\":350:645  function fund() public payable {\r... */\n    tag_29:\n        /* \"contracts/FundMe.sol\":400:418  uint256 mimimumUSD */\n      0x00\n        /* \"contracts/FundMe.sol\":421:433  50 * 10 * 18 */\n      0x2328\n        /* \"contracts/FundMe.sol\":400:433  uint256 mimimumUSD = 50 * 10 * 18 */\n      swap1\n      pop\n        /* \"contracts/FundMe.sol\":500:510  mimimumUSD */\n      dup1\n        /* \"contracts/FundMe.sol\":468:496  getConversionRate(msg.value) */\n      tag_47\n        /* \"contracts/FundMe.sol\":486:495  msg.value */\n      callvalue\n        /* \"contracts/FundMe.sol\":468:485  getConversionRate */\n      tag_22\n        /* \"contracts/FundMe.sol\":468:496  getConversionRate(msg.value) */\n      jump\t// in\n    tag_47:\n        /* \"contracts/FundMe.sol\":468:510  getConversionRate(msg.value) >= mimimumUSD */\n      lt\n      iszero\n        /* \"contracts/FundMe.sol\":460:541  require(getConversionRate(msg.value) >= mimimumUSD, \"You need to spend more ETH\") */\n      tag_48\n      jumpi\n      mload(0x40)\n      0x08c379a000000000000000000000000000000000000000000000000000000000\n      dup2\n      mstore\n      0x04\n      add\n      tag_49\n      swap1\n      tag_50\n      jump\t// in\n    tag_49:\n      mload(0x40)\n      dup1\n      swap2\n      sub\n      swap1\n      revert\n    tag_48:\n        /* \"contracts/FundMe.sol\":585:594  msg.value */\n      callvalue\n        /* \"contracts/FundMe.sol\":548:569  addressToAmountFunded */\n      0x00\n        /* \"contracts/FundMe.sol\":548:581  addressToAmountFunded[msg.sender] */\n      dup1\n        /* \"contracts/FundMe.sol\":570:580  msg.sender */\n      caller\n        /* \"contracts/FundMe.sol\":548:581  addressToAmountFunded[msg.sender] */\n      0xffffffffffffffffffffffffffffffffffffffff\n      and\n      0xffffffffffffffffffffffffffffffffffffffff\n      and\n      dup2\n      mstore\n      0x20\n      add\n      swap1\n      dup2\n      mstore\n      0x20\n      add\n      0x00\n      keccak256\n      0x00\n        /* \"contracts/FundMe.sol\":548:594  addressToAmountFunded[msg.sender] += msg.value */\n      dup3\n      dup3\n      sload\n      tag_51\n      swap2\n      swap1\n      tag_52\n      jump\t// in\n    tag_51:\n      swap3\n      pop\n      pop\n      dup2\n      swap1\n      sstore\n      pop\n        /* \"contracts/FundMe.sol\":381:645  {\r... */\n      pop\n        /* \"contracts/FundMe.sol\":350:645  function fund() public payable {\r... */\n      jump\t// out\n        /* \"#utility.yul\":7:146   */\n    tag_54:\n        /* \"#utility.yul\":53:58   */\n      0x00\n        /* \"#utility.yul\":91:97   */\n      dup2\n        /* \"#utility.yul\":78:98   */\n      calldataload\n        /* \"#utility.yul\":69:98   */\n      swap1\n      pop\n        /* \"#utility.yul\":107:140   */\n      tag_56\n        /* \"#utility.yul\":134:139   */\n      dup2\n        /* \"#utility.yul\":107:140   */\n      tag_57\n      jump\t// in\n    tag_56:\n        /* \"#utility.yul\":7:146   */\n      swap3\n      swap2\n      pop\n      pop\n      jump\t// out\n        /* \"#utility.yul\":152:293   */\n    tag_58:\n        /* \"#utility.yul\":208:213   */\n      0x00\n        /* \"#utility.yul\":239:245   */\n      dup2\n        /* \"#utility.yul\":233:246   */\n      mload\n        /* \"#utility.yul\":224:246   */\n      swap1\n      pop\n        /* \"#utility.yul\":255:287   */\n      tag_60\n        /* \"#utility.yul\":281:286   */\n      dup2\n        /* \"#utility.yul\":255:287   */\n      tag_61\n      jump\t// in\n    tag_60:\n        /* \"#utility.yul\":152:293   */\n      swap3\n      swap2\n      pop\n      pop\n      jump\t// out\n        /* \"#utility.yul\":299:438   */\n    tag_62:\n        /* \"#utility.yul\":345:350   */\n      0x00\n        /* \"#utility.yul\":383:389   */\n      dup2\n        /* \"#utility.yul\":370:390   */\n      calldataload\n        /* \"#utility.yul\":361:390   */\n      swap1\n      pop\n        /* \"#utility.yul\":399:432   */\n      tag_64\n        /* \"#utility.yul\":426:431   */\n      dup2\n        /* \"#utility.yul\":399:432   */\n      tag_65\n      jump\t// in\n    tag_64:\n        /* \"#utility.yul\":299:438   */\n      swap3\n      swap2\n      pop\n      pop\n      jump\t// out\n        /* \"#utility.yul\":444:587   */\n    tag_66:\n        /* \"#utility.yul\":501:506   */\n      0x00\n        /* \"#utility.yul\":532:538   */\n      dup2\n        /* \"#utility.yul\":526:539   */\n      mload\n        /* \"#utility.yul\":517:539   */\n      swap1\n      pop\n        /* \"#utility.yul\":548:581   */\n      tag_68\n        /* \"#utility.yul\":575:580   */\n      dup2\n        /* \"#utility.yul\":548:581   */\n      tag_65\n      jump\t// in\n    tag_68:\n        /* \"#utility.yul\":444:587   */\n      swap3\n      swap2\n      pop\n      pop\n      jump\t// out\n        /* \"#utility.yul\":593:734   */\n    tag_69:\n        /* \"#utility.yul\":649:654   */\n      0x00\n        /* \"#utility.yul\":680:686   */\n      dup2\n        /* \"#utility.yul\":674:687   */\n      mload\n        /* \"#utility.yul\":665:687   */\n      swap1\n      pop\n        /* \"#utility.yul\":696:728   */\n      tag_71\n        /* \"#utility.yul\":722:727   */\n      dup2\n        /* \"#utility.yul\":696:728   */\n      tag_72\n      jump\t// in\n    tag_71:\n        /* \"#utility.yul\":593:734   */\n      swap3\n      swap2\n      pop\n      pop\n      jump\t// out\n        /* \"#utility.yul\":740:1069   */\n    tag_15:\n        /* \"#utility.yul\":799:805   */\n      0x00\n        /* \"#utility.yul\":848:850   */\n      0x20\n        /* \"#utility.yul\":836:845   */\n      dup3\n        /* \"#utility.yul\":827:834   */\n      dup5\n        /* \"#utility.yul\":823:846   */\n      sub\n        /* \"#utility.yul\":819:851   */\n      slt\n        /* \"#utility.yul\":816:935   */\n      iszero\n      tag_74\n      jumpi\n        /* \"#utility.yul\":854:933   */\n      tag_75\n      tag_76\n      jump\t// in\n    tag_75:\n        /* \"#utility.yul\":816:935   */\n    tag_74:\n        /* \"#utility.yul\":974:975   */\n      0x00\n        /* \"#utility.yul\":999:1052   */\n      tag_77\n        /* \"#utility.yul\":1044:1051   */\n      dup5\n        /* \"#utility.yul\":1035:1041   */\n      dup3\n        /* \"#utility.yul\":1024:1033   */\n      dup6\n        /* \"#utility.yul\":1020:1042   */\n      add\n        /* \"#utility.yul\":999:1052   */\n      tag_54\n      jump\t// in\n    tag_77:\n        /* \"#utility.yul\":989:1052   */\n      swap2\n      pop\n        /* \"#utility.yul\":945:1062   */\n      pop\n        /* \"#utility.yul\":740:1069   */\n      swap3\n      swap2\n      pop\n      pop\n      jump\t// out\n        /* \"#utility.yul\":1075:1404   */\n    tag_21:\n        /* \"#utility.yul\":1134:1140   */\n      0x00\n        /* \"#utility.yul\":1183:1185   */\n      0x20\n        /* \"#utility.yul\":1171:1180   */\n      dup3\n        /* \"#utility.yul\":1162:1169   */\n      dup5\n        /* \"#utility.yul\":1158:1181   */\n      sub\n        /* \"#utility.yul\":1154:1186   */\n      slt\n        /* \"#utility.yul\":1151:1270   */\n      iszero\n      tag_79\n      jumpi\n        /* \"#utility.yul\":1189:1268   */\n      tag_80\n      tag_76\n      jump\t// in\n    tag_80:\n        /* \"#utility.yul\":1151:1270   */\n    tag_79:\n        /* \"#utility.yul\":1309:1310   */\n      0x00\n        /* \"#utility.yul\":1334:1387   */\n      tag_81\n        /* \"#utility.yul\":1379:1386   */\n      dup5\n        /* \"#utility.yul\":1370:1376   */\n      dup3\n        /* \"#utility.yul\":1359:1368   */\n      dup6\n        /* \"#utility.yul\":1355:1377   */\n      add\n        /* \"#utility.yul\":1334:1387   */\n      tag_62\n      jump\t// in\n    tag_81:\n        /* \"#utility.yul\":1324:1387   */\n      swap2\n      pop\n        /* \"#utility.yul\":1280:1397   */\n      pop\n        /* \"#utility.yul\":1075:1404   */\n      swap3\n      swap2\n      pop\n      pop\n      jump\t// out\n        /* \"#utility.yul\":1410:1761   */\n    tag_35:\n        /* \"#utility.yul\":1480:1486   */\n      0x00\n        /* \"#utility.yul\":1529:1531   */\n      0x20\n        /* \"#utility.yul\":1517:1526   */\n      dup3\n        /* \"#utility.yul\":1508:1515   */\n      dup5\n        /* \"#utility.yul\":1504:1527   */\n      sub\n        /* \"#utility.yul\":1500:1532   */\n      slt\n        /* \"#utility.yul\":1497:1616   */\n      iszero\n      tag_83\n      jumpi\n        /* \"#utility.yul\":1535:1614   */\n      tag_84\n      tag_76\n      jump\t// in\n    tag_84:\n        /* \"#utility.yul\":1497:1616   */\n    tag_83:\n        /* \"#utility.yul\":1655:1656   */\n      0x00\n        /* \"#utility.yul\":1680:1744   */\n      tag_85\n        /* \"#utility.yul\":1736:1743   */\n      dup5\n        /* \"#utility.yul\":1727:1733   */\n      dup3\n        /* \"#utility.yul\":1716:1725   */\n      dup6\n        /* \"#utility.yul\":1712:1734   */\n      add\n        /* \"#utility.yul\":1680:1744   */\n      tag_66\n      jump\t// in\n    tag_85:\n        /* \"#utility.yul\":1670:1744   */\n      swap2\n      pop\n        /* \"#utility.yul\":1626:1754   */\n      pop\n        /* \"#utility.yul\":1410:1761   */\n      swap3\n      swap2\n      pop\n      pop\n      jump\t// out\n        /* \"#utility.yul\":1767:2738   */\n    tag_45:\n        /* \"#utility.yul\":1870:1876   */\n      0x00\n        /* \"#utility.yul\":1878:1884   */\n      dup1\n        /* \"#utility.yul\":1886:1892   */\n      0x00\n        /* \"#utility.yul\":1894:1900   */\n      dup1\n        /* \"#utility.yul\":1902:1908   */\n      0x00\n        /* \"#utility.yul\":1951:1954   */\n      0xa0\n        /* \"#utility.yul\":1939:1948   */\n      dup7\n        /* \"#utility.yul\":1930:1937   */\n      dup9\n        /* \"#utility.yul\":1926:1949   */\n      sub\n        /* \"#utility.yul\":1922:1955   */\n      slt\n        /* \"#utility.yul\":1919:2039   */\n      iszero\n      tag_87\n      jumpi\n        /* \"#utility.yul\":1958:2037   */\n      tag_88\n      tag_76\n      jump\t// in\n    tag_88:\n        /* \"#utility.yul\":1919:2039   */\n    tag_87:\n        /* \"#utility.yul\":2078:2079   */\n      0x00\n        /* \"#utility.yul\":2103:2166   */\n      tag_89\n        /* \"#utility.yul\":2158:2165   */\n      dup9\n        /* \"#utility.yul\":2149:2155   */\n      dup3\n        /* \"#utility.yul\":2138:2147   */\n      dup10\n        /* \"#utility.yul\":2134:2156   */\n      add\n        /* \"#utility.yul\":2103:2166   */\n      tag_69\n      jump\t// in\n    tag_89:\n        /* \"#utility.yul\":2093:2166   */\n      swap6\n      pop\n        /* \"#utility.yul\":2049:2176   */\n      pop\n        /* \"#utility.yul\":2215:2217   */\n      0x20\n        /* \"#utility.yul\":2241:2304   */\n      tag_90\n        /* \"#utility.yul\":2296:2303   */\n      dup9\n        /* \"#utility.yul\":2287:2293   */\n      dup3\n        /* \"#utility.yul\":2276:2285   */\n      dup10\n        /* \"#utility.yul\":2272:2294   */\n      add\n        /* \"#utility.yul\":2241:2304   */\n      tag_58\n      jump\t// in\n    tag_90:\n        /* \"#utility.yul\":2231:2304   */\n      swap5\n      pop\n        /* \"#utility.yul\":2186:2314   */\n      pop\n        /* \"#utility.yul\":2353:2355   */\n      0x40\n        /* \"#utility.yul\":2379:2443   */\n      tag_91\n        /* \"#utility.yul\":2435:2442   */\n      dup9\n        /* \"#utility.yul\":2426:2432   */\n      dup3\n        /* \"#utility.yul\":2415:2424   */\n      dup10\n        /* \"#utility.yul\":2411:2433   */\n      add\n        /* \"#utility.yul\":2379:2443   */\n      tag_66\n      jump\t// in\n    tag_91:\n        /* \"#utility.yul\":2369:2443   */\n      swap4\n      pop\n        /* \"#utility.yul\":2324:2453   */\n      pop\n        /* \"#utility.yul\":2492:2494   */\n      0x60\n        /* \"#utility.yul\":2518:2582   */\n      tag_92\n        /* \"#utility.yul\":2574:2581   */\n      dup9\n        /* \"#utility.yul\":2565:2571   */\n      dup3\n        /* \"#utility.yul\":2554:2563   */\n      dup10\n        /* \"#utility.yul\":2550:2572   */\n      add\n        /* \"#utility.yul\":2518:2582   */\n      tag_66\n      jump\t// in\n    tag_92:\n        /* \"#utility.yul\":2508:2582   */\n      swap3\n      pop\n        /* \"#utility.yul\":2463:2592   */\n      pop\n        /* \"#utility.yul\":2631:2634   */\n      0x80\n        /* \"#utility.yul\":2658:2721   */\n      tag_93\n        /* \"#utility.yul\":2713:2720   */\n      dup9\n        /* \"#utility.yul\":2704:2710   */\n      dup3\n        /* \"#utility.yul\":2693:2702   */\n      dup10\n        /* \"#utility.yul\":2689:2711   */\n      add\n        /* \"#utility.yul\":2658:2721   */\n      tag_69\n      jump\t// in\n    tag_93:\n        /* \"#utility.yul\":2648:2721   */\n      swap2\n      pop\n        /* \"#utility.yul\":2602:2731   */\n      pop\n        /* \"#utility.yul\":1767:2738   */\n      swap3\n      swap6\n      pop\n      swap3\n      swap6\n      swap1\n      swap4\n      pop\n      jump\t// out\n        /* \"#utility.yul\":2744:3110   */\n    tag_94:\n        /* \"#utility.yul\":2886:2889   */\n      0x00\n        /* \"#utility.yul\":2907:2974   */\n      tag_96\n        /* \"#utility.yul\":2971:2973   */\n      0x1a\n        /* \"#utility.yul\":2966:2969   */\n      dup4\n        /* \"#utility.yul\":2907:2974   */\n      tag_97\n      jump\t// in\n    tag_96:\n        /* \"#utility.yul\":2900:2974   */\n      swap2\n      pop\n        /* \"#utility.yul\":2983:3076   */\n      tag_98\n        /* \"#utility.yul\":3072:3075   */\n      dup3\n        /* \"#utility.yul\":2983:3076   */\n      tag_99\n      jump\t// in\n    tag_98:\n        /* \"#utility.yul\":3101:3103   */\n      0x20\n        /* \"#utility.yul\":3096:3099   */\n      dup3\n        /* \"#utility.yul\":3092:3104   */\n      add\n        /* \"#utility.yul\":3085:3104   */\n      swap1\n      pop\n        /* \"#utility.yul\":2744:3110   */\n      swap2\n      swap1\n      pop\n      jump\t// out\n        /* \"#utility.yul\":3116:3234   */\n    tag_100:\n        /* \"#utility.yul\":3203:3227   */\n      tag_102\n        /* \"#utility.yul\":3221:3226   */\n      dup2\n        /* \"#utility.yul\":3203:3227   */\n      tag_103\n      jump\t// in\n    tag_102:\n        /* \"#utility.yul\":3198:3201   */\n      dup3\n        /* \"#utility.yul\":3191:3228   */\n      mstore\n        /* \"#utility.yul\":3116:3234   */\n      pop\n      pop\n      jump\t// out\n        /* \"#utility.yul\":3240:3659   */\n    tag_50:\n        /* \"#utility.yul\":3406:3410   */\n      0x00\n        /* \"#utility.yul\":3444:3446   */\n      0x20\n        /* \"#utility.yul\":3433:3442   */\n      dup3\n        /* \"#utility.yul\":3429:3447   */\n      add\n        /* \"#utility.yul\":3421:3447   */\n      swap1\n      pop\n        /* \"#utility.yul\":3493:3502   */\n      dup2\n        /* \"#utility.yul\":3487:3491   */\n      dup2\n        /* \"#utility.yul\":3483:3503   */\n      sub\n        /* \"#utility.yul\":3479:3480   */\n      0x00\n        /* \"#utility.yul\":3468:3477   */\n      dup4\n        /* \"#utility.yul\":3464:3481   */\n      add\n        /* \"#utility.yul\":3457:3504   */\n      mstore\n        /* \"#utility.yul\":3521:3652   */\n      tag_105\n        /* \"#utility.yul\":3647:3651   */\n      dup2\n        /* \"#utility.yul\":3521:3652   */\n      tag_94\n      jump\t// in\n    tag_105:\n        /* \"#utility.yul\":3513:3652   */\n      swap1\n      pop\n        /* \"#utility.yul\":3240:3659   */\n      swap2\n      swap1\n      pop\n      jump\t// out\n        /* \"#utility.yul\":3665:3887   */\n    tag_11:\n        /* \"#utility.yul\":3758:3762   */\n      0x00\n        /* \"#utility.yul\":3796:3798   */\n      0x20\n        /* \"#utility.yul\":3785:3794   */\n      dup3\n        /* \"#utility.yul\":3781:3799   */\n      add\n        /* \"#utility.yul\":3773:3799   */\n      swap1\n      pop\n        /* \"#utility.yul\":3809:3880   */\n      tag_107\n        /* \"#utility.yul\":3877:3878   */\n      0x00\n        /* \"#utility.yul\":3866:3875   */\n      dup4\n        /* \"#utility.yul\":3862:3879   */\n      add\n        /* \"#utility.yul\":3853:3859   */\n      dup5\n        /* \"#utility.yul\":3809:3880   */\n      tag_100\n      jump\t// in\n    tag_107:\n        /* \"#utility.yul\":3665:3887   */\n      swap3\n      swap2\n      pop\n      pop\n      jump\t// out\n        /* \"#utility.yul\":3974:4143   */\n    tag_97:\n        /* \"#utility.yul\":4058:4069   */\n      0x00\n        /* \"#utility.yul\":4092:4098   */\n      dup3\n        /* \"#utility.yul\":4087:4090   */\n      dup3\n        /* \"#utility.yul\":4080:4099   */\n      mstore\n        /* \"#utility.yul\":4132:4136   */\n      0x20\n        /* \"#utility.yul\":4127:4130   */\n      dup3\n        /* \"#utility.yul\":4123:4137   */\n      add\n        /* \"#utility.yul\":4108:4137   */\n      swap1\n      pop\n        /* \"#utility.yul\":3974:4143   */\n      swap3\n      swap2\n      pop\n      pop\n      jump\t// out\n        /* \"#utility.yul\":4149:4454   */\n    tag_52:\n        /* \"#utility.yul\":4189:4192   */\n      0x00\n        /* \"#utility.yul\":4208:4228   */\n      tag_112\n        /* \"#utility.yul\":4226:4227   */\n      dup3\n        /* \"#utility.yul\":4208:4228   */\n      tag_103\n      jump\t// in\n    tag_112:\n        /* \"#utility.yul\":4203:4228   */\n      swap2\n      pop\n        /* \"#utility.yul\":4242:4262   */\n      tag_113\n        /* \"#utility.yul\":4260:4261   */\n      dup4\n        /* \"#utility.yul\":4242:4262   */\n      tag_103\n      jump\t// in\n    tag_113:\n        /* \"#utility.yul\":4237:4262   */\n      swap3\n      pop\n        /* \"#utility.yul\":4396:4397   */\n      dup3\n        /* \"#utility.yul\":4328:4394   */\n      0xffffffffffffffffffffffffffffffffffffffffffffffffffffffffffffffff\n        /* \"#utility.yul\":4324:4398   */\n      sub\n        /* \"#utility.yul\":4321:4322   */\n      dup3\n        /* \"#utility.yul\":4318:4399   */\n      gt\n        /* \"#utility.yul\":4315:4422   */\n      iszero\n      tag_114\n      jumpi\n        /* \"#utility.yul\":4402:4420   */\n      tag_115\n      tag_116\n      jump\t// in\n    tag_115:\n        /* \"#utility.yul\":4315:4422   */\n    tag_114:\n        /* \"#utility.yul\":4446:4447   */\n      dup3\n        /* \"#utility.yul\":4443:4444   */\n      dup3\n        /* \"#utility.yul\":4439:4448   */\n      add\n        /* \"#utility.yul\":4432:4448   */\n      swap1\n      pop\n        /* \"#utility.yul\":4149:4454   */\n      swap3\n      swap2\n      pop\n      pop\n      jump\t// out\n        /* \"#utility.yul\":4460:4808   */\n    tag_39:\n        /* \"#utility.yul\":4500:4507   */\n      0x00\n        /* \"#utility.yul\":4523:4543   */\n      tag_118\n        /* \"#utility.yul\":4541:4542   */\n      dup3\n        /* \"#utility.yul\":4523:4543   */\n      tag_103\n      jump\t// in\n    tag_118:\n        /* \"#utility.yul\":4518:4543   */\n      swap2\n      pop\n        /* \"#utility.yul\":4557:4577   */\n      tag_119\n        /* \"#utility.yul\":4575:4576   */\n      dup4\n        /* \"#utility.yul\":4557:4577   */\n      tag_103\n      jump\t// in\n    tag_119:\n        /* \"#utility.yul\":4552:4577   */\n      swap3\n      pop\n        /* \"#utility.yul\":4745:4746   */\n      dup2\n        /* \"#utility.yul\":4677:4743   */\n      0xffffffffffffffffffffffffffffffffffffffffffffffffffffffffffffffff\n        /* \"#utility.yul\":4673:4747   */\n      div\n        /* \"#utility.yul\":4670:4671   */\n      dup4\n        /* \"#utility.yul\":4667:4748   */\n      gt\n        /* \"#utility.yul\":4662:4663   */\n      dup3\n        /* \"#utility.yul\":4655:4664   */\n      iszero\n        /* \"#utility.yul\":4648:4665   */\n      iszero\n        /* \"#utility.yul\":4644:4749   */\n      and\n        /* \"#utility.yul\":4641:4772   */\n      iszero\n      tag_120\n      jumpi\n        /* \"#utility.yul\":4752:4770   */\n      tag_121\n      tag_116\n      jump\t// in\n    tag_121:\n        /* \"#utility.yul\":4641:4772   */\n    tag_120:\n        /* \"#utility.yul\":4800:4801   */\n      dup3\n        /* \"#utility.yul\":4797:4798   */\n      dup3\n        /* \"#utility.yul\":4793:4802   */\n      mul\n        /* \"#utility.yul\":4782:4802   */\n      swap1\n      pop\n        /* \"#utility.yul\":4460:4808   */\n      swap3\n      swap2\n      pop\n      pop\n      jump\t// out\n        /* \"#utility.yul\":4814:4910   */\n    tag_122:\n        /* \"#utility.yul\":4851:4858   */\n      0x00\n        /* \"#utility.yul\":4880:4904   */\n      tag_124\n        /* \"#utility.yul\":4898:4903   */\n      dup3\n        /* \"#utility.yul\":4880:4904   */\n      tag_125\n      jump\t// in\n    tag_124:\n        /* \"#utility.yul\":4869:4904   */\n      swap1\n      pop\n        /* \"#utility.yul\":4814:4910   */\n      swap2\n      swap1\n      pop\n      jump\t// out\n        /* \"#utility.yul\":4916:4992   */\n    tag_126:\n        /* \"#utility.yul\":4952:4959   */\n      0x00\n        /* \"#utility.yul\":4981:4986   */\n      dup2\n        /* \"#utility.yul\":4970:4986   */\n      swap1\n      pop\n        /* \"#utility.yul\":4916:4992   */\n      swap2\n      swap1\n      pop\n      jump\t// out\n        /* \"#utility.yul\":4998:5124   */\n    tag_125:\n        /* \"#utility.yul\":5035:5042   */\n      0x00\n        /* \"#utility.yul\":5075:5117   */\n      0xffffffffffffffffffffffffffffffffffffffff\n        /* \"#utility.yul\":5068:5073   */\n      dup3\n        /* \"#utility.yul\":5064:5118   */\n      and\n        /* \"#utility.yul\":5053:5118   */\n      swap1\n      pop\n        /* \"#utility.yul\":4998:5124   */\n      swap2\n      swap1\n      pop\n      jump\t// out\n        /* \"#utility.yul\":5130:5207   */\n    tag_103:\n        /* \"#utility.yul\":5167:5174   */\n      0x00\n        /* \"#utility.yul\":5196:5201   */\n      dup2\n        /* \"#utility.yul\":5185:5201   */\n      swap1\n      pop\n        /* \"#utility.yul\":5130:5207   */\n      swap2\n      swap1\n      pop\n      jump\t// out\n        /* \"#utility.yul\":5213:5318   */\n    tag_130:\n        /* \"#utility.yul\":5249:5256   */\n      0x00\n        /* \"#utility.yul\":5289:5311   */\n      0xffffffffffffffffffff\n        /* \"#utility.yul\":5282:5287   */\n      dup3\n        /* \"#utility.yul\":5278:5312   */\n      and\n        /* \"#utility.yul\":5267:5312   */\n      swap1\n      pop\n        /* \"#utility.yul\":5213:5318   */\n      swap2\n      swap1\n      pop\n      jump\t// out\n        /* \"#utility.yul\":5324:5504   */\n    tag_116:\n        /* \"#utility.yul\":5372:5449   */\n      0x4e487b7100000000000000000000000000000000000000000000000000000000\n        /* \"#utility.yul\":5369:5370   */\n      0x00\n        /* \"#utility.yul\":5362:5450   */\n      mstore\n        /* \"#utility.yul\":5469:5473   */\n      0x11\n        /* \"#utility.yul\":5466:5467   */\n      0x04\n        /* \"#utility.yul\":5459:5474   */\n      mstore\n        /* \"#utility.yul\":5493:5497   */\n      0x24\n        /* \"#utility.yul\":5490:5491   */\n      0x00\n        /* \"#utility.yul\":5483:5498   */\n      revert\n        /* \"#utility.yul\":5633:5750   */\n    tag_76:\n        /* \"#utility.yul\":5742:5743   */\n      0x00\n        /* \"#utility.yul\":5739:5740   */\n      dup1\n        /* \"#utility.yul\":5732:5744   */\n      revert\n        /* \"#utility.yul\":5756:5932   */\n    tag_99:\n        /* \"#utility.yul\":5896:5924   */\n      0x596f75206e65656420746f207370656e64206d6f726520455448000000000000\n        /* \"#utility.yul\":5892:5893   */\n      0x00\n        /* \"#utility.yul\":5884:5890   */\n      dup3\n        /* \"#utility.yul\":5880:5894   */\n      add\n        /* \"#utility.yul\":5873:5925   */\n      mstore\n        /* \"#utility.yul\":5756:5932   */\n      pop\n      jump\t// out\n        /* \"#utility.yul\":5938:6060   */\n    tag_57:\n        /* \"#utility.yul\":6011:6035   */\n      tag_138\n        /* \"#utility.yul\":6029:6034   */\n      dup2\n        /* \"#utility.yul\":6011:6035   */\n      tag_122\n      jump\t// in\n    tag_138:\n        /* \"#utility.yul\":6004:6009   */\n      dup2\n        /* \"#utility.yul\":6001:6036   */\n      eq\n        /* \"#utility.yul\":5991:6054   */\n      tag_139\n      jumpi\n        /* \"#utility.yul\":6050:6051   */\n      0x00\n        /* \"#utility.yul\":6047:6048   */\n      dup1\n        /* \"#utility.yul\":6040:6052   */\n      revert\n        /* \"#utility.yul\":5991:6054   */\n    tag_139:\n        /* \"#utility.yul\":5938:6060   */\n      pop\n      jump\t// out\n        /* \"#utility.yul\":6066:6186   */\n    tag_61:\n        /* \"#utility.yul\":6138:6161   */\n      tag_141\n        /* \"#utility.yul\":6155:6160   */\n      dup2\n        /* \"#utility.yul\":6138:6161   */\n      tag_126\n      jump\t// in\n    tag_141:\n        /* \"#utility.yul\":6131:6136   */\n      dup2\n        /* \"#utility.yul\":6128:6162   */\n      eq\n        /* \"#utility.yul\":6118:6180   */\n      tag_142\n      jumpi\n        /* \"#utility.yul\":6176:6177   */\n      0x00\n        /* \"#utility.yul\":6173:6174   */\n      dup1\n        /* \"#utility.yul\":6166:6178   */\n      revert\n        /* \"#utility.yul\":6118:6180   */\n    tag_142:\n        /* \"#utility.yul\":6066:6186   */\n      pop\n      jump\t// out\n        /* \"#utility.yul\":6192:6314   */\n    tag_65:\n        /* \"#utility.yul\":6265:6289   */\n      tag_144\n        /* \"#utility.yul\":6283:6288   */\n      dup2\n        /* \"#utility.yul\":6265:6289   */\n      tag_103\n      jump\t// in\n    tag_144:\n        /* \"#utility.yul\":6258:6263   */\n      dup2\n        /* \"#utility.yul\":6255:6290   */\n      eq\n        /* \"#utility.yul\":6245:6308   */\n      tag_145\n      jumpi\n        /* \"#utility.yul\":6304:6305   */\n      0x00\n        /* \"#utility.yul\":6301:6302   */\n      dup1\n        /* \"#utility.yul\":6294:6306   */\n      revert\n        /* \"#utility.yul\":6245:6308   */\n    tag_145:\n        /* \"#utility.yul\":6192:6314   */\n      pop\n      jump\t// out\n        /* \"#utility.yul\":6320:6440   */\n    tag_72:\n        /* \"#utility.yul\":6392:6415   */\n      tag_147\n        /* \"#utility.yul\":6409:6414   */\n      dup2\n        /* \"#utility.yul\":6392:6415   */\n      tag_130\n      jump\t// in\n    tag_147:\n        /* \"#utility.yul\":6385:6390   */\n      dup2\n        /* \"#utility.yul\":6382:6416   */\n      eq\n        /* \"#utility.yul\":6372:6434   */\n      tag_148\n      jumpi\n        /* \"#utility.yul\":6430:6431   */\n      0x00\n        /* \"#utility.yul\":6427:6428   */\n      dup1\n        /* \"#utility.yul\":6420:6432   */\n      revert\n        /* \"#utility.yul\":6372:6434   */\n    tag_148:\n        /* \"#utility.yul\":6320:6440   */\n      pop\n      jump\t// out\n\n    auxdata: 0xa26469706673582212208cc58ff27076a074c7e3234c00dfa5ebc4946c622f70c01a6d29aefd2b46bdaa64736f6c63430008070033\n}\n",
				"bytecode": {
					"linkReferences": {},
					"object": "608060405234801561001057600080fd5b50610744806100206000396000f3fe60806040526004361061004a5760003560e01c80630d8e6e2c1461004f5780633e47d6f31461007a5780636e5b6b28146100b757806398d5fdca146100f4578063b60d42881461011f575b600080fd5b34801561005b57600080fd5b50610064610129565b604051610071919061051d565b60405180910390f35b34801561008657600080fd5b506100a1600480360381019061009c91906103c9565b6101c7565b6040516100ae919061051d565b60405180910390f35b3480156100c357600080fd5b506100de60048036038101906100d991906103f6565b6101df565b6040516100eb919061051d565b60405180910390f35b34801561010057600080fd5b50610109610206565b604051610116919061051d565b60405180910390f35b6101276102b6565b005b600080735f4ec3df9cbd43714fe2740f5e3616155c5b841990508073ffffffffffffffffffffffffffffffffffffffff166354fd4d506040518163ffffffff1660e01b815260040160206040518083038186803b15801561018957600080fd5b505afa15801561019d573d6000803e3d6000fd5b505050506040513d601f19601f820116820180604052508101906101c19190610423565b91505090565b60006020528060005260406000206000915090505481565b6000806101ea610206565b9050600083826101fa919061059f565b90508092505050919050565b600080735f4ec3df9cbd43714fe2740f5e3616155c5b8419905060008173ffffffffffffffffffffffffffffffffffffffff1663feaf968c6040518163ffffffff1660e01b815260040160a06040518083038186803b15801561026857600080fd5b505afa15801561027c573d6000803e3d6000fd5b505050506040513d601f19601f820116820180604052508101906102a09190610450565b5050509150506402540be4009050809250505090565b60006123289050806102c7346101df565b1015610308576040517f08c379a00000000000000000000000000000000000000000000000000000000081526004016102ff906104fd565b60405180910390fd5b346000803373ffffffffffffffffffffffffffffffffffffffff1673ffffffffffffffffffffffffffffffffffffffff16815260200190815260200160002060008282546103569190610549565b9250508190555050565b60008135905061036f816106b2565b92915050565b600081519050610384816106c9565b92915050565b600081359050610399816106e0565b92915050565b6000815190506103ae816106e0565b92915050565b6000815190506103c3816106f7565b92915050565b6000602082840312156103df576103de610684565b5b60006103ed84828501610360565b91505092915050565b60006020828403121561040c5761040b610684565b5b600061041a8482850161038a565b91505092915050565b60006020828403121561043957610438610684565b5b60006104478482850161039f565b91505092915050565b600080600080600060a0868803121561046c5761046b610684565b5b600061047a888289016103b4565b955050602061048b88828901610375565b945050604061049c8882890161039f565b93505060606104ad8882890161039f565b92505060806104be888289016103b4565b9150509295509295909350565b60006104d8601a83610538565b91506104e382610689565b602082019050919050565b6104f781610635565b82525050565b60006020820190508181036000830152610516816104cb565b9050919050565b600060208201905061053260008301846104ee565b92915050565b600082825260208201905092915050565b600061055482610635565b915061055f83610635565b9250827fffffffffffffffffffffffffffffffffffffffffffffffffffffffffffffffff0382111561059457610593610655565b5b828201905092915050565b60006105aa82610635565b91506105b583610635565b9250817fffffffffffffffffffffffffffffffffffffffffffffffffffffffffffffffff04831182151516156105ee576105ed610655565b5b828202905092915050565b600061060482610615565b9050919050565b6000819050919050565b600073ffffffffffffffffffffffffffffffffffffffff82169050919050565b6000819050919050565b600069ffffffffffffffffffff82169050919050565b7f4e487b7100000000000000000000000000000000000000000000000000000000600052601160045260246000fd5b600080fd5b7f596f75206e65656420746f207370656e64206d6f726520455448000000000000600082015250565b6106bb816105f9565b81146106c657600080fd5b50565b6106d28161060b565b81146106dd57600080fd5b50565b6106e981610635565b81146106f457600080fd5b50565b6107008161063f565b811461070b57600080fd5b5056fea26469706673582212208cc58ff27076a074c7e3234c00dfa5ebc4946c622f70c01a6d29aefd2b46bdaa64736f6c63430008070033",
					"opcodes": "PUSH1 0x80 PUSH1 0x40 MSTORE CALLVALUE DUP1 ISZERO PUSH2 0x10 JUMPI PUSH1 0x0 DUP1 REVERT JUMPDEST POP PUSH2 0x744 DUP1 PUSH2 0x20 PUSH1 0x0 CODECOPY PUSH1 0x0 RETURN INVALID PUSH1 0x80 PUSH1 0x40 MSTORE PUSH1 0x4 CALLDATASIZE LT PUSH2 0x4A JUMPI PUSH1 0x0 CALLDATALOAD PUSH1 0xE0 SHR DUP1 PUSH4 0xD8E6E2C EQ PUSH2 0x4F JUMPI DUP1 PUSH4 0x3E47D6F3 EQ PUSH2 0x7A JUMPI DUP1 PUSH4 0x6E5B6B28 EQ PUSH2 0xB7 JUMPI DUP1 PUSH4 0x98D5FDCA EQ PUSH2 0xF4 JUMPI DUP1 PUSH4 0xB60D4288 EQ PUSH2 0x11F JUMPI JUMPDEST PUSH1 0x0 DUP1 REVERT JUMPDEST CALLVALUE DUP1 ISZERO PUSH2 0x5B JUMPI PUSH1 0x0 DUP1 REVERT JUMPDEST POP PUSH2 0x64 PUSH2 0x129 JUMP JUMPDEST PUSH1 0x40 MLOAD PUSH2 0x71 SWAP2 SWAP1 PUSH2 0x51D JUMP JUMPDEST PUSH1 0x40 MLOAD DUP1 SWAP2 SUB SWAP1 RETURN JUMPDEST CALLVALUE DUP1 ISZERO PUSH2 0x86 JUMPI PUSH1 0x0 DUP1 REVERT JUMPDEST POP PUSH2 0xA1 PUSH1 0x4 DUP1 CALLDATASIZE SUB DUP2 ADD SWAP1 PUSH2 0x9C SWAP2 SWAP1 PUSH2 0x3C9 JUMP JUMPDEST PUSH2 0x1C7 JUMP JUMPDEST PUSH1 0x40 MLOAD PUSH2 0xAE SWAP2 SWAP1 PUSH2 0x51D JUMP JUMPDEST PUSH1 0x40 MLOAD DUP1 SWAP2 SUB SWAP1 RETURN JUMPDEST CALLVALUE DUP1 ISZERO PUSH2 0xC3 JUMPI PUSH1 0x0 DUP1 REVERT JUMPDEST POP PUSH2 0xDE PUSH1 0x4 DUP1 CALLDATASIZE SUB DUP2 ADD SWAP1 PUSH2 0xD9 SWAP2 SWAP1 PUSH2 0x3F6 JUMP JUMPDEST PUSH2 0x1DF JUMP JUMPDEST PUSH1 0x40 MLOAD PUSH2 0xEB SWAP2 SWAP1 PUSH2 0x51D JUMP JUMPDEST PUSH1 0x40 MLOAD DUP1 SWAP2 SUB SWAP1 RETURN JUMPDEST CALLVALUE DUP1 ISZERO PUSH2 0x100 JUMPI PUSH1 0x0 DUP1 REVERT JUMPDEST POP PUSH2 0x109 PUSH2 0x206 JUMP JUMPDEST PUSH1 0x40 MLOAD PUSH2 0x116 SWAP2 SWAP1 PUSH2 0x51D JUMP JUMPDEST PUSH1 0x40 MLOAD DUP1 SWAP2 SUB SWAP1 RETURN JUMPDEST PUSH2 0x127 PUSH2 0x2B6 JUMP JUMPDEST STOP JUMPDEST PUSH1 0x0 DUP1 PUSH20 0x5F4EC3DF9CBD43714FE2740F5E3616155C5B8419 SWAP1 POP DUP1 PUSH20 0xFFFFFFFFFFFFFFFFFFFFFFFFFFFFFFFFFFFFFFFF AND PUSH4 0x54FD4D50 PUSH1 0x40 MLOAD DUP2 PUSH4 0xFFFFFFFF AND PUSH1 0xE0 SHL DUP2 MSTORE PUSH1 0x4 ADD PUSH1 0x20 PUSH1 0x40 MLOAD DUP1 DUP4 SUB DUP2 DUP7 DUP1 EXTCODESIZE ISZERO DUP1 ISZERO PUSH2 0x189 JUMPI PUSH1 0x0 DUP1 REVERT JUMPDEST POP GAS STATICCALL ISZERO DUP1 ISZERO PUSH2 0x19D JUMPI RETURNDATASIZE PUSH1 0x0 DUP1 RETURNDATACOPY RETURNDATASIZE PUSH1 0x0 REVERT JUMPDEST POP POP POP POP PUSH1 0x40 MLOAD RETURNDATASIZE PUSH1 0x1F NOT PUSH1 0x1F DUP3 ADD AND DUP3 ADD DUP1 PUSH1 0x40 MSTORE POP DUP2 ADD SWAP1 PUSH2 0x1C1 SWAP2 SWAP1 PUSH2 0x423 JUMP JUMPDEST SWAP2 POP POP SWAP1 JUMP JUMPDEST PUSH1 0x0 PUSH1 0x20 MSTORE DUP1 PUSH1 0x0 MSTORE PUSH1 0x40 PUSH1 0x0 KECCAK256 PUSH1 0x0 SWAP2 POP SWAP1 POP SLOAD DUP2 JUMP JUMPDEST PUSH1 0x0 DUP1 PUSH2 0x1EA PUSH2 0x206 JUMP JUMPDEST SWAP1 POP PUSH1 0x0 DUP4 DUP3 PUSH2 0x1FA SWAP2 SWAP1 PUSH2 0x59F JUMP JUMPDEST SWAP1 POP DUP1 SWAP3 POP POP POP SWAP2 SWAP1 POP JUMP JUMPDEST PUSH1 0x0 DUP1 PUSH20 0x5F4EC3DF9CBD43714FE2740F5E3616155C5B8419 SWAP1 POP PUSH1 0x0 DUP2 PUSH20 0xFFFFFFFFFFFFFFFFFFFFFFFFFFFFFFFFFFFFFFFF AND PUSH4 0xFEAF968C PUSH1 0x40 MLOAD DUP2 PUSH4 0xFFFFFFFF AND PUSH1 0xE0 SHL DUP2 MSTORE PUSH1 0x4 ADD PUSH1 0xA0 PUSH1 0x40 MLOAD DUP1 DUP4 SUB DUP2 DUP7 DUP1 EXTCODESIZE ISZERO DUP1 ISZERO PUSH2 0x268 JUMPI PUSH1 0x0 DUP1 REVERT JUMPDEST POP GAS STATICCALL ISZERO DUP1 ISZERO PUSH2 0x27C JUMPI RETURNDATASIZE PUSH1 0x0 DUP1 RETURNDATACOPY RETURNDATASIZE PUSH1 0x0 REVERT JUMPDEST POP POP POP POP PUSH1 0x40 MLOAD RETURNDATASIZE PUSH1 0x1F NOT PUSH1 0x1F DUP3 ADD AND DUP3 ADD DUP1 PUSH1 0x40 MSTORE POP DUP2 ADD SWAP1 PUSH2 0x2A0 SWAP2 SWAP1 PUSH2 0x450 JUMP JUMPDEST POP POP POP SWAP2 POP POP PUSH5 0x2540BE400 SWAP1 POP DUP1 SWAP3 POP POP POP SWAP1 JUMP JUMPDEST PUSH1 0x0 PUSH2 0x2328 SWAP1 POP DUP1 PUSH2 0x2C7 CALLVALUE PUSH2 0x1DF JUMP JUMPDEST LT ISZERO PUSH2 0x308 JUMPI PUSH1 0x40 MLOAD PUSH32 0x8C379A000000000000000000000000000000000000000000000000000000000 DUP2 MSTORE PUSH1 0x4 ADD PUSH2 0x2FF SWAP1 PUSH2 0x4FD JUMP JUMPDEST PUSH1 0x40 MLOAD DUP1 SWAP2 SUB SWAP1 REVERT JUMPDEST CALLVALUE PUSH1 0x0 DUP1 CALLER PUSH20 0xFFFFFFFFFFFFFFFFFFFFFFFFFFFFFFFFFFFFFFFF AND PUSH20 0xFFFFFFFFFFFFFFFFFFFFFFFFFFFFFFFFFFFFFFFF AND DUP2 MSTORE PUSH1 0x20 ADD SWAP1 DUP2 MSTORE PUSH1 0x20 ADD PUSH1 0x0 KECCAK256 PUSH1 0x0 DUP3 DUP3 SLOAD PUSH2 0x356 SWAP2 SWAP1 PUSH2 0x549 JUMP JUMPDEST SWAP3 POP POP DUP2 SWAP1 SSTORE POP POP JUMP JUMPDEST PUSH1 0x0 DUP2 CALLDATALOAD SWAP1 POP PUSH2 0x36F DUP2 PUSH2 0x6B2 JUMP JUMPDEST SWAP3 SWAP2 POP POP JUMP JUMPDEST PUSH1 0x0 DUP2 MLOAD SWAP1 POP PUSH2 0x384 DUP2 PUSH2 0x6C9 JUMP JUMPDEST SWAP3 SWAP2 POP POP JUMP JUMPDEST PUSH1 0x0 DUP2 CALLDATALOAD SWAP1 POP PUSH2 0x399 DUP2 PUSH2 0x6E0 JUMP JUMPDEST SWAP3 SWAP2 POP POP JUMP JUMPDEST PUSH1 0x0 DUP2 MLOAD SWAP1 POP PUSH2 0x3AE DUP2 PUSH2 0x6E0 JUMP JUMPDEST SWAP3 SWAP2 POP POP JUMP JUMPDEST PUSH1 0x0 DUP2 MLOAD SWAP1 POP PUSH2 0x3C3 DUP2 PUSH2 0x6F7 JUMP JUMPDEST SWAP3 SWAP2 POP POP JUMP JUMPDEST PUSH1 0x0 PUSH1 0x20 DUP3 DUP5 SUB SLT ISZERO PUSH2 0x3DF JUMPI PUSH2 0x3DE PUSH2 0x684 JUMP JUMPDEST JUMPDEST PUSH1 0x0 PUSH2 0x3ED DUP5 DUP3 DUP6 ADD PUSH2 0x360 JUMP JUMPDEST SWAP2 POP POP SWAP3 SWAP2 POP POP JUMP JUMPDEST PUSH1 0x0 PUSH1 0x20 DUP3 DUP5 SUB SLT ISZERO PUSH2 0x40C JUMPI PUSH2 0x40B PUSH2 0x684 JUMP JUMPDEST JUMPDEST PUSH1 0x0 PUSH2 0x41A DUP5 DUP3 DUP6 ADD PUSH2 0x38A JUMP JUMPDEST SWAP2 POP POP SWAP3 SWAP2 POP POP JUMP JUMPDEST PUSH1 0x0 PUSH1 0x20 DUP3 DUP5 SUB SLT ISZERO PUSH2 0x439 JUMPI PUSH2 0x438 PUSH2 0x684 JUMP JUMPDEST JUMPDEST PUSH1 0x0 PUSH2 0x447 DUP5 DUP3 DUP6 ADD PUSH2 0x39F JUMP JUMPDEST SWAP2 POP POP SWAP3 SWAP2 POP POP JUMP JUMPDEST PUSH1 0x0 DUP1 PUSH1 0x0 DUP1 PUSH1 0x0 PUSH1 0xA0 DUP7 DUP9 SUB SLT ISZERO PUSH2 0x46C JUMPI PUSH2 0x46B PUSH2 0x684 JUMP JUMPDEST JUMPDEST PUSH1 0x0 PUSH2 0x47A DUP9 DUP3 DUP10 ADD PUSH2 0x3B4 JUMP JUMPDEST SWAP6 POP POP PUSH1 0x20 PUSH2 0x48B DUP9 DUP3 DUP10 ADD PUSH2 0x375 JUMP JUMPDEST SWAP5 POP POP PUSH1 0x40 PUSH2 0x49C DUP9 DUP3 DUP10 ADD PUSH2 0x39F JUMP JUMPDEST SWAP4 POP POP PUSH1 0x60 PUSH2 0x4AD DUP9 DUP3 DUP10 ADD PUSH2 0x39F JUMP JUMPDEST SWAP3 POP POP PUSH1 0x80 PUSH2 0x4BE DUP9 DUP3 DUP10 ADD PUSH2 0x3B4 JUMP JUMPDEST SWAP2 POP POP SWAP3 SWAP6 POP SWAP3 SWAP6 SWAP1 SWAP4 POP JUMP JUMPDEST PUSH1 0x0 PUSH2 0x4D8 PUSH1 0x1A DUP4 PUSH2 0x538 JUMP JUMPDEST SWAP2 POP PUSH2 0x4E3 DUP3 PUSH2 0x689 JUMP JUMPDEST PUSH1 0x20 DUP3 ADD SWAP1 POP SWAP2 SWAP1 POP JUMP JUMPDEST PUSH2 0x4F7 DUP2 PUSH2 0x635 JUMP JUMPDEST DUP3 MSTORE POP POP JUMP JUMPDEST PUSH1 0x0 PUSH1 0x20 DUP3 ADD SWAP1 POP DUP2 DUP2 SUB PUSH1 0x0 DUP4 ADD MSTORE PUSH2 0x516 DUP2 PUSH2 0x4CB JUMP JUMPDEST SWAP1 POP SWAP2 SWAP1 POP JUMP JUMPDEST PUSH1 0x0 PUSH1 0x20 DUP3 ADD SWAP1 POP PUSH2 0x532 PUSH1 0x0 DUP4 ADD DUP5 PUSH2 0x4EE JUMP JUMPDEST SWAP3 SWAP2 POP POP JUMP JUMPDEST PUSH1 0x0 DUP3 DUP3 MSTORE PUSH1 0x20 DUP3 ADD SWAP1 POP SWAP3 SWAP2 POP POP JUMP JUMPDEST PUSH1 0x0 PUSH2 0x554 DUP3 PUSH2 0x635 JUMP JUMPDEST SWAP2 POP PUSH2 0x55F DUP4 PUSH2 0x635 JUMP JUMPDEST SWAP3 POP DUP3 PUSH32 0xFFFFFFFFFFFFFFFFFFFFFFFFFFFFFFFFFFFFFFFFFFFFFFFFFFFFFFFFFFFFFFFF SUB DUP3 GT ISZERO PUSH2 0x594 JUMPI PUSH2 0x593 PUSH2 0x655 JUMP JUMPDEST JUMPDEST DUP3 DUP3 ADD SWAP1 POP SWAP3 SWAP2 POP POP JUMP JUMPDEST PUSH1 0x0 PUSH2 0x5AA DUP3 PUSH2 0x635 JUMP JUMPDEST SWAP2 POP PUSH2 0x5B5 DUP4 PUSH2 0x635 JUMP JUMPDEST SWAP3 POP DUP2 PUSH32 0xFFFFFFFFFFFFFFFFFFFFFFFFFFFFFFFFFFFFFFFFFFFFFFFFFFFFFFFFFFFFFFFF DIV DUP4 GT DUP3 ISZERO ISZERO AND ISZERO PUSH2 0x5EE JUMPI PUSH2 0x5ED PUSH2 0x655 JUMP JUMPDEST JUMPDEST DUP3 DUP3 MUL SWAP1 POP SWAP3 SWAP2 POP POP JUMP JUMPDEST PUSH1 0x0 PUSH2 0x604 DUP3 PUSH2 0x615 JUMP JUMPDEST SWAP1 POP SWAP2 SWAP1 POP JUMP JUMPDEST PUSH1 0x0 DUP2 SWAP1 POP SWAP2 SWAP1 POP JUMP JUMPDEST PUSH1 0x0 PUSH20 0xFFFFFFFFFFFFFFFFFFFFFFFFFFFFFFFFFFFFFFFF DUP3 AND SWAP1 POP SWAP2 SWAP1 POP JUMP JUMPDEST PUSH1 0x0 DUP2 SWAP1 POP SWAP2 SWAP1 POP JUMP JUMPDEST PUSH1 0x0 PUSH10 0xFFFFFFFFFFFFFFFFFFFF DUP3 AND SWAP1 POP SWAP2 SWAP1 POP JUMP JUMPDEST PUSH32 0x4E487B7100000000000000000000000000000000000000000000000000000000 PUSH1 0x0 MSTORE PUSH1 0x11 PUSH1 0x4 MSTORE PUSH1 0x24 PUSH1 0x0 REVERT JUMPDEST PUSH1 0x0 DUP1 REVERT JUMPDEST PUSH32 0x596F75206E65656420746F207370656E64206D6F726520455448000000000000 PUSH1 0x0 DUP3 ADD MSTORE POP JUMP JUMPDEST PUSH2 0x6BB DUP2 PUSH2 0x5F9 JUMP JUMPDEST DUP2 EQ PUSH2 0x6C6 JUMPI PUSH1 0x0 DUP1 REVERT JUMPDEST POP JUMP JUMPDEST PUSH2 0x6D2 DUP2 PUSH2 0x60B JUMP JUMPDEST DUP2 EQ PUSH2 0x6DD JUMPI PUSH1 0x0 DUP1 REVERT JUMPDEST POP JUMP JUMPDEST PUSH2 0x6E9 DUP2 PUSH2 0x635 JUMP JUMPDEST DUP2 EQ PUSH2 0x6F4 JUMPI PUSH1 0x0 DUP1 REVERT JUMPDEST POP JUMP JUMPDEST PUSH2 0x700 DUP2 PUSH2 0x63F JUMP JUMPDEST DUP2 EQ PUSH2 0x70B JUMPI PUSH1 0x0 DUP1 REVERT JUMPDEST POP JUMP INVALID LOG2 PUSH5 0x6970667358 0x22 SLT KECCAK256 DUP13 0xC5 DUP16 CALLCODE PUSH17 0x76A074C7E3234C00DFA5EBC4946C622F70 0xC0 BYTE PUSH14 0x29AEFD2B46BDAA64736F6C634300 ADDMOD SMOD STOP CALLER "
				},
				"gasEstimates": {
					"creation": {
						"codeDepositCost": "372000",
						"executionCost": "411",
						"totalCost": "372411"
					},
					"external": {
						"addressToAmountFunded(address)": "2814",
						"fund()": "infinite",
						"getConversionRate(uint256)": "infinite",
						"getPrice()": "infinite",
						"getVersion()": "infinite"
					}
				},
				"methodIdentifiers": {
					"addressToAmountFunded(address)": "3e47d6f3",
					"fund()": "b60d4288",
					"getConversionRate(uint256)": "6e5b6b28",
					"getPrice()": "98d5fdca",
					"getVersion()": "0d8e6e2c"
				}
			},
			"storageLayout": {
				"storage": [
					{
						"astId": 195,
						"contract": "contracts/FundMe.sol:FundMe",
						"label": "addressToAmountFunded",
						"offset": 0,
						"slot": "0",
						"type": "t_mapping(t_address,t_uint256)"
					}
				],
				"types": {
					"t_address": {
						"encoding": "inplace",
						"label": "address",
						"numberOfBytes": "20"
					},
					"t_mapping(t_address,t_uint256)": {
						"encoding": "mapping",
						"key": "t_address",
						"label": "mapping(address => uint256)",
						"numberOfBytes": "32",
						"value": "t_uint256"
					},
					"t_uint256": {
						"encoding": "inplace",
						"label": "uint256",
						"numberOfBytes": "32"
					}
				}
			},
			"userdoc": {
				"kind": "user",
				"methods": {},
				"version": 1
			}
		}
	}
}