{
	"contracts/Overflow.sol": {
		"Overflow": {
			"abi": [
				{
					"inputs": [],
					"name": "overflow",
					"outputs": [
						{
							"internalType": "uint8",
							"name": "",
							"type": "uint8"
						}
					],
					"stateMutability": "view",
					"type": "function"
				}
			],
			"devdoc": {
				"kind": "dev",
				"methods": {},
				"version": 1
			},
			"evm": {
				"assembly": "    /* \"contracts/Overflow.sol\":74:219  contract Overflow{\r... */\n  mstore(0x40, 0x80)\n  callvalue\n  dup1\n  iszero\n  tag_1\n  jumpi\n  0x00\n  dup1\n  revert\ntag_1:\n  pop\n  dataSize(sub_0)\n  dup1\n  dataOffset(sub_0)\n  0x00\n  codecopy\n  0x00\n  return\nstop\n\nsub_0: assembly {\n        /* \"contracts/Overflow.sol\":74:219  contract Overflow{\r... */\n      mstore(0x40, 0x80)\n      callvalue\n      dup1\n      iszero\n      tag_1\n      jumpi\n      0x00\n      dup1\n      revert\n    tag_1:\n      pop\n      jumpi(tag_2, lt(calldatasize, 0x04))\n      shr(0xe0, calldataload(0x00))\n      dup1\n      0x4264c3\n      eq\n      tag_3\n      jumpi\n    tag_2:\n      0x00\n      dup1\n      revert\n        /* \"contracts/Overflow.sol\":102:216  function overflow() public view returns(uint8){\r... */\n    tag_3:\n      tag_4\n      tag_5\n      jump\t// in\n    tag_4:\n      mload(0x40)\n      tag_6\n      swap2\n      swap1\n      tag_7\n      jump\t// in\n    tag_6:\n      mload(0x40)\n      dup1\n      swap2\n      sub\n      swap1\n      return\n    tag_5:\n        /* \"contracts/Overflow.sol\":142:147  uint8 */\n      0x00\n        /* \"contracts/Overflow.sol\":159:168  uint8 big */\n      dup1\n        /* \"contracts/Overflow.sol\":183:186  100 */\n      0x64\n        /* \"contracts/Overflow.sol\":171:174  255 */\n      0xff\n        /* \"contracts/Overflow.sol\":171:187  255 + uint8(100) */\n      tag_9\n      swap2\n      swap1\n      tag_10\n      jump\t// in\n    tag_9:\n        /* \"contracts/Overflow.sol\":159:187  uint8 big = 255 + uint8(100) */\n      swap1\n      pop\n        /* \"contracts/Overflow.sol\":205:208  big */\n      dup1\n        /* \"contracts/Overflow.sol\":198:208  return big */\n      swap2\n      pop\n      pop\n        /* \"contracts/Overflow.sol\":102:216  function overflow() public view returns(uint8){\r... */\n      swap1\n      jump\t// out\n        /* \"#utility.yul\":7:119   */\n    tag_12:\n        /* \"#utility.yul\":90:112   */\n      tag_14\n        /* \"#utility.yul\":106:111   */\n      dup2\n        /* \"#utility.yul\":90:112   */\n      tag_15\n      jump\t// in\n    tag_14:\n        /* \"#utility.yul\":85:88   */\n      dup3\n        /* \"#utility.yul\":78:113   */\n      mstore\n        /* \"#utility.yul\":7:119   */\n      pop\n      pop\n      jump\t// out\n        /* \"#utility.yul\":125:339   */\n    tag_7:\n        /* \"#utility.yul\":214:218   */\n      0x00\n        /* \"#utility.yul\":252:254   */\n      0x20\n        /* \"#utility.yul\":241:250   */\n      dup3\n        /* \"#utility.yul\":237:255   */\n      add\n        /* \"#utility.yul\":229:255   */\n      swap1\n      pop\n        /* \"#utility.yul\":265:332   */\n      tag_17\n        /* \"#utility.yul\":329:330   */\n      0x00\n        /* \"#utility.yul\":318:327   */\n      dup4\n        /* \"#utility.yul\":314:331   */\n      add\n        /* \"#utility.yul\":305:311   */\n      dup5\n        /* \"#utility.yul\":265:332   */\n      tag_12\n      jump\t// in\n    tag_17:\n        /* \"#utility.yul\":125:339   */\n      swap3\n      swap2\n      pop\n      pop\n      jump\t// out\n        /* \"#utility.yul\":345:582   */\n    tag_10:\n        /* \"#utility.yul\":383:386   */\n      0x00\n        /* \"#utility.yul\":402:420   */\n      tag_19\n        /* \"#utility.yul\":418:419   */\n      dup3\n        /* \"#utility.yul\":402:420   */\n      tag_15\n      jump\t// in\n    tag_19:\n        /* \"#utility.yul\":397:420   */\n      swap2\n      pop\n        /* \"#utility.yul\":434:452   */\n      tag_20\n        /* \"#utility.yul\":450:451   */\n      dup4\n        /* \"#utility.yul\":434:452   */\n      tag_15\n      jump\t// in\n    tag_20:\n        /* \"#utility.yul\":429:452   */\n      swap3\n      pop\n        /* \"#utility.yul\":524:525   */\n      dup3\n        /* \"#utility.yul\":518:522   */\n      0xff\n        /* \"#utility.yul\":514:526   */\n      sub\n        /* \"#utility.yul\":511:512   */\n      dup3\n        /* \"#utility.yul\":508:527   */\n      gt\n        /* \"#utility.yul\":505:550   */\n      iszero\n      tag_21\n      jumpi\n        /* \"#utility.yul\":530:548   */\n      tag_22\n      tag_23\n      jump\t// in\n    tag_22:\n        /* \"#utility.yul\":505:550   */\n    tag_21:\n        /* \"#utility.yul\":574:575   */\n      dup3\n        /* \"#utility.yul\":571:572   */\n      dup3\n        /* \"#utility.yul\":567:576   */\n      add\n        /* \"#utility.yul\":560:576   */\n      swap1\n      pop\n        /* \"#utility.yul\":345:582   */\n      swap3\n      swap2\n      pop\n      pop\n      jump\t// out\n        /* \"#utility.yul\":588:674   */\n    tag_15:\n        /* \"#utility.yul\":623:630   */\n      0x00\n        /* \"#utility.yul\":663:667   */\n      0xff\n        /* \"#utility.yul\":656:661   */\n      dup3\n        /* \"#utility.yul\":652:668   */\n      and\n        /* \"#utility.yul\":641:668   */\n      swap1\n      pop\n        /* \"#utility.yul\":588:674   */\n      swap2\n      swap1\n      pop\n      jump\t// out\n        /* \"#utility.yul\":680:860   */\n    tag_23:\n        /* \"#utility.yul\":728:805   */\n      0x4e487b7100000000000000000000000000000000000000000000000000000000\n        /* \"#utility.yul\":725:726   */\n      0x00\n        /* \"#utility.yul\":718:806   */\n      mstore\n        /* \"#utility.yul\":825:829   */\n      0x11\n        /* \"#utility.yul\":822:823   */\n      0x04\n        /* \"#utility.yul\":815:830   */\n      mstore\n        /* \"#utility.yul\":849:853   */\n      0x24\n        /* \"#utility.yul\":846:847   */\n      0x00\n        /* \"#utility.yul\":839:854   */\n      revert\n\n    auxdata: 0xa2646970667358221220bbfdac74dbba059bdf4c6fa3148c4ba67eff60f2ce7ff2820a44accfbdd99c7a64736f6c63430008070033\n}\n",
				"bytecode": {
					"linkReferences": {},
					"object": "608060405234801561001057600080fd5b50610126806100206000396000f3fe6080604052348015600f57600080fd5b506004361060275760003560e01c80624264c314602c575b600080fd5b60326046565b604051603d9190606b565b60405180910390f35b600080606460ff605591906084565b90508091505090565b60658160b4565b82525050565b6000602082019050607e6000830184605e565b92915050565b6000608d8260b4565b915060968360b4565b92508260ff0382111560a95760a860c1565b5b828201905092915050565b600060ff82169050919050565b7f4e487b7100000000000000000000000000000000000000000000000000000000600052601160045260246000fdfea2646970667358221220bbfdac74dbba059bdf4c6fa3148c4ba67eff60f2ce7ff2820a44accfbdd99c7a64736f6c63430008070033",
					"opcodes": "PUSH1 0x80 PUSH1 0x40 MSTORE CALLVALUE DUP1 ISZERO PUSH2 0x10 JUMPI PUSH1 0x0 DUP1 REVERT JUMPDEST POP PUSH2 0x126 DUP1 PUSH2 0x20 PUSH1 0x0 CODECOPY PUSH1 0x0 RETURN INVALID PUSH1 0x80 PUSH1 0x40 MSTORE CALLVALUE DUP1 ISZERO PUSH1 0xF JUMPI PUSH1 0x0 DUP1 REVERT JUMPDEST POP PUSH1 0x4 CALLDATASIZE LT PUSH1 0x27 JUMPI PUSH1 0x0 CALLDATALOAD PUSH1 0xE0 SHR DUP1 PUSH3 0x4264C3 EQ PUSH1 0x2C JUMPI JUMPDEST PUSH1 0x0 DUP1 REVERT JUMPDEST PUSH1 0x32 PUSH1 0x46 JUMP JUMPDEST PUSH1 0x40 MLOAD PUSH1 0x3D SWAP2 SWAP1 PUSH1 0x6B JUMP JUMPDEST PUSH1 0x40 MLOAD DUP1 SWAP2 SUB SWAP1 RETURN JUMPDEST PUSH1 0x0 DUP1 PUSH1 0x64 PUSH1 0xFF PUSH1 0x55 SWAP2 SWAP1 PUSH1 0x84 JUMP JUMPDEST SWAP1 POP DUP1 SWAP2 POP POP SWAP1 JUMP JUMPDEST PUSH1 0x65 DUP2 PUSH1 0xB4 JUMP JUMPDEST DUP3 MSTORE POP POP JUMP JUMPDEST PUSH1 0x0 PUSH1 0x20 DUP3 ADD SWAP1 POP PUSH1 0x7E PUSH1 0x0 DUP4 ADD DUP5 PUSH1 0x5E JUMP JUMPDEST SWAP3 SWAP2 POP POP JUMP JUMPDEST PUSH1 0x0 PUSH1 0x8D DUP3 PUSH1 0xB4 JUMP JUMPDEST SWAP2 POP PUSH1 0x96 DUP4 PUSH1 0xB4 JUMP JUMPDEST SWAP3 POP DUP3 PUSH1 0xFF SUB DUP3 GT ISZERO PUSH1 0xA9 JUMPI PUSH1 0xA8 PUSH1 0xC1 JUMP JUMPDEST JUMPDEST DUP3 DUP3 ADD SWAP1 POP SWAP3 SWAP2 POP POP JUMP JUMPDEST PUSH1 0x0 PUSH1 0xFF DUP3 AND SWAP1 POP SWAP2 SWAP1 POP JUMP JUMPDEST PUSH32 0x4E487B7100000000000000000000000000000000000000000000000000000000 PUSH1 0x0 MSTORE PUSH1 0x11 PUSH1 0x4 MSTORE PUSH1 0x24 PUSH1 0x0 REVERT INVALID LOG2 PUSH5 0x6970667358 0x22 SLT KECCAK256 0xBB REVERT 0xAC PUSH21 0xDBBA059BDF4C6FA3148C4BA67EFF60F2CE7FF2820A DIFFICULTY 0xAC 0xCF 0xBD 0xD9 SWAP13 PUSH27 0x64736F6C6343000807003300000000000000000000000000000000 "
				},
				"gasEstimates": {
					"creation": {
						"codeDepositCost": "58800",
						"executionCost": "111",
						"totalCost": "58911"
					},
					"external": {
						"overflow()": "infinite"
					}
				},
				"methodIdentifiers": {
					"overflow()": "004264c3"
				}
			},
			"storageLayout": {
				"storage": [],
				"types": null
			},
			"userdoc": {
				"kind": "user",
				"methods": {},
				"version": 1
			}
		}
	}
}