{
	"contracts/Overflow.sol": {
		"Overflow": {
			"abi": [
				{
					"inputs": [],
					"name": "overflow",
					"outputs": [
						{
							"internalType": "uint8",
							"name": "",
							"type": "uint8"
						}
					],
					"stateMutability": "view",
					"type": "function"
				}
			],
			"devdoc": {
				"kind": "dev",
				"methods": {},
				"version": 1
			},
			"evm": {
				"assembly": "    /* \"contracts/Overflow.sol\":74:206  contract Overflow{\r... */\n  mstore(0x40, 0x80)\n  callvalue\n  dup1\n  iszero\n  tag_1\n  jumpi\n  0x00\n  dup1\n  revert\ntag_1:\n  pop\n  dataSize(sub_0)\n  dup1\n  dataOffset(sub_0)\n  0x00\n  codecopy\n  0x00\n  return\nstop\n\nsub_0: assembly {\n        /* \"contracts/Overflow.sol\":74:206  contract Overflow{\r... */\n      mstore(0x40, 0x80)\n      callvalue\n      dup1\n      iszero\n      tag_1\n      jumpi\n      0x00\n      dup1\n      revert\n    tag_1:\n      pop\n      jumpi(tag_2, lt(calldatasize, 0x04))\n      shr(0xe0, calldataload(0x00))\n      dup1\n      0x4264c3\n      eq\n      tag_3\n      jumpi\n    tag_2:\n      0x00\n      dup1\n      revert\n        /* \"contracts/Overflow.sol\":102:203  function overflow() public view returns(uint8){\r... */\n    tag_3:\n      tag_4\n      tag_5\n      jump\t// in\n    tag_4:\n      mload(0x40)\n      tag_6\n      swap2\n      swap1\n      tag_7\n      jump\t// in\n    tag_6:\n      mload(0x40)\n      dup1\n      swap2\n      sub\n      swap1\n      return\n    tag_5:\n        /* \"contracts/Overflow.sol\":142:147  uint8 */\n      0x00\n        /* \"contracts/Overflow.sol\":159:168  uint8 big */\n      dup1\n        /* \"contracts/Overflow.sol\":171:174  255 */\n      0xff\n        /* \"contracts/Overflow.sol\":159:174  uint8 big = 255 */\n      swap1\n      pop\n        /* \"contracts/Overflow.sol\":192:195  big */\n      dup1\n        /* \"contracts/Overflow.sol\":185:195  return big */\n      swap2\n      pop\n      pop\n        /* \"contracts/Overflow.sol\":102:203  function overflow() public view returns(uint8){\r... */\n      swap1\n      jump\t// out\n        /* \"#utility.yul\":7:119   */\n    tag_10:\n        /* \"#utility.yul\":90:112   */\n      tag_12\n        /* \"#utility.yul\":106:111   */\n      dup2\n        /* \"#utility.yul\":90:112   */\n      tag_13\n      jump\t// in\n    tag_12:\n        /* \"#utility.yul\":85:88   */\n      dup3\n        /* \"#utility.yul\":78:113   */\n      mstore\n        /* \"#utility.yul\":7:119   */\n      pop\n      pop\n      jump\t// out\n        /* \"#utility.yul\":125:339   */\n    tag_7:\n        /* \"#utility.yul\":214:218   */\n      0x00\n        /* \"#utility.yul\":252:254   */\n      0x20\n        /* \"#utility.yul\":241:250   */\n      dup3\n        /* \"#utility.yul\":237:255   */\n      add\n        /* \"#utility.yul\":229:255   */\n      swap1\n      pop\n        /* \"#utility.yul\":265:332   */\n      tag_15\n        /* \"#utility.yul\":329:330   */\n      0x00\n        /* \"#utility.yul\":318:327   */\n      dup4\n        /* \"#utility.yul\":314:331   */\n      add\n        /* \"#utility.yul\":305:311   */\n      dup5\n        /* \"#utility.yul\":265:332   */\n      tag_10\n      jump\t// in\n    tag_15:\n        /* \"#utility.yul\":125:339   */\n      swap3\n      swap2\n      pop\n      pop\n      jump\t// out\n        /* \"#utility.yul\":345:431   */\n    tag_13:\n        /* \"#utility.yul\":380:387   */\n      0x00\n        /* \"#utility.yul\":420:424   */\n      0xff\n        /* \"#utility.yul\":413:418   */\n      dup3\n        /* \"#utility.yul\":409:425   */\n      and\n        /* \"#utility.yul\":398:425   */\n      swap1\n      pop\n        /* \"#utility.yul\":345:431   */\n      swap2\n      swap1\n      pop\n      jump\t// out\n\n    auxdata: 0xa264697066735822122013a0ce1c3f4bef36133167fe36129657ceca5237c5bbeffeda64be493807366464736f6c63430008070033\n}\n",
				"bytecode": {
					"linkReferences": {},
					"object": "608060405234801561001057600080fd5b5060bd8061001f6000396000f3fe6080604052348015600f57600080fd5b506004361060275760003560e01c80624264c314602c575b600080fd5b60326046565b604051603d91906061565b60405180910390f35b60008060ff90508091505090565b605b81607a565b82525050565b6000602082019050607460008301846054565b92915050565b600060ff8216905091905056fea264697066735822122013a0ce1c3f4bef36133167fe36129657ceca5237c5bbeffeda64be493807366464736f6c63430008070033",
					"opcodes": "PUSH1 0x80 PUSH1 0x40 MSTORE CALLVALUE DUP1 ISZERO PUSH2 0x10 JUMPI PUSH1 0x0 DUP1 REVERT JUMPDEST POP PUSH1 0xBD DUP1 PUSH2 0x1F PUSH1 0x0 CODECOPY PUSH1 0x0 RETURN INVALID PUSH1 0x80 PUSH1 0x40 MSTORE CALLVALUE DUP1 ISZERO PUSH1 0xF JUMPI PUSH1 0x0 DUP1 REVERT JUMPDEST POP PUSH1 0x4 CALLDATASIZE LT PUSH1 0x27 JUMPI PUSH1 0x0 CALLDATALOAD PUSH1 0xE0 SHR DUP1 PUSH3 0x4264C3 EQ PUSH1 0x2C JUMPI JUMPDEST PUSH1 0x0 DUP1 REVERT JUMPDEST PUSH1 0x32 PUSH1 0x46 JUMP JUMPDEST PUSH1 0x40 MLOAD PUSH1 0x3D SWAP2 SWAP1 PUSH1 0x61 JUMP JUMPDEST PUSH1 0x40 MLOAD DUP1 SWAP2 SUB SWAP1 RETURN JUMPDEST PUSH1 0x0 DUP1 PUSH1 0xFF SWAP1 POP DUP1 SWAP2 POP POP SWAP1 JUMP JUMPDEST PUSH1 0x5B DUP2 PUSH1 0x7A JUMP JUMPDEST DUP3 MSTORE POP POP JUMP JUMPDEST PUSH1 0x0 PUSH1 0x20 DUP3 ADD SWAP1 POP PUSH1 0x74 PUSH1 0x0 DUP4 ADD DUP5 PUSH1 0x54 JUMP JUMPDEST SWAP3 SWAP2 POP POP JUMP JUMPDEST PUSH1 0x0 PUSH1 0xFF DUP3 AND SWAP1 POP SWAP2 SWAP1 POP JUMP INVALID LOG2 PUSH5 0x6970667358 0x22 SLT KECCAK256 SGT LOG0 0xCE SHR EXTCODEHASH 0x4B 0xEF CALLDATASIZE SGT BALANCE PUSH8 0xFE36129657CECA52 CALLDATACOPY 0xC5 0xBB 0xEF INVALID 0xDA PUSH5 0xBE49380736 PUSH5 0x64736F6C63 NUMBER STOP ADDMOD SMOD STOP CALLER "
				},
				"gasEstimates": {
					"creation": {
						"codeDepositCost": "37800",
						"executionCost": "87",
						"totalCost": "37887"
					},
					"external": {
						"overflow()": "334"
					}
				},
				"methodIdentifiers": {
					"overflow()": "004264c3"
				}
			},
			"storageLayout": {
				"storage": [],
				"types": null
			},
			"userdoc": {
				"kind": "user",
				"methods": {},
				"version": 1
			}
		}
	}
}