{
	"contracts/SimpleStorage.sol": {
		"SimpleStorage": {
			"abi": [
				{
					"inputs": [],
					"name": "favoriteNumber",
					"outputs": [
						{
							"internalType": "uint256",
							"name": "",
							"type": "uint256"
						}
					],
					"stateMutability": "view",
					"type": "function"
				},
				{
					"inputs": [
						{
							"internalType": "uint256",
							"name": "_favoriteNumber",
							"type": "uint256"
						}
					],
					"name": "store",
					"outputs": [],
					"stateMutability": "nonpayable",
					"type": "function"
				}
			],
			"devdoc": {
				"methods": {}
			},
			"evm": {
				"assembly": "    /* \"contracts/SimpleStorage.sol\":27:240  contract SimpleStorage {\r... */\n  mstore(0x40, 0x80)\n  callvalue\n    /* \"--CODEGEN--\":8:17   */\n  dup1\n    /* \"--CODEGEN--\":5:7   */\n  iszero\n  tag_1\n  jumpi\n    /* \"--CODEGEN--\":30:31   */\n  0x00\n    /* \"--CODEGEN--\":27:28   */\n  dup1\n    /* \"--CODEGEN--\":20:32   */\n  revert\n    /* \"--CODEGEN--\":5:7   */\ntag_1:\n    /* \"contracts/SimpleStorage.sol\":27:240  contract SimpleStorage {\r... */\n  pop\n  dataSize(sub_0)\n  dup1\n  dataOffset(sub_0)\n  0x00\n  codecopy\n  0x00\n  return\nstop\n\nsub_0: assembly {\n        /* \"contracts/SimpleStorage.sol\":27:240  contract SimpleStorage {\r... */\n      mstore(0x40, 0x80)\n      callvalue\n        /* \"--CODEGEN--\":8:17   */\n      dup1\n        /* \"--CODEGEN--\":5:7   */\n      iszero\n      tag_1\n      jumpi\n        /* \"--CODEGEN--\":30:31   */\n      0x00\n        /* \"--CODEGEN--\":27:28   */\n      dup1\n        /* \"--CODEGEN--\":20:32   */\n      revert\n        /* \"--CODEGEN--\":5:7   */\n    tag_1:\n        /* \"contracts/SimpleStorage.sol\":27:240  contract SimpleStorage {\r... */\n      pop\n      jumpi(tag_2, lt(calldatasize, 0x04))\n      shr(0xe0, calldataload(0x00))\n      dup1\n      0x471f7cdf\n      eq\n      tag_3\n      jumpi\n      dup1\n      0x6057361d\n      eq\n      tag_4\n      jumpi\n    tag_2:\n      0x00\n      dup1\n      revert\n        /* \"contracts/SimpleStorage.sol\":99:128  uint256 public favoriteNumber */\n    tag_3:\n      tag_5\n      tag_6\n      jump\t// in\n    tag_5:\n      mload(0x40)\n      dup1\n      dup3\n      dup2\n      mstore\n      0x20\n      add\n      swap2\n      pop\n      pop\n      mload(0x40)\n      dup1\n      swap2\n      sub\n      swap1\n      return\n        /* \"contracts/SimpleStorage.sol\":137:235  function store(uint256 _favoriteNumber) public {\r... */\n    tag_4:\n      tag_7\n      0x04\n      dup1\n      calldatasize\n      sub\n        /* \"--CODEGEN--\":13:15   */\n      0x20\n        /* \"--CODEGEN--\":8:11   */\n      dup2\n        /* \"--CODEGEN--\":5:16   */\n      lt\n        /* \"--CODEGEN--\":2:4   */\n      iszero\n      tag_8\n      jumpi\n        /* \"--CODEGEN--\":29:30   */\n      0x00\n        /* \"--CODEGEN--\":26:27   */\n      dup1\n        /* \"--CODEGEN--\":19:31   */\n      revert\n        /* \"--CODEGEN--\":2:4   */\n    tag_8:\n        /* \"contracts/SimpleStorage.sol\":137:235  function store(uint256 _favoriteNumber) public {\r... */\n      dup2\n      add\n      swap1\n      dup1\n      dup1\n      calldataload\n      swap1\n      0x20\n      add\n      swap1\n      swap3\n      swap2\n      swap1\n      pop\n      pop\n      pop\n      tag_9\n      jump\t// in\n    tag_7:\n      stop\n        /* \"contracts/SimpleStorage.sol\":99:128  uint256 public favoriteNumber */\n    tag_6:\n      sload(0x00)\n      dup2\n      jump\t// out\n        /* \"contracts/SimpleStorage.sol\":137:235  function store(uint256 _favoriteNumber) public {\r... */\n    tag_9:\n        /* \"contracts/SimpleStorage.sol\":212:227  _favoriteNumber */\n      dup1\n        /* \"contracts/SimpleStorage.sol\":195:209  favoriteNumber */\n      0x00\n        /* \"contracts/SimpleStorage.sol\":195:227  favoriteNumber = _favoriteNumber */\n      dup2\n      swap1\n      sstore\n      pop\n        /* \"contracts/SimpleStorage.sol\":137:235  function store(uint256 _favoriteNumber) public {\r... */\n      pop\n      jump\t// out\n\n    auxdata: 0xa2646970667358221220bdffb5528ad6cbb06f94ae5a5c0b3b4a60c70e0be109caf35dd3265c9065d9d364736f6c63430006000033\n}\n",
				"bytecode": {
					"linkReferences": {},
					"object": "608060405234801561001057600080fd5b5060c48061001f6000396000f3fe6080604052348015600f57600080fd5b506004361060325760003560e01c8063471f7cdf1460375780636057361d146053575b600080fd5b603d607e565b6040518082815260200191505060405180910390f35b607c60048036036020811015606757600080fd5b81019080803590602001909291905050506084565b005b60005481565b806000819055505056fea2646970667358221220bdffb5528ad6cbb06f94ae5a5c0b3b4a60c70e0be109caf35dd3265c9065d9d364736f6c63430006000033",
					"opcodes": "PUSH1 0x80 PUSH1 0x40 MSTORE CALLVALUE DUP1 ISZERO PUSH2 0x10 JUMPI PUSH1 0x0 DUP1 REVERT JUMPDEST POP PUSH1 0xC4 DUP1 PUSH2 0x1F PUSH1 0x0 CODECOPY PUSH1 0x0 RETURN INVALID PUSH1 0x80 PUSH1 0x40 MSTORE CALLVALUE DUP1 ISZERO PUSH1 0xF JUMPI PUSH1 0x0 DUP1 REVERT JUMPDEST POP PUSH1 0x4 CALLDATASIZE LT PUSH1 0x32 JUMPI PUSH1 0x0 CALLDATALOAD PUSH1 0xE0 SHR DUP1 PUSH4 0x471F7CDF EQ PUSH1 0x37 JUMPI DUP1 PUSH4 0x6057361D EQ PUSH1 0x53 JUMPI JUMPDEST PUSH1 0x0 DUP1 REVERT JUMPDEST PUSH1 0x3D PUSH1 0x7E JUMP JUMPDEST PUSH1 0x40 MLOAD DUP1 DUP3 DUP2 MSTORE PUSH1 0x20 ADD SWAP2 POP POP PUSH1 0x40 MLOAD DUP1 SWAP2 SUB SWAP1 RETURN JUMPDEST PUSH1 0x7C PUSH1 0x4 DUP1 CALLDATASIZE SUB PUSH1 0x20 DUP2 LT ISZERO PUSH1 0x67 JUMPI PUSH1 0x0 DUP1 REVERT JUMPDEST DUP2 ADD SWAP1 DUP1 DUP1 CALLDATALOAD SWAP1 PUSH1 0x20 ADD SWAP1 SWAP3 SWAP2 SWAP1 POP POP POP PUSH1 0x84 JUMP JUMPDEST STOP JUMPDEST PUSH1 0x0 SLOAD DUP2 JUMP JUMPDEST DUP1 PUSH1 0x0 DUP2 SWAP1 SSTORE POP POP JUMP INVALID LOG2 PUSH5 0x6970667358 0x22 SLT KECCAK256 0xBD SELFDESTRUCT 0xB5 MSTORE DUP11 0xD6 0xCB 0xB0 PUSH16 0x94AE5A5C0B3B4A60C70E0BE109CAF35D 0xD3 0x26 0x5C SWAP1 PUSH6 0xD9D364736F6C PUSH4 0x43000600 STOP CALLER "
				},
				"gasEstimates": {
					"creation": {
						"codeDepositCost": "39200",
						"executionCost": "93",
						"totalCost": "39293"
					},
					"external": {
						"favoriteNumber()": "983",
						"store(uint256)": "20242"
					}
				},
				"methodIdentifiers": {
					"favoriteNumber()": "471f7cdf",
					"store(uint256)": "6057361d"
				}
			},
			"storageLayout": {
				"storage": [
					{
						"astId": 3,
						"contract": "contracts/SimpleStorage.sol:SimpleStorage",
						"label": "favoriteNumber",
						"offset": 0,
						"slot": "0",
						"type": "t_uint256"
					}
				],
				"types": {
					"t_uint256": {
						"encoding": "inplace",
						"label": "uint256",
						"numberOfBytes": "32"
					}
				}
			},
			"userdoc": {
				"methods": {}
			}
		}
	}
}